:020000040800F2
:10000000F01B002049010008C94A0008DB33000842
:10001000214A000851120008B95A000800000000E7
:10002000000000000000000000000000794F000800
:100030004B14000800000000254C0008595400082B
:100040006301000863010008630100086301000800
:1000500063010008630100086301000863010008F0
:1000600063010008630100086301000863010008E0
:1000700063010008630100086301000863010008D0
:100080000914000815140008630100086301000842
:1000900063010008630100086301000863010008B0
:1000A00063010008630100086301000863010008A0
:1000B0006301000863010008BD540008E93300082B
:1000C000DD330008630100086301000863010008D4
:1000D00063010008630100085D5A0008630100081D
:1000E0006301000863010008630100086301000860
:1000F0006301000863010008630100086301000850
:10010000630100086301000863010008630100083F
:10011000630100086301000863010008630100082F
:10012000630100086301000863010008630100081F
:10013000DFF810D000F0C8FE0048004769750008DD
:10014000AFF30080F01B00200648804706480047B8
:10015000FEE7FEE7FEE7FEE7FEE7FEE7FEE7FEE777
:10016000FEE7FEE7BB54000831010008202A04DB4B
:10017000203A21FA02F00021704721FA02F3D04020
:10018000C2F120029140084319467047A0F1410195
:10019000192900D82030704740EA01039B0703D09B
:1001A00009E008C9121F08C0042AFAD203E011F8B6
:1001B000013B00F8013B521EF9D27047D2B201E078
:1001C00000F8012B491EFBD270470022F6E710B55C
:1001D00013460A4604461946FFF7F0FF204610BDB5
:1001E000421C10F8011B0029FBD1801A704710B582
:1001F000002200E0521C835C8C5CA34201D1002BE6
:10020000F8D1D8B2E1B2401A10BD034611F8012B63
:1002100000F8012B002AF9D11846704730B5054681
:100220000020034600E05B1C934205D2EC5CC85CF6
:10023000201A01D1002CF6D130BD00000FB400B55A
:100240008DB010A909900B9000914FF0FF300A90EB
:1002500000200C9005480690054807906A4609A8BA
:100260000F9900F01BFC0DB05DF814FBB90A0008F3
:10027000D70A00082DE9FF4F087883B09946FF2878
:1002800005D0491C2D2804D00024002008E00020BF
:100290000BE00124F9E700EB800003EB4000491C70
:1002A0000B78FF2BF7D104B140420023029314785E
:1002B00019461D462D2C01D02B2C04D1521C2D2C5F
:1002C00013D000240294AA461478FF2C0FD00A25DC
:1002D000A3FB057801FB05814FF0000C03FB0C111B
:1002E000521CE3194AEB0101EEE70124EAE78144DD
:1002F00053EA010002D019F5C87F06DA03980021FD
:10030000C0E9001107B0BDE8F08F0025AE4E2F46C2
:10031000DFF8B882184600F0B2FDCDE90001B9F16E
:10032000000002DAC9F1000400E004460023A74AF5
:100330001AEB030B42EB045A12E0E00707D02A46FF
:1003400033463846414600F0B9FC074688462A46FF
:1003500033461046194600F0B1FC05460E466410BF
:10036000002CEAD1DDE90001B9F1000F5A465346ED
:1003700006DA00F015FD3A46434600F011FD05E0AF
:1003800000F09CFC3A46434600F098FC029A0AB101
:1003900081F00041039AC2E90001B3E72DE9FF4F64
:1003A0001F468DB0D7E901464FF0FF382E20454655
:1003B0004FF000090B90B9696D1C0E988847396A97
:1003C000824688470028F6D1BAF1FF3F0AD024F4CC
:1003D000D064002E11DDBAF12B0F08D0BAF12D0F29
:1003E0000BD102E0404611B08DE744F48064B96956
:1003F0006D1C0E9888478246761E6946600501D5B9
:100400002D2000E02B208DF8000001F1010B0DF1F3
:10041000200809E0B9696D1C0E98884782460F983C
:1004200044F40074761E0560002E02DDBAF1300F30
:10043000F0D00B998A453ED144F0800406E00F9934
:10044000681CA9F1010944F400740860B9696D1CC5
:10045000761E0E98884782463028F0D02BE00B9904
:100460008A4505D1200603D444F08004761E18E0A6
:10047000504605F04DFD08B30DF11301761E44F40E
:1004800000748B4508D2AAF130000BF8010B20064E
:1004900007D5A9F1010003E0200602D409F101000B
:1004A0008146A00502D50F99681C0860B9696D1CCA
:1004B0000E9888478246002ED1DC53E0002E51DD95
:1004C000BAF1650F02D0BAF1450F4BD1A00549D55D
:1004D000B9696D1C24F44074761E0E9888478246D4
:1004E000002E0CDD2B2804D0BAF12D0F07D144F4D7
:1004F0008074B9696D1C0E9888478246761EE005A7
:1005000001D52D2100E02B2108F8011BCDF82C800E
:1005100021E00DF12901761E44F4007488450CD2C7
:10052000AAF1300010F0FF0088F8000002D10B990A
:10053000884509D908F1010806E0E00501D52448FD
:1005400001E042F20F708146B9696D1C0E98884730
:1005500082460F980560002E04DD504605F0D8FC59
:100560000028D6D1F9690E988847FF208BF8000043
:1005700088F800000020069007904B466A4608A9BC
:1005800006A8FFF777FEA00502D46FF001002AE766
:1005900014F0240F0AD0E00714D1DDE90612386800
:1005A000031D3B600068C0E900120BE0DDE90601B5
:1005B00000F0EAF90146E00704D13868021D3A600C
:1005C0000068016028460EE7000014400000F03F7C
:1005D000F1D8FFFFF0B480EA0102D40F4200B2EB81
:1005E000410F02D20246084611464A0042D0C30DCE
:1005F000DDB2C1F3C752AD1A202D35DAC1F31601B1
:1006000041F4000204B15242C5F1200602FA06F19B
:100610002A411044B3EBD05F23D0C4B1012DA0EB2D
:10062000C35009DCF0BC4FF0004202EAC352DBB217
:1006300000F5000000F0B7BA400000F1807000EB58
:10064000C350A0F1807040EAD170490009E0490828
:1006500041EAC071A0EBC35000F50000400800EB78
:10066000C350F0BC00F096BA6142012202EB410196
:10067000001BF6E7F0BC704781F00041AAE780F06C
:100680000040A7E730B480EA010202F0004530F0F4
:10069000004221F0004013D090B1C30DD40DC2F33D
:1006A0001601C0F31600E41A41F4000140F4000200
:1006B0007D34914201D3641C00E04900002C02DA31
:1006C00030BC002070474FF400000023914201D35A
:1006D000891A034340084FEA4101F7D151B19142D1
:1006E00002D14FF0004105E002D24FF0010101E0DC
:1006F0006FF0010103EBC450284430BC00F04ABA4B
:100700002DE9FE4F804681EA0300C00F0C460090A1
:1007100021F0004123F00045B8EB0200A94105D2C9
:100720004046214690461C460B46024623F00040B8
:10073000104347D0270DC7F30A00C3F30A510290B4
:10074000401A019040286BDAC3F3130040F4801B79
:100750000098924620B10023D2EB030A63EB0B0B07
:1007600001985946C0F14002504600F070F9064623
:100770000D4650465946019A00F078F910EB0800F2
:100780006141002487EA115284EAE7731A4340D09A
:10079000009A62B3019A012A4FEA075215DC001B46
:1007A00061EB02014FF0004202EA0752CDE900423C
:1007B000001C41F5801132462B4600F031FA03B09F
:1007C000BDE8F08F40462146F9E7001B61EB0201CE
:1007D000001C41F5801300185B412018A2F500179A
:1007E00047EB030140EAD570B6196D4111E06D0881
:1007F0004FEA360645EAC0754FEA0752001B61EB27
:100800000201001C41F5801149084FEA300000192F
:10081000514132462B4603B0BDE8F04F00F0F1B92C
:100820000098012240000023D0EB020263EBE0734A
:10083000009821464FEAE074B8EB000061EB040138
:10084000E9E783F000435BE781F0004158E770B5CA
:1008500021F0004303430CD0C1F30A550024D5EB2B
:10086000040564EB0403D617AD1AB34102DB002084
:10087000014670BD201841EB025170BD9623002245
:10088000114600F090B90EB5C10F80EAE07008443F
:10089000CA07002140F233438DE80E000A460B469A
:1008A00000F0BEF903B000BD0EB540F23341029135
:1008B0000021CDE900110A460B4600F0B1F903B062
:1008C00000BD70B5C1F30A5201F000450024C1F328
:1008D000130140F2FF3341F480119A4201DA002003
:1008E00070BD40F233439A42A2F2334203DC5242DB
:1008F000FFF73CFC00E090402C43F1D0404270BD3B
:1009000000F0004230F000400AD0C10D01F56071E6
:10091000C0F3160042EA0151C20840071143704774
:10092000002001467047000030B5041E71F100043C
:1009300004DB4FF00044404264EB0101141E73F1EC
:10094000000405DB1C464FF00043524263EB0403F6
:100950008B4208BF824230BD30B5041E71F10004E5
:1009600004DB4FF00044404264EB0101141E73F1BC
:10097000000405DB1C464FF00043524263EB0403C6
:10098000994208BF904230BD01F0004330B421F0DD
:10099000004150EA010206D00A0DA2F56072C1F3CF
:1009A0001301002A02DC30BC00207047440F44EAE7
:1009B000C104C100E01830BC00EBC25000F0EAB83E
:1009C00030B50B46014600202022012409E021FA1F
:1009D00002F59D4205D303FA02F5491B04FA02F51C
:1009E0002844151EA2F10102F1DC30BD2DE9F05FB3
:1009F0000546002092469B4688460646814640248E
:100A00001BE02846414647462246FFF7AFFB5346C8
:100A10005A46C01A914110D311461846224600F09A
:100A200016F82D1A67EB01084F46224601200021D7
:100A300000F00DF817EB00094E41201EA4F101044F
:100A4000DFDC484631462A464346BDE8F09F202A6F
:100A500004DB203A00FA02F1002070479140C2F115
:100A6000200320FA03F3194390407047202A06DB45
:100A7000CB17203A41FA02F043EAE07306E041FA6C
:100A800002F3D040C2F1200291400843194670475A
:100A9000026811441378016018467047D160044918
:100AA00051610449116200211161114600F024BA1C
:100AB000910A0008ED0E0008426842B1016811F881
:100AC000013B23B1521EC0E90012184670470121B4
:100AD000C160881E704742685AB1C368016843B953
:100AE00083688B4205D0491E521CC0E900120020C9
:100AF00070474FF0FF3070470FB4002300B589B046
:100B00000CA900910B996FF00042CB601E4B06932D
:100B10001E4B07930423CDE901321D4A0892024679
:100B20006B460020FFF73AFC09B05DF814FB70B586
:100B300086B006464FF0FF300091CDE9010100205C
:100B400015460C4604903246694604A8FFF7D4FFC8
:100B500002460498211825B108B1084600E0204655
:100B60002860049800280DD0002A02DD00988842F1
:100B700008D0081B0094CDE901043246694604A858
:100B8000FFF7BAFF06B070BDB90A0008D70A00081F
:100B9000ED0E00080029A8BF7047401C490008BF9F
:100BA00020F00100704710B4B0FA80FC00FA0CF09D
:100BB00050EA010404BF10BC704749B1CCF12004D5
:100BC00021FA04F411FA0CF118BF01212143084362
:100BD000A3EB0C01CB1D4FEA00614FEA102042BF8E
:100BE000002010BC704700EBC35010440029A4BF84
:100BF00010BC7047401C490008BF20F0010010BC29
:100C0000704710B5141E73F1000408DA401C41F15E
:100C1000000192185B411A4301D120F0010010BD80
:100C20002DE9F04D92469B4611B1B1FA81F202E0F6
:100C3000B0FA80F220329046FFF709FF04460F46D3
:100C400040EA0A0041EA0B0153465A46084313D0D2
:100C5000114653EA010019D0C8F140025046FFF78F
:100C600085FA05460E46504659464246FFF7EFFEC6
:100C7000084305D0012004E020463946BDE8F08D48
:100C80000020054346EAE0762C4337430A98630583
:100C9000E40AA0EB08000022FD0A44EA47540A30A7
:100CA00002D500200146E9E7010510196941DDE997
:100CB000084500196941BDE8F04DA2E72DE9FE4F56
:100CC00081EA030404F0004421F0004100944FF055
:100CD000000B23F0004350EA01045ED052EA030403
:100CE0005BD0C3F30A54C1F30A552C44A4F2F33485
:100CF0000194A0FB0254C1F3130141F48011C3F32A
:100D0000130343F4801301FB024400FB034E840AE7
:100D1000970A44EA815447EA8357A4FB076802957F
:100D20008D0A05FB07854FEA932C04FB0C5427051D
:100D3000029D4FEA065847EA1637B5EB08056EEBF9
:100D4000070C870E920E47EA811742EA8312A7FB2F
:100D50000201B6EB0B0164EB00042B0D43EA0C33EC
:100D60005E1844EB1C50DA465146E7FB0201C5F31E
:100D700013044FEA0B3343EA14534FEA0432019C45
:100D800043EA0603A4F10C040294009CCDE900B4EC
:100D9000FFF746FF03B0BDE8F08F00200146F9E7FA
:100DA0002DE9F04D81EA030404F0004B21F00045E9
:100DB00014464FF0000A23F0004150EA050220D00B
:100DC00054EA01021DD0C5F30A570246C5F31303C6
:100DD000C1F31300C1F30A5640F4801543F48013A5
:100DE000A7EB0608101BD64608F2FD3873EB05008A
:100DF00002D308F1010801E092185B41B8F1000F3D
:100E000003DA00200146BDE8F08D00204FF4801188
:100E1000064684460EE0171B73EB050705D3121B2D
:100E200063EB050306434CEA010C49084FEA300026
:100E300092185B4150EA0107EDD152EA030012D04B
:100E400082EA040083EA0501084305D0101BAB4188
:100E500006D20122002306E000224FF0004302E008
:100E60006FF0010253101AEB06004CEB085110EB27
:100E70000A0041EB0B01BDE8F04DFFF7C2BE0EB515
:100E800040F2334202920022CDE900221346FFF7DE
:100E9000C7FE03B000BDC1F30A52C1F3130140F213
:100EA000FF3341F480119A4202DA00200146704774
:100EB00040F233439A42A2F2334202DC5242FFF73D
:100EC00055B9FFF7C4BD0000064C074D06E0E068C9
:100ED00040F0010394E8070098471034AC42F6D381
:100EE000FFF72AF9C8940008E8940008C0B24FF44C
:100EF000F05100F099B900002DE9F34F8BB04FF09D
:100F0000000801F10C000C464FF0010B46460DF1B4
:100F1000080A01906269012101989047051E2DD0B1
:100F2000252D2CD0216A8847C0B162690121019822
:100F30009047216A88470028F7D1411E62690198CD
:100F4000904700E0761CA1690B988847216A884782
:100F50000028F7D1E1690B988847DBE7A1690B9876
:100F600088470746A84201D1761CD3E7E1690B9870
:100F700088477F1C02D1B8F1000F6FD047E10027EE
:100F800062693D463946019890472A2804D1626932
:100F90000121019890470125DFF8889262690121BB
:100FA00001989047A0F130010A290AD24F45E5DCAB
:100FB00007EB870100EB4107303FDFD445F0100518
:100FC000ECE7E90601D46FF000476C280AD04C2802
:100FD00014D0682815D06A280DD074281CD07A281F
:100FE0001AD01DE062690121019890476C2802D057
:100FF00045F0040514E045F002050DE045F020053C
:101000000AE06269012101989047682802D045F002
:10101000080505E045F400656269012101989047E3
:10102000C4E9015765283DD019DC58287AD00CDC7A
:10103000452837D004DC252826D0412831D131E09D
:1010400046282FD047282CD12CE05B2877D0612868
:1010500028D063287CD0642823D15AE0D1E06F28BF
:1010600048D008DC66281DD067281BD0692821D00D
:101070006E2816D127E0702845D0732868D07528CF
:1010800047D078280DD14DE0A1690B9888470546D7
:1010900025283FF469AFE1690B9888476D1C3FF440
:1010A0006AAFB4E023466A466FF001000B99FFF780
:1010B00075F99FE045F040006060A80723464FF0B7
:1010C000000236D43EE0E8077FF447AF2068011DF8
:1010D00021600068290501D506701BE7290701D5A5
:1010E000068017E7A90703D5F117C0E9006111E7EA
:1010F00006600FE745F040006060A80723464FF008
:10110000080216D41EE040F60E0125EA01006060D8
:1011100016E045F040006060A80723464FF00A0241
:1011200007D40FE045F040006060A80708D52346CB
:1011300010226FF001000B99AFF300805AE007E036
:10114000234610226FF001000B99AFF3008051E0AD
:101150004FF000094F464B46632802D05B2807D06A
:1011600041E02079C00601D40120A06001273AE0C7
:1011700062690121019890475E2805D14FF001096D
:101180006269494601989047216939B900210A46A8
:10119000534643F82120491C0829FADBB0B32169E2
:1011A00069B9C11700EBD16253110AEB830122F038
:1011B0001F02821A01200B68904003430B60626992
:1011C0000121019890475D28E8D1B9F1000F09D0BD
:1011D0000020514651F82020D24341F82020401CE5
:1011E0000828F7DB02AB224600976FF001000B994D
:1011F000AFF3008000280CDA401C08D1BBF1000FCF
:1012000005D04FF0FF300DB0BDE8F08FFFE740464E
:10121000F9E7E90701D108F1010806444FF0000B96
:1012200078E60000CCCCCC0C7F2801D9002208E065
:10123000064A02EB5002C007127800D1120902F0F0
:101240000F020120904008407047000024940008DD
:10125000FEE700002DE9F0414FF47A720646904215
:1012600001D9012400E000240D4F3878844214D0C5
:101270000C4D2100AC7009D031460BA004F0ECFC01
:10128000A978304603F0DAF9A87803E0304603F095
:10129000D5F9002000F05EF83C70BDE8F081000058
:1012A0009C00002090000020434F3220414C4552CA
:1012B00054212056616C75653A2025642070706D4C
:1012C00020285468726573686F6C643A202564291D
:1012D0000A00000001220821014800F028BC00009B
:1012E0000008014000220821014800F020BC000055
:1012F0000008014070B505464FF6FF7000224AF223
:1013000001040DE0AB5C58400023C6074FEA5000D3
:1013100000D060405B1CDBB2082BF6D3521C92B2AB
:101320008A42EFD370BD70B515460E4604460022C2
:1013300000781346012107F025FB01462068814211
:1013400006D1C0B22A46314605F094FC012800D0EF
:10135000002070BD08B103A100E003A103A004F0C8
:101360007BBC00004F4E00004F464600416C61724E
:101370006D3A25730D0A000010B50446012103F0F3
:101380004FFF0CB1044901E00349091DBDE81040BD
:1013900002A004F061BC0000C413000866756E3A38
:1013A00025730D0A0000000010B50446002103F06B
:1013B00037FF0CB103A100E003A1BDE8104003A07A
:1013C00004F04ABC4F4E00004F4646006C616D7001
:1013D0003A25730D0A00000010B50446022103F0FF
:1013E0001FFF0CB1044901E00349091DBDE810408D
:1013F00002A004F031BC0000C41300085350524155
:10140000593A25730D0A0000014800F0E3B80000C6
:10141000DC020020014800F0DDB8000020030020BD
:1014200030B590F840500124AC40C56B6C60046846
:1014300063604368102B036803D099600068C26042
:1014400030BD9A600068C16030BD704772B6FEE77B
:1014500010B590F821100022022905D004218163E3
:1014600080F82020012010BD01680B6823F00E03D6
:101470000B6001680B6823F001030B6090F84030AB
:10148000C46B012101FA03F3636080F8211080F836
:101490002020104610BD00002DE9F05F90F82110CB
:1014A0000024022903D004218163012485E001681E
:1014B0000A6822F00E020A6001680A6822F001023E
:1014C0000A603F4E3E4FB215DFF8F4C0DFF8F090EF
:1014D000DFF8ECA0DFF8E8B0DFF8E4E00168783F7F
:1014E00013011502ACF1640CA9F15009AAF13C0AF0
:1014F000ABF1280BAEF1140E4FF48018B14227D98E
:10150000B9420ED0614512D049451DD0514518D081
:10151000594518D0714501D1424615E0294EB142D6
:1015200001D1012210E0274E1436B14201D1102220
:101530000AE0244E2836B14206D0224A3C3291427B
:1015400001D11A4600E02A461E49091F0A602BE015
:10155000B94213D0614517D0494522D051451DD01D
:1015600059451DD0714501D142461AE0B14202D120
:101570004FF0807215E0134EB14201D1012210E00C
:10158000104E1436B14201D110220AE00D4E283619
:10159000B14206D00B4A3C32914201D11A4600E0DA
:1015A0002A46074980394A60012180F8211000212C
:1015B00080F82010416B01B188472046BDE8F09FBC
:1015C0008000024008040240806B704790F82100C0
:1015D000704700002DE9F05FC16B0A6801680B6875
:1015E000046C4FF0040808FA04F8844D844E854FCB
:1015F000DFF814C2DFF81492DFF814A2DFF814B297
:10160000DFF814E218EA020F65D05FEA437862D58A
:101610000A68920603D40A6822F004020A60DFF81E
:10162000F0814FF48062016808F11408130114027C
:10163000414524D9A9420DD0B1420FD0B9421AD0A8
:10164000614515D0494515D0514501D1120312E02D
:10165000594501D104220EE0714501D140220AE032
:101660006D4D1435A94206D06B4A2832914201D102
:101670001A4600E022466749091F0A6029E0A9428C
:1016800013D0B14215D0B94220D061451BD0494595
:101690001BD0514502D14FF4800217E0414502D1E1
:1016A0004FF0806212E0594501D104220EE07145ED
:1016B00001D140220AE0584D1435A94206D0564ABD
:1016C0002832914201D11A4600E022464B4908399E
:1016D0004A60C16A71E04FF0020808FA04F818EA9B
:1016E000020F70D05FEA83786DD50A68920606D43F
:1016F0000A6822F00A020A60012180F82110DFF84E
:1017000010814FF40072016808F1140813011402EB
:10171000414524D9A9420DD0B1420FD0B9421AD0C7
:10172000614515D0494515D0514501D1120312E04C
:10173000594501D102220EE0714501D120220AE073
:10174000354D1435A94206D0334A2832914201D191
:101750001A4600E022462F49091F0A6029E0A942E3
:1017600013D0B14215D0B94220D061451BD04945B4
:101770001BD0514502D14FF4001217E0414502D170
:101780004FF0007212E0594501D102220EE071457E
:1017900001D120220AE0204D1435A94206D01E4A6C
:1017A0002832914201D11A4600E0224613490839F5
:1017B0004A60002180F82010816A00291CD0BDE811
:1017C000F05F0847FFE70825A540154214D01A0727
:1017D00012D50A6822F00E020A6090F84020C36B0E
:1017E000012101FA02F25A60816380F82110002180
:1017F00080F82010016BE0E7BDE8F09F0800024090
:101800001C000240300002404400024058000240E8
:101810006C000240080402401C04024030B560B174
:101820001A4B026814219A4209D2194B1344B3FB94
:10183000F1F18900016417490AE0012030BD134B22
:101840005B421344B3FBF1F1890001640F4908398D
:10185000C163022180F82110136843F6F0718B43B5
:10186000F0E901142143D0E902452C4321430469E6
:1018700021434469214384692143194311600021B4
:101880004163012242770177084630BD08040240D7
:10189000F8FFFDBF0000024070B5044690F820003C
:1018A000002501280CD0012084F8200094F8216044
:1018B0000020012E06D084F820000225284670BDA5
:1018C000022070BD022684F82160A06320680668AB
:1018D00026F0010606602046FFF7A2FDE06A002818
:1018E0002068016802D041F00E0106E021F00401F9
:1018F00001602068016841F00A0101602068016808
:1019000041F001010160D9E770B5044600F014F917
:101910000546601C02D004480078044400F00CF92D
:10192000401BA042FAD370BD040000202DE9F84FFF
:10193000DFF8C8910024A9F1040B23460F2709F111
:10194000040AABF1040ED1E00125A54006EA050228
:10195000AA4276D1DFF8A8C14E68A6EB0C0866450E
:101960002BD00DDC032E34D005DC36B3012E19D07C
:10197000022E2FD11BE0112E16D0122E2AD119E0E3
:10198000B8F5881F19D006DCB8F5803F15D0B8F53A
:10199000801F1FD111E0B8F5001F0ED0B8F5041F4D
:1019A00018D10AE0CB6815E0CB681B1D12E0CB68AC
:1019B00008330FE0CB680C330CE08B682BB1012BA4
:1019C0004FF0080303D0456104E0042302E0056101
:1019D00000E00023FF2A01D8064601E000F10406DA
:1019E0004FEA840501D9A5F12005D6F8008007FA51
:1019F00005FC28EA0C0803FA05F548EA0508C6F8CC
:101A000000804D68ED0070D53E4DAE6946F0010690
:101A1000AE61AD6924F0030605F0010500953A4D6D
:101A200006EB050CDCF80850A607360F07FA06F897
:101A300025EA0805DFF8D480404503D14FF00008BF
:101A400025E052E0DFF8C880404502D14FF00108A0
:101A50001DE0DFF8C080404502D14FF0020816E0DB
:101A6000DFF8B480404502D14FF003080FE0DFF803
:101A7000AC80404502D14FF0040808E0DFF8A080B8
:101A8000404502D14FF0050801E04FF0060808FA82
:101A900006F848EA0508CCF808804D68D9F80060D7
:101AA000ED024D4601D5164300E096432E604D6889
:101AB000DAF80060AD02554601D5164300E09643C2
:101AC0002E604D68DBF80060AD035D4601D516431E
:101AD00000E096432E604D68DEF80060ED03754629
:101AE00001D5164300E096432E60641C0A68164632
:101AF000E2407FF429AFBDE8F88F00000804014000
:101B000000001110001002400000014000080140D8
:101B1000000C014000100140001401400018014079
:101B2000001C01408068084000D0012070470AB1C5
:101B3000016170470904FBE70148806870470000B5
:101B400004000020704770472DE9F0410168044609
:101B50004A694E6890F83E000025D743FA050BD439
:101B6000F243D20508D46FF4807201254A612168DE
:101B70000A6842F400420A60B90508D4F143C90575
:101B800005D422686FF4007145F0020551617905B2
:101B900025D4F143C90522D4638D94F83D10226BFE
:101BA000202808D13BB9212910D029290ED0282975
:101BB00001D1212A0AD022686FF48061516145F079
:101BC0000405102806D0402804D008E0204602F082
:101BD00013F804E02068016841F4007101603805E1
:101BE00008D4F043C00505D421686FF4006045F0C7
:101BF00008054861002D07D0206C2843206420464A
:101C0000BDE8F04101F05CBCBDE8F0812DE9F04792
:101C1000026800215368C66A90F83E4090F83D5033
:101C2000102C12D0402C10D0046C002C7DD05469A4
:101C3000E443A6077AD4DE43B60577D4036C03B138
:101C40009169BDE8F04701F0B3BF976951694FF45E
:101C50002A0CC9435FEAC1784FF02A4904D066458F
:101C60002AD04E4528D010E0DE43B6050DD4C16A17
:101C7000614501D1012103E0C16A494501D1082133
:101C8000C162BDE8F04701F0F9BE0E0716D4DE438D
:101C9000B60513D4416CC9B21161416B09B1896AAF
:101CA00029B9816B002907D0896A002904D000680E
:101CB000416841F400614160BDE8F0878E0706D4B9
:101CC000DE43B60503D4BDE8F04701F02BBEFE436A
:101CD000526876074FEA02521DD4002AECDB0A064E
:101CE00008D4DA43520505D4490705D5BDE8F047C5
:101CF00001F0BCBD4907DFD4D9438905DCD4212DCF
:101D000005D0402CD8D1BDE8F04701F0FDBEBDE8BC
:101D1000F04701F069BD002ACEDB4A060BD4DA4356
:101D2000520508D4490708D501E00DE00EE0BDE8F2
:101D3000F04701F0DFBC4907BED4D9438905BBD4C5
:101D4000BDE8F04701F068BC916970E7E10606D490
:101D5000D943890503D4BDE8F04701F095BF282198
:101D6000212D27D0292D25D0650655D4DD436D05BD
:101D700052D4640752D590F83D30448D002C9BD04E
:101D80001269446A2270426A521C4262428D521E9B
:101D90004285428D002A8FD12A2B8DD1026853684B
:101DA00023F4806353602222026380F83D1000F028
:101DB0004FF981E7250623D4DD436D0520D4640760
:101DC00020D590F83D30448D002CF2D0446A247820
:101DD0001461426A521C4262428D521E4285428DFB
:101DE000002AE6D1292BE4D10268536823F48063EA
:101DF00053602122026380F83D1000F02AF95BE76E
:101E00006107D6D4D9438905D3D4418D0029D0D0D8
:101E1000416A097811610AE06107CAD4D94389058A
:101E2000C7D4418D0029C4D01169426A1170416A3A
:101E3000491C4162418D491E41853DE770470000C4
:101E400070B5040025D094F83D00002520B984F831
:101E50003C50204600F0BEF8242084F83D00206865
:101E6000016821F0010101602068016841F400412E
:101E700001602068016821F40041016000F018FA57
:101E80004D4A6168914201D84C4900E04C49884272
:101E900001D2012070BD4B492368B0FBF1F15E68AF
:101EA00026F03F060E435E606368934206D94FF406
:101EB000967359434FF47A73B1FBF3F12368491CCD
:101EC0001E6A26F03F06314319626168914210D8BC
:101ED0004900401EB0FBF1F2521CC2F30B02042A6F
:101EE00001D2042022E0B0FBF1F0401CC0F30B0053
:101EF0001CE0A268F2B301EBC10303EB0116431E21
:101F0000B3FBF6F35B1C43F480431B0549D092B34B
:101F100001EBC10202EB0111401EB0FBF1F0401CCD
:101F2000C0F30B0040F4804040F400402168CA69CF
:101F30004CF6FF739A431043C861D4E9071001437C
:101F40002068026822F0C00211430160D4E9030155
:101F500001432068826848F2FF339A43114381604D
:101F6000D4E9050108432168CA6822F0FF02104342
:101F7000C86001E00EE016E02068016841F0010150
:101F800001602564202084F83D00256384F83E50DC
:101F9000002070BD01EB4106431EB3FBF6F35B1C52
:101FA000B3E70120C2E701EB4101401EB0FBF1F0B5
:101FB000401CC0F30B00B7E7A086010080841E0020
:101FC00000093D0040420F0070477047704770475E
:101FD0007047000010B586B0002100910191029178
:101FE00003910068174988422AD1174CA06940F034
:101FF0000800A061A069694600F008000490C020B4
:10200000009012200190032003901048FFF78EFCEF
:10201000E06940F40010E061E069002200F4001083
:10202000049011461F2000F07BF81F2000F06AF892
:1020300000221146202000F073F8202000F062F802
:1020400006B010BD0054004000100240000C0140DA
:102050007047704702488168027811448160704778
:1020600004000020074810B5016841F0100101602C
:10207000032000F075F80F2000F006F800F024F8B7
:10208000002010BD0020024070B50D4D04464FF4F5
:102090007A712878B1FBF0F00A490968B1FBF0F0D9
:1020A00000F066FC48B9102C07D200222146501ED1
:1020B00000F036F800206C6070BD012070BD00009B
:1020C00004000020100000200C4808B5816941F090
:1020D00001018161816901F001010091C16941F053
:1020E0008051C161C06900F080500090044841688F
:1020F00021F0E06141F00071416008BD0010024034
:1021000000000140002809DB00F01F02012191407E
:102110004009800000F1E020C0F800117047000085
:10212000F0B40E4B1B680C46C3F30223C3F1070542
:10213000042D00D90425191D072901D2002300E030
:10214000DB1E012606FA05F1491E214099409E40FA
:10215000761E16403143F0BC03F0A2BD0CED00E04A
:10216000064900F0070208684FF6FF03184040EAEE
:102170000220034A10430860704700000CED00E0A5
:102180000000FA052DE9F0470F46050061D0434EE7
:10219000306800F00700B84209D2306820F007002C
:1021A00038433060306800F00700B84251D12868E9
:1021B0003B4C810712D5400703D5606840F4E060CE
:1021C00060602878000703D5606840F46050606064
:1021D0006068A96820F0F000084360602878C007B4
:1021E00028D06868012810D02168022810D08907FB
:1021F00000292EDA616821F0030101436160FFF7D5
:102200009BFC804641F288390DE021688903EFE7A5
:102210008901EDE7FFF790FCA0EB0801494502D9E1
:102220000320BDE8F0876068696800F00C00B0EB3F
:10223000810FEFD1306800F00700B8420BD9306849
:1022400020F0070038433060306800F00700B842E3
:1022500001D00120E5E72878400705D56068E968E6
:1022600020F4E060084360602878000706D56068C5
:10227000296920F4605040EAC100606000F038F83D
:102280006168084AC1F30311515CC84006490860FF
:1022900006480068FFF7F8FE0020C2E70020024071
:1022A00000100240449300081000002008000020A5
:1022B0000448054900684968044AC1F30221515C99
:1022C000C8407047100000200010024054930008DE
:1022D0000448054900684968044AC1F3C221515CB9
:1022E000C8407047100000200010024054930008BE
:1022F0000E4A51680E4801F00C03042B11D0082B34
:102300000FD10C48C1F38343C903C05C0AD551689F
:10231000084AC1F34041921E515C054A5043B0FB4C
:10232000F1F0704704494843704700000010024034
:1023300000127A003493000800093D002DE9F84F9F
:10234000040070D02078C04DC00749D06868C0F341
:102350008100012807D06868C0F38100022809D1F4
:102360006868C00306D52868800339D560680028EE
:10237000E7D035E06068B0F5803F0BD010B1B0F524
:10238000A02F11D0286820F480302860286820F41D
:10239000802002E0286840F480302860606890B1B6
:1023A000FFF7CAFB06460AE0286840F48020286050
:1023B000F0E700BFFFF7C0FB801B642873D82868D4
:1023C0008003F7D50CE0FFF7B7FB064605E000BF3A
:1023D000FFF7B2FB801B6428F0D828688003F7D48D
:1023E00020789A4E80074FF001094FF0000839D548
:1023F000686810F00C0F07D06868C0F381000228ED
:1024000009D16868C00306D42868800714D52069FC
:10241000012808D110E02069B0B1C6F80090FFF79C
:102420008BFB074605E00AE1FFF786FBC01B02288D
:10243000C4D828688007F7D52868616920F0F800BB
:1024400040EAC10028600DE0C6F80080FFF774FB89
:10245000074604E0FFF770FBC01B022823D828685A
:102460008007F7D4207800072CD57948A169D9B125
:10247000C0F80090FFF760FB074604E0FFF75CFB45
:10248000C01B02280FD8686A8007F7D571484FF43F
:10249000FA510068B0FBF1F0009000BF0098411EB7
:1024A0000091FAD20EE080E0C0F80080FFF744FB14
:1024B000074604E0FFF740FBC01B022875D8686A96
:1024C0008007F7D42078400760D5E8690027C0006E
:1024D00008D4E86940F08050E861E869012700F01D
:1024E000805000905C480168C90513D40168834698
:1024F00041F480710160FFF71FFB824606E000BFD8
:10250000FFF71AFBA0EB0A0064284ED8DBF80000A6
:10251000C005F5D5E06801280AD008B1052813D018
:10252000286A20F001002862286A20F0040002E0F6
:10253000286A40F001002862E06841F2883B98B1C7
:10254000FFF7FAFA82460BE0286A40F0040028629E
:10255000EEE700BFFFF7F0FAA0EB0A0159455AD8A1
:10256000286A8007F6D50CE0FFF7E6FA824605E018
:10257000FFF7E2FAA0EB0A0159454CD8286A800718
:10258000F6D41FB1E86920F08050E861E06988B3B3
:102590006968C1F38101022944D00228C6F860802D
:1025A00004D0FFF7C9FA044638E034E0FFF7C4FA74
:1025B000074604E0FFF7C0FAC01B02282BD82868A2
:1025C0008001F7D4206AB0F5803F05D16868A16822
:1025D00020F4003008436860D4E9080108436968C2
:1025E00021F4741108436860C6F86090FFF7A4FAFC
:1025F000044606E025E000BFFFF79EFA001B022814
:1026000009D828688001F7D51BE000BFFFF794FACE
:10261000001B022802D90320BDE8F88F286880013A
:10262000F4D40EE00128F7D06868226A00F4803103
:10263000914204D1616A00F47010884201D00120F7
:10264000EAE70020E8E700000010024000004242F4
:1026500080044242100000200070004070B5040069
:1026600009D0606A002540B125616561A56294F8D2
:10267000510040B10CE0012070BD6068B0F5827F70
:10268000F4D0E561F2E784F85050204600F040F8BD
:10269000022084F851002068016821F040010160A7
:1026A000A088218900F4827001F404410843A189C3
:1026B00001F400610843217C01F002010843217DFF
:1026C00001F001010843218B01F400710843217FCF
:1026D00001F03801084394F8201001F0800108430C
:1026E000218D01F40051084321680860A06904218C
:1026F00001EA1040216848602068C16921F4006146
:10270000C1616565012084F85100002070BD0000A2
:1027100030B585B0002400940194029403940068BD
:102720001449884223D11448816941F48051816160
:10273000816901F480510491816941F00401816152
:1027400080690E4D00F004000490A020009002204B
:1027500001900320039069462846FFF7E7F84020E0
:10276000CDE90004694628460294FFF7DFF805B07A
:1027700030BD000000300140001002400008014060
:102780002DE9FF4F81B01D46934604464FF00109E5
:102790000E9EFFF7D1F9074694F8510061680128B1
:1027A00006D0B1F5827F3CD1A168C9BB042838D1DD
:1027B0000298002871D0BBF1000FFBD0002DF9D09A
:1027C00094F8500001282CD04FF0010A84F850A052
:1027D00094F85100042802D0052084F851004FF0ED
:1027E0000008C4F85480C4F838B0E587A58702997A
:1027F0002163E586A586C4F84080C4F8448020683B
:102800000168490603D4016841F040010160E068B5
:10281000B0F5006F606808D0F0B3012D49D081E0B9
:10282000FFE7022005B0BDE8F08F08B1012D39D1D6
:10283000206B21680088C860206B801C2063E08EBC
:10284000401EE0862EE02068816889070FD5E18E62
:1028500069B1B9F1010F0AD1216B0988C160206B00
:10286000801C2063E08E401EE0864FF00009206847
:102870008168C9070CD0E18F51B1C068A16B088095
:10288000A06B801CA063E08F401EE0874FF0010921
:10289000FFF752F9C01B01E00BE067E0B04201D343
:1028A000701C50D1E08E0028CDD1E08F0028CAD115
:1028B0003EE0206B216800780873206B401C206389
:1028C000E08E401EE0862DE02068816889070FD5E4
:1028D000E18E69B1B9F1010F0AD1216B0978017359
:1028E000206B401C2063E08E401EE0864FF0000904
:1028F00020688168C9070CD0E18F51B1C068A16B15
:102900000870A06B401CA063E08F401EE0874FF072
:102910000109FFF711F9C01BB04202D3701C01D0AE
:1029200011E086B1E08E0028CED1E08F0028CBD117
:102930003A463146204602F0A9FA50B1202060659F
:1029400084F8508012E084F851A084F8508003206D
:1029500068E7A06818B92068C1688068009084F8AA
:1029600051A084F85080606D0028F1D0012059E713
:1029700010B5401EB0F1807F01D3012010BD4FF093
:10298000E02460610F21601703F08AF90020A06144
:1029900007202061002010BD7047704770B590F887
:1029A0003C20012A2CD0012480F83C40022280F8EF
:1029B0003D2003685A689D6822F070060A68324319
:1029C0005A60104B02689A420ED00F4B9A420BD0BD
:1029D000B2F1804F08D00D4B9A4205D00C4B9A4271
:1029E00002D00C4B9A4204D1496825F08003194368
:1029F000916080F83D40002180F83C10084670BD91
:102A0000022070BD002C0140003401400004004051
:102A100000080040000C004010B5040003D094F8FA
:102A20003D0010B107E0012010BD002084F83C00FB
:102A3000204600F01FF8022084F83D00211D206888
:102A400002F042FD012084F8460084F83E0084F83C
:102A50003F0084F8400084F8410084F8420084F884
:102A6000430084F8440084F8450084F83D000020C9
:102A700010BD000008B5114A01681148914208D103
:102A8000816941F400618161806900F40060009017
:102A900008BD0C4A9142FBD1C16941F00401C161FA
:102AA000C069002200F00400009011461E20FFF7CC
:102AB00037FBBDE808401E20FFF724BB002C014077
:102AC000001002400008004090F83D10012901D09C
:102AD00001207047022180F83D100168CA6842F069
:102AE0000102CA6000680E4988420ED00D49884232
:102AF0000BD0B0F1804F08D00B49884205D00B496C
:102B0000884202D00A49884204D1816801F0070155
:102B1000062903D0016841F00101016000207047DF
:102B2000002C014000340140000400400008004037
:102B3000000C004070B5044690F83C0000250128C8
:102B400017D0012684F83C60022084F83D002068FC
:102B5000826822F0770222F47F428260086850285F
:102B600038D00DDC20284FD005DC90B3102811D1CF
:102B70004AE0022070BD302846D040280AD13BE010
:102B800060282FD070280DD0B0F5805F03D0B0F54D
:102B9000005F12D0012584F83D60002084F83C00DD
:102BA000284670BDCB68D1E90121206802F0DAFC2B
:102BB0002068816841F0770109E0CB68D1E9012103
:102BC000206802F0CFFC2068816841F48041816078
:102BD000E1E719E0CA684968206802F0D5FC502195
:102BE000206806E0CA684968206802F0DEFC6021BF
:102BF000206802F0C1FCCEE7CA684968206802F08C
:102C0000C3FC40212068F4E7226801461046F0E743
:102C100070472DE9F04104460068C66805694FF029
:102C20000007A90713D5B10711D5F91E01610120CD
:102C30002077206880698007204602D0FFF7E8FFF0
:102C400004E000F07EF8204600F07CF82777680763
:102C500016D5700714D521686FF0040008610220B2
:102C600020772068806910F4407F204602D0FFF76B
:102C7000CFFF04E000F065F8204600F063F8277706
:102C8000280715D5300713D521686FF008000861B3
:102C9000042020772068C0698007204602D0FFF713
:102CA000B7FF04E000F04DF8204600F04BF827771E
:102CB000E80616D5F00614D521686FF010000861FB
:102CC000082020772068C06910F4407F204602D099
:102CD000FFF79EFF04E000F034F8204600F032F8E1
:102CE0002777E80708D0F00706D021686FF00100C9
:102CF0000861204600F028F8280608D5300606D5D9
:102D000021686FF0800008612046FFF745FE6806E5
:102D100008D5700606D521686FF04000086120468E
:102D200000F02AF8A8060AD5B00608D521686FF089
:102D3000200008612046BDE8F041FFF72EBEBDE847
:102D4000F08170477047000010B50068074988425D
:102D50000BD1C1130648FEF7E5FE00B1012005497D
:102D60000871BDE8104004F0ABBB10BD0008004086
:102D700000080140940000207047704770B5044679
:102D800020680C3050E8001F21F4907140E80012D8
:102D9000002AF5D12068143050E8001F21F001010D
:102DA00040E80012002AF5D1206B012809D12068E3
:102DB0000C3050E8001F21F0100140E80012002AFA
:102DC000F5D1206840694FF00005400615D5206810
:102DD000143050E8001F21F0400140E80012002AA2
:102DE000F5D1E06B48B14563E06BFEF731FB20B1F4
:102DF000E06BFEF7E9FB202806D0E585202084F86B
:102E000042002563002070BD10206064032070BD67
:102E100008B500680B49884213D102F021F802F08E
:102E20002FF80948FFF7AAFF0748006801684068C3
:102E3000009005494022BDE808408839024800F06A
:102E40000BBA08BD0044004094020020F8B50168A8
:102E500004460868CA684B6910F00F0F4FF0000570
:102E600059D003F0010602F49077374365D0C107CB
:102E700005D0D10503D5616C41F0010161644107C2
:102E800005D5D90703D0616C41F002016164810767
:102E900005D5D90703D0616C41F0040161640107D5
:102EA00007D502F02001314303D0616C41F00801E5
:102EB0006164616C00293AD0800604D5900602D581
:102EC000204602F08CFC20684069616CC0F38010E1
:102ED000090700D460B3204602F04CFC206840692A
:102EE000400621D52068143050E8001F21F0400131
:102EF00040E80012002AF5D1E06BA8B16D494163AA
:102F0000E06BFEF7C9FA002811D0E06B416B01B00D
:102F1000BDE8F040084783060FD593060DD520463F
:102F2000BDE8F84002F05BBC2046FFF771FFF8BD3A
:102F30002046FFF76DFF6564F8BD266B2023012E48
:102F40007CD1C6067AD5D60678D508684868009040
:102F500048694FF00206400640D5E16B08684068BA
:102F60000004000CE8D0A28D8242E5D9E085886992
:102F700020282DD020680C3050E8001F21F48071EB
:102F800040E80012002AF5D12068143050E8001FF4
:102F900021F0010140E80012002AF5D12068143028
:102FA00050E8001F21F0400140E80012002AF5D14E
:102FB00084F84230256320680C3050E8001F21F06F
:102FC000100140E80012002AF5D1E06BFEF740FA4C
:102FD0006663A08DE18D401A81B22AE0A08DE18D5B
:102FE000401A81B2E08D0028A6D00029A4D0226822
:102FF0000C3252E8000F20F4907042E80007002FD6
:10300000F5D12068143050E8002F22F0010240E88A
:103010000027002FF5D184F84230256320680C305A
:1030200050E8002F22F0100240E80023002BF5D1D9
:1030300066632046FFF7A1FEF8BDFFE705062BD526
:10304000150629D594F841002128F5D1A068B0F5DE
:10305000805F01D12069B0B1206A411C21622168E2
:1030600000784860E08C401E0004000CE084E3D14E
:103070002068C16821F08001C1602068C16841F00A
:103080004001C160D8E7206A0088C0F308004860AA
:10309000206A801C2062E5E74006CDD55006CBD5DE
:1030A000CA68204622F04002CA6084F8413000F02D
:1030B0006FF9C1E72B56000870B5040004D094F8EE
:1030C0004100002510B106E0012070BD84F8405099
:1030D000204600F023F8242084F841002068C168CD
:1030E00021F40051C160204602F0DAFB206801693A
:1030F00021F4904101612068416921F02A01416178
:103100002068C16841F40051C1606564202084F8E2
:10311000410084F842006563002070BDF0B585B0C1
:10312000002400940194029403940646424D0368DF
:10313000424902200322AB4222D18B6943F48043EF
:103140008B618B6903F4804304938B6943F0040320
:103150008B6189693A4D01F0040104910102CDE9C6
:103160000010039269462846FEF7E0FB2815CDE9DA
:103170000004694628460294FEF7D8FB05B0F0BD6E
:10318000304DAB42FAD1CB6943F40033CB61CB690C
:1031900003F4003304938B6943F020038B61896946
:1031A000294D01F0200104912021CDE90010039266
:1031B00069462846FEF7BAFB4020CDE9000469467F
:1031C00028460294FEF7B2FB2048416841F0E061D6
:1031D00041F0080141601F4D1D488027C5E90004EA
:1031E000C5E902472C616C61AC612846EC61FEF7D1
:1031F00015FB08B1FEF72AF9F5636E62154D144808
:103200004435143001C5102091C5124845F81049C5
:1032100044306C61AC61EC61FEF700FB08B1FEF775
:1032200015F9B5630022114626206E62FEF778FF7D
:103230002620FEF767FFA1E700380140001002409A
:10324000000801400044004000140140000001401B
:103250006C000240DC02002090F84230202B01D0AC
:103260000220704721B11AB10023036302F074BB3E
:1032700001207047704770472DE9F843044690F8E5
:103280004100984616460D46202802D00220BDE88F
:10329000F88385B17EB100206064212084F841006C
:1032A000FEF74AFCA6848146E684A0682027B0F594
:1032B000805F02D003E00120E9E7206910B12E46CB
:1032C00000250EE000260CE08021204602F08CFB59
:1032D000A8B9C6B116F8010B21684860E08C401E01
:1032E000E084E08C4B464FF00002CDF800800028CF
:1032F000EAD14FF04001204602F076FB40B184F85D
:1033000041700320C3E735F8020BC0F30800E3E780
:1033100084F841700020BAE770B5044690F8410087
:10332000202801D0022070BD49B342B32162A2849B
:10333000E28400206064212384F84130A56B114BA6
:10334000AB62A56B104BEB62A56B104B2B63A36BB1
:103350005863256813462A1DA06BFEF79DFA216865
:103360006FF0400008602068143050E8001F41F002
:10337000800140E80012002AF5D1002070BD012034
:1033800070BD0000295700086B5700083B56000825
:1033900038B500680E49884218D10E4C2068016883
:1033A000C9434906FBD401F05BFD01F069FD2068CB
:1033B0000168406807490090402288390548FFF7B6
:1033C0004BFF2068C16841F01001C16038BD0000AA
:1033D00000440040940200207047FEE70148FEF7D9
:1033E000B3BB0000D00000200148FEF70FBC000076
:1033F000D000002038B5406A002190F83D202B4BCA
:1034000046F2A8141B68B3FBF4F3C3EBC30303EB4E
:10341000830300933BB15B1E009303681B689B050D
:1034200005D5009BF6E7036C43F020030364436B70
:1034300003B19962836B03B1996203681C6824F439
:1034400080641C604185436B03B15963836B03B196
:10345000596303681C6824F001041C6090F83D4027
:103460002023602C0BD0282434EA02020FD080F8ED
:103470003D3080F83E1000BFFEF7E0FC38BD80F81C
:103480003D3080F83E100164FEF75CFB38BD0268F9
:10349000136843F0010313600268136843F4806308
:1034A0001360016380F83D40E6E700001000002053
:1034B00000684169C943090601D4002101617047D0
:1034C00070B5044690F83D0094F83E10102901D0E4
:1034D000402906D1222804D121680A6822F400621A
:1034E0000A60282131EA00024FF000054FF0200663
:1034F00026D021684968090505D4602803D084F8DE
:103500003D6084F83E50256320684168090537D541
:10351000416821F400614160606B90F821203C49D2
:10352000012A11D04163606BFDF7B6FF38B3206804
:10353000016821F00101016084F83D60606B1CE0CE
:10354000256384F83D10DFE7A06B4163A06BFDF7B6
:10355000A3FFA0B120684169C943490605D40069A9
:10356000616A0870606A401C60622068016821F02E
:103570000101016084F83D60A06B416B884710E059
:1035800094F83D10602910D04169C943490605D41B
:103590000069616A0870606A401C60622046FEF73C
:1035A0004DFC206CC1071CD115E084F83D602564FA
:1035B0004169C943490605D40069616A0870606AB7
:1035C000401C60622068016821F001010160204612
:1035D000FEF7B8FAE5E7810703D4410701D40007F5
:1035E00004D52068416821F4E061416094F83D0011
:1035F000216C49070BD5282809D10648E0622563CC
:1036000084F83D6084F83E502046FEF7DDFC70BD36
:10361000F53300080000FFFF10B5C26A438D016852
:10362000042B06D0438D032B08D0438D022B1DD0D5
:1036300012E04A6822F480624A600CE04B6823F48E
:1036400080634B60042A06D0022A04D001680A680D
:1036500022F480620A6001680969426A1170416A55
:10366000491C4162418D491E418510BD012A34D05B
:10367000102A32D0042A34D0022A32D00B6843F404
:1036800000730B6001680969436A1970416A491C3B
:103690004162438D5B1E438503681B690B70416A61
:1036A000491C4162418D491E418501684B6823F4E4
:1036B00040734B60202180F83D1090F83E3000218F
:1036C000402B80F83E1010D0082A02D0202A00D0CB
:1036D00012210163FEF779FC10BD0B6823F48063AF
:1036E000CFE70B6843F48063CBE70163FEF76FFC21
:1036F00010BD000038B590F83D10222910D1C36AE2
:10370000418D03290DD901680969426A1170416A26
:10371000491C4162418D491E4185418D032906D0D6
:1037200038BDC26A022A02D0012906D029B1006838
:10373000416821F48061416038BD2A4A46F2A814EC
:1037400000211268B2FBF4F202EB820200920268DE
:103750002024009D6D1E009526D01568AD05F8D477
:10376000156825F4806515600268556825F4E065E4
:10377000556002681269456A2A70426A521C4262A8
:10378000428D521E428580F83D4090F83E2080F8E0
:103790003E10402A21D0082B02D0202B00D012212D
:1037A0000163FEF712FC38BD036C43F02003036491
:1037B000536823F4E063536002681269436A1A7025
:1037C000426A521C4262428D521E428580F83D4040
:1037D00080F83E10FEF732FB38BD0163FEF7F7FBC1
:1037E00038BD00001000002010B5C26A90F83D10EE
:1037F00021290BD1418D51B1416A026809781161CB
:10380000416A491C4162418D491E418510BD2023FA
:103810000021082A13D0202A11D012F5803F0ED0A3
:103820000268546824F4E06454601122026380F852
:103830003E1080F83D3000BFFEF7C8FB10BD0268A7
:10384000546824F4E06454600268146844F400741A
:103850001460016380F83D3090F83E2080F83E10FF
:10386000402AE9D1FEF7B4FB10BD000010B590F876
:103870003D1090F83E30C26A048DB4B1212903D0C6
:10388000402B11D122290FD1418DE1B390F83E1088
:10389000402942D0416A026809781161416A491C95
:1038A0004162418D491E418510BD2129E8D1202367
:1038B0000021082A13D0202A11D012F5803F0ED003
:1038C0000268546824F4E06454601122026380F8B2
:1038D0003E1080F83D3000BFFEF778FB10BD026857
:1038E000546824F4E06454600268146844F400747A
:1038F0001460016380F83D3090F83E2080F83E105F
:10390000402AE9D100E002E0FEF762FB10BD00684A
:10391000416821F48061416010BDBDE8104000F0B5
:10392000F3B8000078B590F83E50C26A046B90F886
:103930003D6000230168222E73D1066D0EB9402D23
:103940006FD0056D1DB90569B5F5404F1BD0458D8C
:1039500095B3468D484D012E20D0448D022C4DD07C
:103960000C6844F480640C6001684C68240579D5C7
:10397000AA4273D0012A71D0082A6FD0102A6DD0C4
:10398000202A6BD06EE04A698A6900920A6842F484
:1039900080720A60016D491C016578BDAA4214D18C
:1039A0000A6822F480620A6001684A68120504D538
:1039B0000A6822F4806217E0FFE74A698A69009288
:1039C0000A6842F400720A6050E0082A10D0202AE7
:1039D0000ED0122C0AD0042A03D0022A01D0102AB9
:1039E000E6D10A6842F480620A603BE0012ADFD037
:1039F0000A6822F480620A600168DEE7042A11D0B6
:103A0000022A0FD0102A0DD00C6844F400640C6018
:103A100001684C698C6900940C6824F480640C6023
:103A200008E025E00C6844F480640C6001684C698F
:103A30008969009101684C68240517D5AA4207D00E
:103A4000012A05D0082A03D0102A01D0202A0DD13E
:103A50004A6842F480524A6008E0FFE74A6842F44C
:103A600080524A6001684A6989690091036578BD9E
:103A700048698869009078BD0000FFFF90F83E100B
:103A8000402910D00169B1F5804F19D0016DA9B35B
:103A9000016D012910D1416C5FF0F10201F4407118
:103AA00042EAD11106E0016D0029416C05D0C9B28E
:103AB00041F0010100680161704701F0FE01F9E782
:103AC00090F83D102129416C09D0C9B241F00101A3
:103AD00002681161416B29B1896A49B902E001F0BC
:103AE000FE01F5E7816B0029E6D0896A0029E3D061
:103AF0000068416841F4006141607047FFE7416C34
:103B0000F02201F44071CBE710B590F83D10026D42
:103B10004AB1026D012A14D0026D022A16D0BDE806
:103B20001040FFF7C5BCC16C0129816C02D0C1F304
:103B3000072108E00268C9B21161016D891C0165A5
:103B400010BD816CC9B20268116123E022291CD02A
:103B5000428D0AB1212920D0428D002AF0D121299D
:103B6000EED101684A6822F4E0624A6001680A689E
:103B700042F400720A6000210163202280F83D2097
:103B800080F83E10FEF724FA10BD01680A6842F47E
:103B900080720A60016D491CD1E7416A02680978A8
:103BA0001161416A491C4162418D491E418510BD28
:103BB00038B50C4690F83D20002128259543026831
:103BC0000B4605D051699169009180F83C3038BDB1
:103BD000556825F480655560E243540700D50121FE
:103BE000120601D5828900E0028B80F83C3092B247
:103BF000FDF7A9FF38BD00002DE9F04190F83D30F8
:103C00000446C26A002120261E4F00686FF48065BA
:103C1000082A01D0202A01D1282B04D0212B17D02B
:103C20004561BDE8F081E762426822F4E0624260EB
:103C3000206845612068026822F480620260216386
:103C400084F83D6084F83E102046FEF7BDF9E8E7B1
:103C5000E7622122226384F83D6084F83E104168C7
:103C600021F4E0614160206845612068016821F429
:103C7000806101602046FFF71BFC2046FEF7E9F952
:103C8000CFE700000000FFFFF8B590F83D60044664
:103C90000068416821F4E0614160206800254169C5
:103CA0000091016841F0010101602068016821F480
:103CB0008061016020684168090520D5474F222EA8
:103CC00048D02A2E46D0616B096849686185618DAC
:103CD00019B1216C41F004012164416821F40061B3
:103CE0004160606BFDF772FC012808D0606B476390
:103CF000606BFDF7D1FB10B1606B416B8847608D45
:103D000008B320684169C943490708D40069616A5A
:103D10000870606A401C6062608D401E608520688B
:103D20004169C943490608D40069616A0870606A3C
:103D3000401C6062608D401E6085608D18B1206CF3
:103D400040F004002064206C00B32046BDE8F84039
:103D5000FFF7B6BBA16B096849686185618D19B130
:103D6000216C41F004012164416821F4006141604B
:103D7000A06BFDF72BFC0128C1D0A06B4763A06BA3
:103D8000FDF78AFB0028BAD0A06BB6E72A2E06D131
:103D90002563282084F83D002046FEF759F994F861
:103DA0003D10202028290DD0216B222901D0222E60
:103DB00007D1256384F83D0084F83E502046FEF785
:103DC00047F9F8BD0649E162256384F83D0084F8AF
:103DD0003E502046FEF7F8F8F8BD0000F533000825
:103DE0000000FFFFF0B4DDE90565049F01650021D7
:103DF0004FEA010400EBC10C491CCCF82440052912
:103E0000F8DB46610462C0E90127C0E90353047787
:103E10000121C46440F8541BF0BC01F0EDBB00006C
:103E2000F0B59BB00E4604464FF0FF373D46582292
:103E300020496846FCF7B0F9206A88BB16A801F053
:103E4000DBFB16A8616801F0CFFB06B96E4604F1F2
:103E50005400318BA16101F0BAFB3246A1682069A0
:103E600000F0E8F9011E21DD16AA204604F060FDED
:103E700005001BD116AA0221204604F0B0FF02283B
:103E80000DD1FF208DF8600000208DF8640018A986
:103E900019A8E368626900F033F8012801D03D46B3
:103EA00004E09DF860500DB9012020621BB0284647
:103EB000F0BD0000CC9300082DE9FC4107461546F3
:103EC0000E4600246846009304F026FB60F30704C6
:103ED000C4F3C00030702009387001A9009800F0C8
:103EE000DBF80099019A014400910A44511A022911
:103EF00004DB684604F016FB28800120BDE8FC8145
:103F00002DE9FC41074600240E46254668460092EE
:103F100004F002FB0146204661F307000009022875
:103F200018D101A9009800F0B7F800990546084497
:103F3000019900900144081A02280BDB684604F03E
:103F4000EBFA60F30704E0093870684604F0E4FA1D
:103F5000307001252846BDE8FC812DE9FC5F8046D4
:103F6000DDE90EA00024CDE90004994617460E466F
:103F70002546DDF834B0684604F0CEFA60F3070455
:103F8000200903282CD1C4F3C00188F80010C4F321
:103F90004100306004F00100387001A9009800F081
:103FA0007BF8009905460844019900904418224680
:103FB00069460C9804F0BFFA90B10098201A0FD40B
:103FC0003068002804DD684604F0ACFAA9F8000067
:103FD0000098211ACAF8001000990125CBF80010AA
:103FE0002846BDE8FC9F2DE9FC4781460A9800243D
:103FF00000909A46164688462546684604F08CFA94
:104000000146204661F307000009092826D101A9CD
:10401000009800F041F80099054608440199009085
:104020004718381A022819DB684604F07BFAA9F809
:10403000000034600EE03168414502DD4FF0FF358D
:104040000CE0684604F068FA31688B00491C316066
:104050004AF803000098B842EDD301252846BDE890
:10406000FC87F8B5012500240E4607460C60641C49
:10407000042C0FDC01216846B84701280AD19DF8BD
:104080000000316800F07F0202FB0511ED01316094
:104090000006ECD42046F8BD024A10600248FFF743
:1040A000E0BF000078000020B566000810B50346A8
:1040B0000020CA1701EB526424F07F02891ACAB2A9
:1040C000E111002902DD00BF42F080021A5400F124
:1040D0000100EEDC10BD70B504680E4624B1204628
:1040E000FCF77EF8054601E0D0E901543046FCF7C4
:1040F00077F8854205D12A4631462046FCF78EF8EE
:1041000008B1002070BD012070BD0000401C802857
:1041100001DA401C7047B0F5804F01DA801C70470F
:104120000349884201DAC01C7047001D7047000037
:10413000FFFF1F002DE9F04305464FF0FF37006AEF
:1041400089B014463E464FF00009884670B307A870
:1041500001F052FA07A8696801F046FA20780128B0
:1041600001D0022803D1284603F054F8A080D4E9F6
:104170000201CDE90501CDE90289CDF81090A188B1
:104180006078CDE9000123780022A968286900F051
:104190001BF9011E25DD07AA284604F0C9FB06000D
:1041A0001FD12078012802D0022808D019E007AAE0
:1041B0000421284604F013FE042807D010E007AAC3
:1041C0000721284604F00BFE072809D1E868009073
:1041D00001AA02A903A86B69FFF76EFE012800D0AF
:1041E0003E4609B03046BDE8F083F8B50024069E8F
:1041F00005460090042901DAA01EF8BD62F30714F9
:1042000063F3C304062A24F0060000D1801CC1B267
:10421000684605F05EF802210098FFF747FF009915
:10422000084400903146684605F059F80098401B54
:10423000F8BD00002DE9F843074600908846144673
:104240000025104600F082F88146FFF75FFF4045E9
:1042500002DDA81EBDE8F8832E46314666F307014D
:104260006846103105F035F849460098FFF71EFF03
:10427000009908440090207A04281DD02FA1684698
:1042800005F013F80321684605F023F8A07E66F3D5
:10429000070560F34105E07E08B145F004056807B5
:1042A00007D594F83D0060F3C40594F83C0060F332
:1042B0004515206C40B905E022A1684604F0F5FFE1
:1042C0000421E0E7A06C08B145F08005E06C08B976
:1042D000606D08B145F040052946684604F0F9FFD5
:1042E000218B684604F0FBFF04F10C0168460EC9FF
:1042F00005F004F8E07E68B12434684694E80E00C6
:10430000243C04F0FBFF3034684694E80E00303C57
:1043100004F0F4FF280605D504F1400168460EC9F3
:1043200004F0ECFF680605D54C34684694E80E00AE
:1043300004F0E4FF0098C01B8CE700004D51497366
:10434000647000004D5154540000000070B50446E4
:10435000007A0025032802D0042802D002E00C25B0
:1043600000E00A2504F10C0007C800F0EBF9054451
:10437000E07EAD1C78B1243494E80700243C00F0C2
:10438000E1F93034064694E80700303C00F0DAF9F1
:10439000304405442D1D206C08B9A16C29B1D4E925
:1043A000111200F0CFF90544AD1CE06C08B9616D45
:1043B00029B1D4E9141200F0C5F90544AD1C284612
:1043C00070BD0C2200F0AFB82DE9FC5F1C46129EB8
:1043D000CDE90060DDF838B09046DDF830A0DDE9C9
:1043E0000F23894607465946204600F030F8054617
:1043F000FFF78CFE484503DD6FF00100BDE8FC9F30
:10440000302168F3C30164F342016AF3000101A89B
:1044100004F05FFF29460198FFF748FE0199084420
:104420000190DDE90F23594601A804F067FF002C35
:1044300003DD01A80D9904F052FF3246119901984D
:10444000FBF7AAFE019830440190C01BD6E770B577
:104450000E46114604461A463046049D00F072F995
:104460002844801C002C00DD801C70BD2DE9FF4F0E
:1044700083B0064610A8894690E880090024924639
:10448000254641463846009600F036F80190FFF781
:104490003DFE484503DDA01E07B0BDE8F08F64F384
:1044A000070480346AF3C30424F00600801CC1B200
:1044B000684604F00EFFDDE90001FFF7F7FD009903
:1044C000084400906846069904F009FF0FE000BF19
:1044D00005EB450108EB810090E80E00684604F00A
:1044E0000DFF1BF80510684604F0F3FE6D1CBD427D
:1044F000EEDB0098801BCFE72DE9F04102250F4647
:10450000064600240AE000BF04EB440007EB8000ED
:1045100007C800F017F90544641CED1CB442F3DB36
:104520002846BDE8F08138B50023044600900229F2
:1045300001DA981E38BD194663F3070162F30711CB
:10454000684604F0C6FE00210098FFF7AFFD009911
:1045500008440090001B38BD2DE9F0438DB04FF0AA
:10456000000806910446CDF81C80CDF820808DF817
:104570002C204FF0FF37006A99460E463D4620B387
:1045800009A801F039F809A8616801F02DF8204662
:1045900002F040FE83B20BAA06A901208DE80700B5
:1045A0000022A1682069FFF761FF011E0DDD09AA45
:1045B000204604F0BDF9050007D109AA09212046CB
:1045C00004F00DFC092804D03D460DB02846BDE896
:1045D000F083CDE90278E1686069CDE9000102ABC2
:1045E00003AA012104A8FFF7FEFC012802D1029DC5
:1045F000802DEAD05FF0000004EBC001496A19B1D8
:10460000401C0528F8DBE0E704EBC0000025C0E90A
:104610000969DAE77CB506460D460024684600F0D5
:10462000EBFF2946684600F0DFFF6946304602F09E
:10463000A3FB401C00D1441E20467CBD2DE9FF4158
:10464000284E07460D46306A002849D002F0E6F8A9
:10465000040045D03846FCF727F902460B4622A154
:10466000204602F069F80DB1012200E000221FA1EE
:10467000204602F049F80DB11CA200E01DA21FA1C6
:10468000204602F073F8FDF757FAFCF70DF90246E1
:104690000B461CA1204602F04FF8124900234FF4AC
:1046A00000725C31204602F0B7F9B0B100208DF8FD
:1046B00000008DF801000B485C300290FBF790FD84
:1046C00003906A4612A10748FFF734FD010004D0A9
:1046D000306A10B111A001F0BFFA204602F0C2F812
:1046E000BDE8FF8184130020636F3200616C657246
:1046F000740000006E6F726D616C00007374617401
:104700007573000074696D657374616D70000000ED
:104710006465766963652F64617461005B4552521C
:104720004F525D204D515454207075626C6973680E
:10473000206661696C65642C2072633D25640D0AF6
:104740000000000010B510B1FBF74AFD0146084615
:1047500010BD00000D4808B5416941F001014161FB
:104760004069002200F00100009011461020FDF782
:10477000D7FC1020FDF7C6FC002211461120FDF7E2
:10478000CFFCBDE808401120FDF7BCBC0010024082
:10479000F0B585B000242748009401940294039456
:1047A000816941F010018161816901F0100104917A
:1047B000816941F004018161816901F00401049182
:1047C000816941F020018161816901F0200104913A
:1047D000816941F0080181618069174F00F008008C
:1047E0000490012208213846FDF7A1F9BE150022E8
:1047F00031463846FDF79BF908200125CDE9000533
:104800000220CDE9024069463846FDF78FF80320C3
:10481000CDE90240CDE9006569463846FDF786F8E6
:10482000E8038DE8310069463846FDF77FF805B0AA
:10483000F0BD000000100240000801400D4810B516
:104840000B4901600C49416000214FF480428160B6
:10485000C0E9031241618161C1610162FDF7F0FAB3
:10486000002803D0BDE81040FCF7F0BD10BD0000EB
:1048700000540040D0000020A0860100104810B570
:104880000E4901604FF48271416000218160C16076
:104890004FF400720161C0E905121022C0E907213E
:1048A000416281620A21C162FDF7D8FE002803D06F
:1048B000BDE81040FCF7CABD10BD0000003001404B
:1048C0002401002010B586B00024174800940194FC
:1048D0000294039404941349059401604721C0E9AC
:1048E00001144FF6FF71C0E9031444618461FEF7BF
:1048F00093F808B1FCF7AAFD4FF480500090694688
:104900000948FEF717F908B1FCF7A0FD049404A9C3
:1049100005480594FEF742F8002801D0FCF796FD03
:1049200006B010BD002C01407C01002010B586B0FF
:1049300000241748009401940294039404941349AA
:10494000059401604721C0E9011440F2E731C0E954
:1049500003148461FEF760F808B1FCF777FD4FF4AB
:104960008050009069460A48FEF7E4F808B1FCF769
:104970006DFD049404A906480594FEF70FF800287D
:1049800001D0FCF763FD06B010BD00000008004038
:10499000C40100200C4810B50A4901604FF4E13110
:1049A0004160002181600C22C160C0E90412816174
:1049B000C161FEF781FB002803D0BDE81040FCF781
:1049C00045BD10BD003801404C02002010B5134C0D
:1049D00011480C2120604FF4E13060600020A0609D
:1049E000E060C4E90401A061E0612046FEF764FBD9
:1049F00008B1FCF72BFD21686FF0100008602068FB
:104A0000C16841F01001C16004494022BDE8104076
:104A100088390248FEF720BC004400409402002080
:104A2000FEE700002DE9F0410D460446052919D3A3
:104A30002078012816D1601930F8026CA81E81B2C6
:104A40002046FCF757FC86420CD160781B4E0328A9
:104A50000AD0052806D1082D04D12079FF282BD0B3
:104A600000203070BDE8F081A078411DA942F9D145
:104A7000134D042809D00228F4D1B4F8030040BA39
:104A80002881FDF759F8B060ECE734F8030F61882E
:104A900040BA4CBAFBF7F2FE0A4F3946FBF7F2FD7B
:104AA00028602046FBF7EAFE3946FBF7EBFD68601D
:104AB000FDF742F87060D5E70120D2E7B000002092
:104AC000E015002000002041FEE7000001600349DE
:104AD0004160034981600349C16070473B8D000814
:104AE0009D8D0008358D00082DE9F04701F00FFF7E
:104AF000050032D0804601F0E6FE30B100212846A4
:104B000001F0D8FE5FEA00082DD032A001F0A4F831
:104B10000027DFF8D890DFF8D8A03C46404659F887
:104B2000241001F0CDFE06003AD001F0D5FE78B396
:104B3000F068022815D0002601272EA1404601F07A
:104B4000BFFE80B1D0E906211046FBF7BAFE84B162
:104B5000012C16D0022C23D11BE027A001F07CF8F9
:104B600004E00126E8E7284601F07CFE0020BDE8CD
:104B7000F08720B98AF800603046FCF715FC012464
:104B8000CCE701280CD130468AF80160FCF7F4FB31
:104B900006E0022804D130468AF80360FCF71CFCCA
:104BA000641C042CBADB13A1404601F089FE04000A
:104BB0000AD001F098FE38B1D4E90601FBF781FE76
:104BC000014613A001F048F8284601F04BFEF8B268
:104BD000CDE700004A534F4E205061727365205359
:104BE000554343455353210D0A000000680000203F
:104BF00090000020696400004A534F4E20506172BB
:104C00007365206661696C6564210D0A000000000F
:104C10004D6573736167652049443A2025640D0A28
:104C200000000000704700002DE9FF4116460D46C8
:104C3000074601F0F3FD040002D035B1012205E082
:104C40001BA001F009F8BDE8FF810022394601F000
:104C50005BFD3046FBF728FE02460B4619A12046B5
:104C600001F06AFD00234FF400721749204601F05D
:104C7000D3FEC0B1002514488DF800500290FBF718
:104C8000AFFA039010488DF801506A460FA15C38C6
:104C9000FFF750FA010002D00FA000F0DDFF204620
:104CA00001F0E0FDCFE716A000F0D6FFF7E7000027
:104CB000437265617465206661696C6564200D0AE4
:104CC0000000000069640000E0130020646576695C
:104CD00063652F64617461005B4552524F525D20E1
:104CE0004D515454207075626C6973682066616917
:104CF0006C65642C2072633D25640D0A0000000081
:104D00004A534F4E20737472696E672063726561F7
:104D10007465206661696C65640D0A0070B5224D8A
:104D200086B0286A00283CD005A904A800F0E0FA63
:104D300001F074FD040034D00498FBF7E1FD024655
:104D40000B461AA1204601F0F7FC0598FBF7D8FDA9
:104D500002460B4617A1204601F0EEFC00234FF45B
:104D6000007205F15C01204601F056FEB0B100264C
:104D700005F15C008DF800600290FBF731FA0390BA
:104D80008DF801606A460DA12846FFF7D3F90100AE
:104D900004D0286A10B10CA000F05EFF204601F09C
:104DA00061FD06B070BD00008413002074656D7055
:104DB0000000000068756D69000000006465766998
:104DC00063652F64617461005B4552524F525D20F0
:104DD0004D515454207075626C6973682066616926
:104DE0006C65642C2072633D25640D0A0000000090
:104DF00070B514460D46060016D0FCF79DFE72B63F
:104E00000B4B0ECB86E80E000A4A5168926862B6D8
:104E10004FF0FF3315B149B1411A296014B102B105
:104E2000831A2360012070BD002070BD1946F4E78D
:104E3000E0150020B00000200848417800290CD17E
:104E4000817829B1002181700121022000F0B2B9DE
:104E50000121817002210020F8E77047B000002096
:104E600000224FF480710148FCF761BE0008014048
:104E7000012211020148FCF75ABE0000000801405F
:104E80000149002048707047B0000020F8B5154671
:104E90000E460B46009204460122022100F010F853
:104EA00040B93346002280212046009500F008F8E2
:104EB000002804D0606D40F0200060650320F8BD3C
:104EC0002DE9F8431E46914688460446089DFCF7A6
:104ED00033FE401B351AFCF72FFE074625480068B5
:104EE000C0F3CB30684338E0701C37D0FCF724FEA9
:104EF000C01BA84203D215B1009860B32CE0206813
:104F0000416821F0E00141606068B0F5827F0BD11B
:104F1000A068B0F5004F02D0B0F5806F04D12068D2
:104F2000016821F040010160A06AB0F5005F09D17D
:104F30002068016821F4005101602068016841F493
:104F400000510160012084F85100002084F85000D5
:104F50000320BDE8F8830025401E0090206881688A
:104F600038EA010004D000214945BDD10020F0E716
:104F70000121F9E7100000207047000070B588B0EB
:104F800001F04CFC06007DD0444D287808B1012288
:104F900000E0002242A1304601F0B6FB687808B17B
:104FA000012200E0002240A1304601F0ADFBE8788C
:104FB00008B1012200E000223CA1304601F0A4FB30
:104FC0000024059406A905A8069400F091F9059817
:104FD000FBF796FC02460B4636A1304601F0ACFBCF
:104FE0000698FBF78DFC02460B4634A1304601F0D3
:104FF000A3FB00F04FF9FBF757FC02460B4631A12B
:10500000304601F099FBA87808B1012200E00022A7
:105010002DA1304601F078FBFCF78EFDFBF744FC38
:1050200002460B462BA1304601F086FB2CA22FA195
:10503000304601F09BFB00222F4B30A1304601F09F
:105040007BFB00234FF400722E49304601F0E4FC54
:105050002C4D5C3DD8B18DF804402A488DF80540B0
:105060000390FBF7BDF8049001AA27A12846FFF79B
:1050700061F8010004D0286A10B126A000F0ECFD10
:10508000304600E001E001F0EDFB08B070BD286A99
:105090000028F5D029A000F0DFFDF1E79000002006
:1050A0006C616D700000000066756E007370726157
:1050B0007900000074656D700000000068756D690E
:1050C00000000000636F3200636F325F616C6172D9
:1050D0006D00000074696D657374616D700000008F
:1050E00053544D33325F573535303000646576693F
:1050F00063655F69640000000000F03F76657273CD
:10510000696F6E00E01300206465766963652F6443
:10511000617461005B4552524F525D204D515454B1
:10512000207075626C697368206661696C65642CB7
:105130002072633D25640D0A000000005B45525259
:105140004F525D2053656E645F416C6C5F446576C1
:105150006963655F5374617475733A204A534F4EA7
:1051600020737472696E67206372656174696F6E13
:10517000206661696C65640D0A0000000A460146FC
:1051800001A0FFF751BD00006C616D7000000000D0
:105190000A46014601A0FFF747BD000066756E0094
:1051A0000A46014601A0FFF73FBD0000737072611F
:1051B0007900000070B5174D6A780AB1002070BD03
:1051C000144C01260C34032226706270020AA2706D
:1051D000E070080A2071617106212046FCF78AF808
:1051E000A071000AE0710C48FDF7C8FDFFF740FE12
:1051F000082221460848FEF78FF838B1FFF730FE45
:10520000402206490448FEF727F8D7E76E700120D0
:1052100070BD0000B0000020940200200C020020AD
:1052200070B5194D6A780AB1002070BD164C012680
:105230000C340522267062700A0AA270E17000B177
:10524000FF202071002060710F4806210C30FCF710
:1052500051F8A071000AE0710C48FDF78FFDFFF7CF
:1052600007FE094908220C310848FEF755F838B105
:10527000FFF7F6FD402206490448FDF7EDFFD3E7AE
:105280006E70012070BD0000B0000020940200206C
:105290000C0200201FB54FF0FF3403AA002168461E
:1052A0000394FFF7A5FD50B10398411C07D041F2CC
:1052B0008831884203D2BDF80800002811D10B487C
:1052C00041680129418805D0B1F5C87F06D801227F
:1052D000426008E0B1F5966F05D344600A39418019
:1052E00088B204B010BD0A31F9E700009C0000202C
:1052F0007FB50C4605001CD0002C1AD04FF0FF30B3
:1053000000900022694601A8FFF772FD90B1009855
:10531000411C0FD041F2883188420BD2019810F025
:10532000FF4F07D0029911F0FF4F03D02860029879
:1053300020607FBD2146284601F066FE0028F8D196
:1053400001A000F089FC7FBD6765742074656D70F5
:105350002068756D69207375636573730D0A0000AD
:105360002DE9F041FCF7E8FB174D04462869201AA7
:10537000C82802D3FFF760FD2C61A8684FF47A7744
:10538000201AB84212D3FFF785FF0646B84201D96A
:10539000012100E00021FFF751F93046FBF75AFFE9
:1053A0000AA000F059FCFFF7B9FCAC60E868201ACD
:1053B000B0F5FA6F05D313A000F04EFCFFF7DEFD49
:1053C000EC60BDE8F08100009C0000205B53656E3E
:1053D000736F725D20506572696F646963616C6C94
:1053E00079207075626C697368696E672074656D89
:1053F000702F68756D69202620434F322E2E2E0D9A
:105400000A0000005B53656E736F725D2050657219
:10541000696F646963616C6C79207075626C697323
:1054200068696E6720616C6C207374617475732E8B
:105430002E2E0D0A0000000001B582B04FF0FF30A3
:105440000090012301AA02A90248FDF799F99DF8ED
:1054500004000EBD24010020FCF7FCBD30B58FB068
:1054600028216846FAF7B1FE14210AA8FAF7ADFE22
:1054700001210804CDE900100024029402250491C2
:10548000CDE907504FF4E01009906846FCF756FF4D
:1054900008B172B6FEE70F20CDE90A054FF480602F
:1054A000CDE90C4002210AA80E94FCF76BFE0028FF
:1054B00001D072B6FEE70FB030BD70470148FDF76E
:1054C000A8BB0000C4010020F0B50268204C214DAB
:1054D000214E224F224B4FF0804CA04209D09842DF
:1054E00007D0604505D0A84203D0B04201D0B842F1
:1054F00004D122F0700E4A6842EA0E02A04209D09E
:10550000984207D0604505D0A84203D0B04201D0F0
:10551000B84203D122F44075CA682A434D6922F08B
:1055200080022A4302608A68C2620A688262A042DC
:1055300001D0984201D109690163012141610169EA
:10554000C90703D0016921F001010161F0BD00002C
:10555000002C01400004004000080040000C004006
:105560000034014010B5846842EA032224F47F44E9
:105570000A432243826010BD826822F070020A430F
:1055800042F007018160704710B5036A046A24F095
:1055900001040462846924F0F00444EA021423F054
:1055A0000A020A438461026210BD10B5036A046AEC
:1055B00024F010040462846923F0A00324F47044EE
:1055C00044EA023243EA01118261016210BD70B502
:1055D0000C460546FCF7B0FA04EB4401C1EBC411DC
:1055E00000EBC100686070BD70B50C460546FCF765
:1055F000A3FA2044686070BD00214160704710B577
:105600000446FCF799FA6168814201D8012010BD77
:10561000002010BD10B50446FCF78EFA6168814287
:1056200001D8002010BD081A10BD10B5406A002135
:10563000C185C184FDF7ECFB10BD70B5446A2068DC
:10564000406994F84110C0F3C0100025212904D10D
:1056500018B1E584204600F0B4F82068406994F859
:105660004210C0F38010222904D118B1E5852046EC
:1056700000F080F8606C40F0100060642046FDF798
:10568000C7FB70BD10B50146406A096809684FF054
:10569000000289062ED4C28501680C3151E8003F12
:1056A00023F4807341E80034002CF5D101681431F3
:1056B00051E8003F23F0010341E80034002CF5D10C
:1056C0000168143151E8003F23F0400341E8003401
:1056D000002CF5D1202180F84210016B012909D15D
:1056E00001680C3151E8003F23F0100341E8003419
:1056F000002CF5D14263016B012902D0FDF7BAFD00
:1057000010BD818DFDF739FB10BD10B5406A012138
:105710004163016B012902D0FDF7ADFD10BD818D04
:105720004908FDF72AFB10BD10B50146406A09681B
:105730000968890616D40021C1840168143151E832
:10574000002F22F0800241E80023002BF5D10168F0
:105750000C3151E8002F42F0400241E80023002BB9
:10576000F5D110BDFDF714FE10BD10B5406AFDF770
:1057700033FE10BD01680C3151E8002F22F4907205
:1057800041E80023002BF5D10168143151E8002FC6
:1057900022F0010241E80023002BF5D1016B012921
:1057A00009D101680C3151E8002F22F0100241E8C4
:1057B0000023002BF5D1202180F842100021016345
:1057C000704701680C3151E8002F22F0C00241E817
:1057D0000023002BF5D1202180F84110704708B537
:1057E00090F84210222901D0022008BD82684FF4AF
:1057F00080539A4201D1016921B1816A9A421BD03A
:105800004AB10AE00268816A5268C2F308020A805B
:10581000816A891C08E0026972B10268526802F06C
:105820007F020A70816A491C8162C18D491E090488
:10583000090CC18503D01BE002685268F1E70168DA
:10584000CA6822F02002CA600168CA6822F4807225
:10585000CA6001684A6922F001024A61202180F889
:10586000421000214163026B012A03D0FDF702FDC3
:10587000002008BD016301680C3151E8002F22F0BF
:10588000100241E80023002BF5D101680A68D20616
:1058900002D50A6849680091818DFDF76EFAE7E745
:1058A00070B5044600680169E26821F44051114373
:1058B00001612169A0680843616908432168CA68D9
:1058C00041F20C639A430243CA6020684169A269AD
:1058D00021F44071114341611E492068884202D180
:1058E000FCF7F6FC01E0FCF7E3FC00EBC00101EB88
:1058F0000012606864218000B2FBF0F3B3FBF1F3A7
:105900006FF018067343B2FBF0F5B2FBF0F605EB4F
:105910008305322303EB0515B5FBF1F5B6FBF1F674
:1059200005F0F00505EB0615B2FBF0F6B2FBF0F062
:10593000B0FBF1F06FF01802504306EB800003EB70
:105940000010B0FBF1F0216800F00F0028448860DF
:1059500070BD00000038014038B581620446828580
:10596000002013466064222284F84220E56B1B4A23
:10597000AA62E56B1A4AEA62E56B1A4A2A63E26B8D
:1059800050630A462168E06B091DFBF785FF20681C
:10599000016840680090206948B120680C3050E8E8
:1059A000001F41F4807140E80012002AF5D1206800
:1059B000143050E8001F41F0010140E80012002AB5
:1059C000F5D12068143050E8001F41F0400140E854
:1059D0000012002AF5D1002038BD000085560008CD
:1059E0000B5700083B5600082DE9F8439846174628
:1059F0000D460446089E24E0701C22D0FCF79CF85B
:105A0000A0EB0800B0421AD8CEB12068C16849079F
:105A100017D5802D15D0402D13D00168C943090733
:105A20000FD401680025406800902046FFF7A2FED1
:105A30000820606484F840500120BDE8F88303200A
:105A4000FBE72068006835EA000004D00020B84277
:105A5000D2D00020F1E70120F9E7000038B5134C5F
:105A600020680168C90616D5016840680090104892
:105A700000684068C0F1400085B22046FDF77EF91D
:105A8000052D03D329460B48FEF7CCFF40220949D8
:105A90000648FDF7E1FB2068C16841F01001C160D4
:105AA000BDE838400148FDF7D1B90000940200205C
:105AB000DC0200200C020020FEE70000F8B5144CC8
:105AC0000546E068804760698047616AC5F3074022
:105AD000C5F3072699B1A26A8AB18DF800008DF846
