:020000040800F2
:1000000078380020490100088B3F0008552A000875
:10001000893F0008E11100084B4A00080000000079
:10002000000000000000000000000000BD430008C8
:100030004513000800000000E540000801470008E3
:100040006301000863010008630100086301000800
:1000500063010008630100086301000863010008F0
:1000600063010008630100086301000863010008E0
:1000700063010008630100086301000863010008D0
:1000800063010008630100086301000863010008C0
:1000900063010008630100086301000863010008B0
:1000A00063010008630100086301000863010008A0
:1000B000630100086301000865470008652A00081D
:1000C000592A000863010008630100086301000861
:1000D0006301000863010008630100086301000870
:1000E0006301000863010008630100086301000860
:1000F0006301000863010008630100086301000850
:10010000630100086301000863010008630100083F
:10011000630100086301000863010008630100082F
:10012000630100086301000863010008630100081F
:10013000DFF810D000F090FE004800471963000877
:10014000AFF3008078380020064880470648004713
:10015000FEE7FEE7FEE7FEE7FEE7FEE7FEE7FEE777
:10016000FEE7FEE76347000831010008202A04DBB0
:10017000203A21FA02F00021704721FA02F3D04020
:10018000C2F120029140084319467047A0F1410195
:10019000192900D82030704740EA01039B0703D09B
:1001A00009E008C9121F08C0042AFAD203E011F8B6
:1001B000013B00F8013B521EF9D27047D2B201E078
:1001C00000F8012B491EFBD270470022F6E710B55C
:1001D00013460A4604461946FFF7F0FF204610BDB5
:1001E00010B5044604E00B7800F8013B03B1491C4C
:1001F000521EF8D2204610BD421C10F8011B0029E7
:10020000FBD1801A704710B5002200E0521C835CBD
:100210008C5CA34201D1002BF8D1D8B2E1B2401AD4
:1002200010BD034611F8012B00F8012B002AF9D16B
:100230001846704730B505460020034600E05B1CB9
:10024000934205D2EC5CC85C201A01D1002CF6D197
:1002500030BD00000FB400B58DB010A909900B900F
:1002600000914FF0FF300A9000200C900548069056
:10027000054807906A4609A80F9900F0D7FB0DB012
:100280005DF814FB490A0008670A00082DE9FF4FD2
:10029000087883B09946FF2805D0491C2D2804D042
:1002A0000024002008E000200BE00124F9E700EB27
:1002B000800003EB4000491C0B78FF2BF7D104B101
:1002C000404200230293147819461D462D2C01D07C
:1002D0002B2C04D1521C2D2C13D000240294AA469E
:1002E0001478FF2C0FD00A25A3FB057801FB0581AC
:1002F0004FF0000C03FB0C11521CE3194AEB0101F7
:10030000EEE70124EAE7814453EA010002D019F53F
:10031000C87F06DA03980021C0E9001107B0BDE8E4
:10032000F08F0025AE4E2F46DFF8B882184600F059
:100330006EFDCDE90001B9F1000002DAC9F1000457
:1003400000E004460023A74A1AEB030B42EB045AD1
:1003500012E0E00707D02A4633463846414600F00F
:1003600075FC074688462A4633461046194600F073
:100370006DFC05460E466410002CEAD1DDE9000153
:10038000B9F1000F5A46534606DA00F0D1FC3A465E
:10039000434600F0CDFC05E000F058FC3A464346E9
:1003A00000F054FC029A0AB181F00041039AC2E9BC
:1003B0000001B3E72DE9FF4F1F468DB0D7E9014695
:1003C0004FF0FF382E2045464FF000090B90B969D9
:1003D0006D1C0E988847396A824688470028F6D1F6
:1003E000BAF1FF3F0AD024F4D064002E11DDBAF137
:1003F0002B0F08D0BAF12D0F0BD102E0404611B0FF
:100400008DE744F48064B9696D1C0E988847824674
:10041000761E6946600501D52D2000E02B208DF861
:10042000000001F1010B0DF1200809E0B9696D1C14
:100430000E98884782460F9844F40074761E056033
:10044000002E02DDBAF1300FF0D00B998A453ED173
:1004500044F0800406E00F99681CA9F1010944F4F6
:1004600000740860B9696D1C761E0E988847824634
:100470003028F0D02BE00B998A4505D1200603D413
:1004800044F08004761E18E0504604F009FD08B3DD
:100490000DF11301761E44F400748B4508D2AAF1C5
:1004A00030000BF8010B200607D5A9F1010003E08D
:1004B000200602D409F101008146A00502D50F995A
:1004C000681C0860B9696D1C0E9888478246002E2A
:1004D000D1DC53E0002E51DDBAF1650F02D0BAF144
:1004E000450F4BD1A00549D5B9696D1C24F4407462
:1004F000761E0E9888478246002E0CDD2B2804D0ED
:10050000BAF12D0F07D144F48074B9696D1C0E98AF
:1005100088478246761EE00501D52D2100E02B217B
:1005200008F8011BCDF82C8021E00DF12901761E81
:1005300044F4007488450CD2AAF1300010F0FF009A
:1005400088F8000002D10B99884509D908F1010803
:1005500006E0E00501D5244801E042F20F70814633
:10056000B9696D1C0E98884782460F980560002E69
:1005700004DD504604F094FC0028D6D1F9690E98A9
:100580008847FF208BF8000088F8000000200690C4
:1005900007904B466A4608A906A8FFF777FEA00514
:1005A00002D46FF001002AE714F0240F0AD0E0070C
:1005B00014D1DDE906123868031D3B600068C0E90C
:1005C00000120BE0DDE9060100F0A6F90146E007A4
:1005D00004D13868021D3A600068016028460EE7C1
:1005E000000014400000F03FF1D8FFFFF0B480EAB3
:1005F0000102D40F4200B2EB410F02D2024608467C
:1006000011464A0042D0C30DDDB2C1F3C752AD1A44
:10061000202D35DAC1F3160141F4000204B1524233
:10062000C5F1200602FA06F12A411044B3EBD05F6F
:1006300023D0C4B1012DA0EBC35009DCF0BC4FF0B6
:10064000004202EAC352DBB200F5000000F073BAC8
:10065000400000F1807000EBC350A0F1807040EAD0
:10066000D170490009E0490841EAC071A0EBC350CC
:1006700000F50000400800EBC350F0BC00F052BA97
:100680006142012202EB4101001BF6E7F0BC70471A
:1006900081F00041AAE780F00040A7E72DE9FE4F76
:1006A000804681EA0300C00F0C46009021F0004113
:1006B00023F00045B8EB0200A94105D2404621468F
:1006C00090461C460B46024623F00040104347D09C
:1006D000270DC7F30A00C3F30A510290401A019094
:1006E00040286BDAC3F3130040F4801B0098924655
:1006F00020B10023D2EB030A63EB0B0B01985946A0
:10070000C0F14002504600F06AF906460D465046D8
:100710005946019A00F072F910EB0800614100247B
:1007200087EA115284EAE7731A4340D0009A62B311
:10073000019A012A4FEA075215DC001B61EB020106
:100740004FF0004202EA0752CDE90042001C41F599
:10075000801132462B4600F02BFA03B0BDE8F08F33
:1007600040462146F9E7001B61EB0201001C41F500
:10077000801300185B412018A2F5001747EB030116
:1007800040EAD570B6196D4111E06D084FEA3606A2
:1007900045EAC0754FEA0752001B61EB0201001CDD
:1007A00041F5801149084FEA3000001951413246A5
:1007B0002B4603B0BDE8F04F00F0EBB900980122E2
:1007C00040000023D0EB020263EBE0730098214667
:1007D0004FEAE074B8EB000061EB0401E9E783F055
:1007E00000435BE781F0004158E770B521F000431A
:1007F00003430CD0C1F30A550024D5EB040564EB88
:100800000403D617AD1AB34102DB0020014670BDC8
:10081000201841EB025170BD0EB5C10F80EAE070A7
:100820000844CA07002140F233438DE80E000A460F
:100830000B4600F0BDF903B000BD0EB540F23341E8
:1008400002910021CDE900110A460B4600F0B0F9F3
:1008500003B000BD70B5C1F30A5201F00045002499
:10086000C1F3130140F2FF3341F480119A4201DADF
:10087000002070BD40F233439A42A2F2334203DCBF
:100880005242FFF773FC00E090402C43F1D040420D
:1008900070BD00F0004230F000400AD0C10D01F5FB
:1008A0006071C0F3160042EA0151C20840071143CB
:1008B000704700200146704730B5041E71F10004F6
:1008C00004DB4FF00044404264EB0101141E73F15D
:1008D000000405DB1C464FF00043524263EB040367
:1008E0008B4208BF824230BD30B5041E71F1000456
:1008F00004DB4FF00044404264EB0101141E73F12D
:10090000000405DB1C464FF00043524263EB040336
:10091000994208BF904230BD01F0004330B421F04D
:10092000004150EA010206D00A0DA2F56072C1F33F
:100930001301002A02DC30BC00207047440F44EA57
:10094000C104C100E01830BC00EBC25000F0EAB8AE
:1009500030B50B46014600202022012409E021FA8F
:1009600002F59D4205D303FA02F5491B04FA02F58C
:100970002844151EA2F10102F1DC30BD2DE9F05F23
:100980000546002092469B468846064681464024FE
:100990001BE02846414647462246FFF7E7FB534601
:1009A0005A46C01A914110D311461846224600F00B
:1009B00016F82D1A67EB01084F4622460120002148
:1009C00000F00DF817EB00094E41201EA4F10104C0
:1009D000DFDC484631462A464346BDE8F09F202AE0
:1009E00004DB203A00FA02F1002070479140C2F186
:1009F000200320FA03F3194390407047202A06DBB6
:100A0000CB17203A41FA02F043EAE07306E041FADC
:100A100002F3D040C2F120029140084319467047CA
:100A2000026811441378016018467047D160044988
:100A300051610449116200211161114600F024BA8C
:100A4000210A00087D0E0008426842B1016811F8D1
:100A5000013B23B1521EC0E9001218467047012124
:100A6000C160881E704742685AB1C368016843B9C3
:100A700083688B4205D0491E521CC0E90012002039
:100A800070474FF0FF3070470FB4002300B589B0B6
:100A90000CA900910B996FF00042CB601E4B06939E
:100AA0001E4B07930423CDE901321D4A08920246EA
:100AB0006B460020FFF77EFC09B05DF814FB70B5B3
:100AC00086B006464FF0FF300091CDE901010020CD
:100AD00015460C4604903246694604A8FFF7D4FF39
:100AE00002460498211825B108B1084600E02046C6
:100AF0002860049800280DD0002A02DD0098884262
:100B000008D0081B0094CDE901043246694604A8C8
:100B1000FFF7BAFF06B070BD490A0008670A00086F
:100B20007D0E00080029A8BF7047401C490008BF7F
:100B300020F00100704710B4B0FA80FC00FA0CF00D
:100B400050EA010404BF10BC704749B1CCF1200445
:100B500021FA04F411FA0CF118BF012121430843D2
:100B6000A3EB0C01CB1D4FEA00614FEA102042BFFE
:100B7000002010BC704700EBC35010440029A4BFF4
:100B800010BC7047401C490008BF20F0010010BC99
:100B9000704710B5141E73F1000408DA401C41F1CF
:100BA000000192185B411A4301D120F0010010BDF1
:100BB0002DE9F04D92469B4611B1B1FA81F202E067
:100BC000B0FA80F220329046FFF709FF04460F4644
:100BD00040EA0A0041EA0B0153465A46084313D043
:100BE000114653EA010019D0C8F140025046FFF700
:100BF000BDFA05460E46504659464246FFF7EFFEFF
:100C0000084305D0012004E020463946BDE8F08DB8
:100C10000020054346EAE0762C4337430A986305F3
:100C2000E40AA0EB08000022FD0A44EA47540A3017
:100C300002D500200146E9E7010510196941DDE907
:100C4000084500196941BDE8F04DA2E72DE9FE4FC6
:100C500081EA030404F0004421F0004100944FF0C5
:100C6000000B23F0004350EA01045ED052EA030473
:100C70005BD0C3F30A54C1F30A552C44A4F2F334F5
:100C80000194A0FB0254C1F3130141F48011C3F39A
:100C9000130343F4801301FB024400FB034E840A58
:100CA000970A44EA815447EA8357A4FB07680295F0
:100CB0008D0A05FB07854FEA932C04FB0C5427058E
:100CC000029D4FEA065847EA1637B5EB08056EEB6A
:100CD000070C870E920E47EA811742EA8312A7FBA0
:100CE0000201B6EB0B0164EB00042B0D43EA0C335D
:100CF0005E1844EB1C50DA465146E7FB0201C5F38F
:100D000013044FEA0B3343EA14534FEA0432019CB5
:100D100043EA0603A4F10C040294009CCDE900B45C
:100D2000FFF746FF03B0BDE8F08F00200146F9E76A
:100D30002DE9F04D81EA030404F0004B21F0004559
:100D400014464FF0000A23F0004150EA050220D07B
:100D500054EA01021DD0C5F30A570246C5F3130336
:100D6000C1F31300C1F30A5640F4801543F4801315
:100D7000A7EB0608101BD64608F2FD3873EB0500FA
:100D800002D308F1010801E092185B41B8F1000FAD
:100D900003DA00200146BDE8F08D00204FF48011F9
:100DA000064684460EE0171B73EB050705D3121B9E
:100DB00063EB050306434CEA010C49084FEA300097
:100DC00092185B4150EA0107EDD152EA030012D0BC
:100DD00082EA040083EA0501084305D0101BAB41F9
:100DE00006D20122002306E000224FF0004302E079
:100DF0006FF0010253101AEB06004CEB085110EB98
:100E00000A0041EB0B01BDE8F04DFFF7C2BE0EB585
:100E100040F2334202920022CDE900221346FFF74E
:100E2000C7FE03B000BDC1F30A52C1F3130140F283
:100E3000FF3341F480119A4202DA002001467047E4
:100E400040F233439A42A2F2334202DC5242FFF7AD
:100E50008DB9FFF7C4BD0000064C074D06E0E06801
:100E600040F0010394E8070098471034AC42F6D3F1
:100E7000FFF762F95083000870830008C0B24FF496
:100E8000F05100F099B900002DE9F34F8BB04FF00D
:100E9000000801F10C000C464FF0010B46460DF125
:100EA000080A01906269012101989047051E2DD022
:100EB000252D2CD0216A8847C0B162690121019893
:100EC0009047216A88470028F7D1411E626901983E
:100ED000904700E0761CA1690B988847216A8847F3
:100EE0000028F7D1E1690B988847DBE7A1690B98E7
:100EF00088470746A84201D1761CD3E7E1690B98E1
:100F000088477F1C02D1B8F1000F6FD047E100275E
:100F100062693D463946019890472A2804D16269A2
:100F20000121019890470125DFF88892626901212B
:100F300001989047A0F130010A290AD24F45E5DC1B
:100F400007EB870100EB4107303FDFD445F0100588
:100F5000ECE7E90601D46FF000476C280AD04C2872
:100F600014D0682815D06A280DD074281CD07A288F
:100F70001AD01DE062690121019890476C2802D0C7
:100F800045F0040514E045F002050DE045F02005AC
:100F90000AE06269012101989047682802D045F073
:100FA000080505E045F40065626901210198904754
:100FB000C4E9015765283DD019DC58287AD00CDCEB
:100FC000452837D004DC252826D0412831D131E00E
:100FD00046282FD047282CD12CE05B2877D06128D9
:100FE00028D063287CD0642823D15AE0D1E06F2830
:100FF00048D008DC66281DD067281BD0692821D07E
:101000006E2816D127E0702845D0732868D075283F
:1010100047D078280DD14DE0A1690B988847054647
:1010200025283FF469AFE1690B9888476D1C3FF4B0
:101030006AAFB4E023466A466FF001000B99FFF7F0
:10104000B9F99FE045F040006060A80723464FF0E3
:10105000000236D43EE0E8077FF447AF2068011D68
:1010600021600068290501D506701BE7290701D515
:10107000068017E7A90703D5F117C0E9006111E75A
:1010800006600FE745F040006060A80723464FF078
:10109000080216D41EE040F60E0125EA0100606049
:1010A00016E045F040006060A80723464FF00A02B2
:1010B00007D40FE045F040006060A80708D523463C
:1010C00010226FF001000B99AFF300805AE007E0A7
:1010D000234610226FF001000B99AFF3008051E01E
:1010E0004FF000094F464B46632802D05B2807D0DB
:1010F00041E02079C00601D40120A06001273AE038
:1011000062690121019890475E2805D14FF00109DD
:101110006269494601989047216939B900210A4618
:10112000534643F82120491C0829FADBB0B3216952
:1011300069B9C11700EBD16253110AEB830122F0A8
:101140001F02821A01200B68904003430B60626902
:101150000121019890475D28E8D1B9F1000F09D02D
:101160000020514651F82020D24341F82020401C55
:101170000828F7DB02AB224600976FF001000B99BD
:10118000AFF3008000280CDA401C08D1BBF1000F3F
:1011900005D04FF0FF300DB0BDE8F08FFFE74046BF
:1011A000F9E7E90701D108F1010806444FF0000B07
:1011B00078E60000CCCCCC0C7F2801D9002208E0D6
:1011C000064A02EB5002C007127800D1120902F061
:1011D0000F02012090400840704700006082000824
:1011E000FEE700002DE9F0414FF47A720646904286
:1011F00001D9012400E000240D4F3878844214D036
:101200000C4D2100AC7009D031460BA003F0ECFC72
:10121000A978304602F050FDA87803E0304602F08D
:101220004BFD002000F046F83C70BDE8F081000066
:10123000980000208C000020434F3220414C455242
:1012400054212056616C75653A2025642070706DBC
:1012500020285468726573686F6C643A202564298D
:101260000A00000001220821014800F01EBA000017
:101270000008014000220821014800F016BA0000D1
:101280000008014070B515460E460446002200785D
:101290001346012106F094FA01462068814206D1E6
:1012A000C0B22A46314604F095FC012800D0002047
:1012B00070BD000008B103A100E003A103A003F08A
:1012C00093BC00004F4E00004F464600616C6172B7
:1012D0006D3A25730D0A000008B103A100E003A1D7
:1012E00003A003F081BC00004F4E00004F464600B3
:1012F00066756E3A25730D0A0000000008B103A15F
:1013000000E003A103A003F06FBC00004F4E0000FB
:101310004F4646006C616D703A25730D0A0000005F
:1013200008B103A100E003A103A003F05DBC00002D
:101330004F4E00004F46460053505241593A2573D4
:101340000D0A0000704772B6FEE700002DE9F05F5D
:1013500090F821100024022903D004218163012484
:1013600085E001680A6822F00E020A6001680A68D6
:1013700022F001020A603F4E3E4FB215DFF8F4C082
:10138000DFF8F090DFF8ECA0DFF8E8B0DFF8E4E099
:101390000168783F13011502ACF1640CA9F1500902
:1013A000AAF13C0AABF1280BAEF1140E4FF48018F1
:1013B000B14227D9B9420ED0614512D049451DD05E
:1013C000514518D0594518D0714501D1424615E014
:1013D000294EB14201D1012210E0274E1436B1420C
:1013E00001D110220AE0244E2836B14206D0224A0A
:1013F0003C32914201D11A4600E02A461E49091F9B
:101400000A602BE0B94213D0614517D0494522D07C
:1014100051451DD059451DD0714501D142461AE0B4
:10142000B14202D14FF0807215E0134EB14201D1AA
:10143000012210E0104E1436B14201D110220AE010
:101440000D4E2836B14206D00B4A3C32914201D1B2
:101450001A4600E02A46074980394A60012180F88F
:101460002110002180F82010416B01B188472046EF
:10147000BDE8F09F800002400804024090F821007F
:101480007047000070B5044600F014F90546601C72
:1014900002D004480078044400F00CF9401BA0423C
:1014A000FAD370BD000000202DE9F84FDFF8C89195
:1014B0000024A9F1040B23460F2709F1040AABF11C
:1014C000040ED1E00125A54006EA0502AA4276D124
:1014D000DFF8A8C14E68A6EB0C0866452BD00DDCE2
:1014E000032E34D005DC36B3012E19D0022E2FD1B5
:1014F0001BE0112E16D0122E2AD119E0B8F5881F44
:1015000019D006DCB8F5803F15D0B8F5801F1FD183
:1015100011E0B8F5001F0ED0B8F5041F18D10AE08D
:10152000CB6815E0CB681B1D12E0CB6808330FE0D9
:10153000CB680C330CE08B682BB1012B4FF0080308
:1015400003D0456104E0042302E0056100E00023CC
:10155000FF2A01D8064601E000F104064FEA84059F
:1015600001D9A5F12005D6F8008007FA05FC28EA84
:101570000C0803FA05F548EA0508C6F800804D682E
:10158000ED0070D53E4DAE6946F00106AE61AD6925
:1015900024F0030605F0010500953A4D06EB050C15
:1015A000DCF80850A607360F07FA06F825EA080502
:1015B000DFF8D480404503D14FF0000825E052E029
:1015C000DFF8C880404502D14FF001081DE0DFF888
:1015D000C080404502D14FF0020816E0DFF8B48029
:1015E000404502D14FF003080FE0DFF8AC804045E2
:1015F00002D14FF0040808E0DFF8A080404502D196
:101600004FF0050801E04FF0060808FA06F848EA2E
:101610000508CCF808804D68D9F80060ED024D4609
:1016200001D5164300E096432E604D68DAF800605D
:10163000AD02554601D5164300E096432E604D6835
:10164000DBF80060AD035D4601D5164300E096432C
:101650002E604D68DEF80060ED03754601D5164337
:1016600000E096432E60641C0A681646E2407FF450
:1016700029AFBDE8F88F00000804014000001110F8
:10168000001002400000014000080140000C014031
:10169000001001400014014000180140001C0140EE
:1016A0008068084000D0012070470AB1016170478E
:1016B0000904FBE701488068704700000000002033
:1016C000704770472DE9F041016804464A694E6849
:1016D00090F83E000025D743FA050BD4F243D2051B
:1016E00008D46FF4807201254A6121680A6842F4C7
:1016F00000420A60B90508D4F143C90505D422683F
:101700006FF4007145F002055161790525D4F1436C
:10171000C90522D4638D94F83D10226B202808D18E
:101720003BB9212910D029290ED0282901D1212AFD
:101730000AD022686FF48061516145F004051028D9
:1017400006D0402804D008E0204601F093FD04E0D4
:101750002068016841F400710160380508D4F04345
:10176000C00505D421686FF4006045F008054861A4
:10177000002D07D0206C284320642046BDE8F041AE
:1017800001F0DCB9BDE8F0812DE9F04702680021E5
:101790005368C66A90F83E4090F83D50102C12D025
:1017A000402C10D0046C002C7DD05469E443A60773
:1017B0007AD4DE43B60577D4036C03B19169BDE8F2
:1017C000F04701F033BD976951694FF42A0CC943C2
:1017D0005FEAC1784FF02A4904D066452AD04E45C9
:1017E00028D010E0DE43B6050DD4C16A614501D1B1
:1017F000012103E0C16A494501D10821C162BDE868
:10180000F04701F079BC0E0716D4DE43B60513D4B9
:10181000416CC9B21161416B09B1896A29B9816B07
:10182000002907D0896A002904D00068416841F482
:1018300000614160BDE8F0878E0706D4DE43B6053F
:1018400003D4BDE8F04701F0ABBBFE435268760716
:101850004FEA02521DD4002AECDB0A0608D4DA4310
:10186000520505D4490705D5BDE8F04701F03CBB5A
:101870004907DFD4D9438905DCD4212D05D0402C7C
:10188000D8D1BDE8F04701F07DBCBDE8F04701F0DC
:10189000E9BA002ACEDB4A060BD4DA43520508D453
:1018A000490708D501E00DE00EE0BDE8F04701F082
:1018B0005FBA4907BED4D9438905BBD4BDE8F04718
:1018C00001F0E8B9916970E7E10606D4D9438905CA
:1018D00003D4BDE8F04701F015BD2821212D27D004
:1018E000292D25D0650655D4DD436D0552D46407F6
:1018F00052D590F83D30448D002C9BD01269446A3B
:101900002270426A521C4262428D521E4285428DB2
:10191000002A8FD12A2B8DD10268536823F480636B
:1019200053602222026380F83D1000F04FF981E7F6
:10193000250623D4DD436D0520D4640720D590F817
:101940003D30448D002CF2D0446A24781461426A00
:10195000521C4262428D521E4285428D002AE6D1BF
:10196000292BE4D10268536823F480635360212259
:10197000026380F83D1000F02AF95BE76107D6D4D6
:10198000D9438905D3D4418D0029D0D0416A097843
:1019900011610AE06107CAD4D9438905C7D4418DD2
:1019A0000029C4D01169426A1170416A491C416220
:1019B000418D491E41853DE77047000070B5040028
:1019C00025D094F83D00002520B984F83C502046ED
:1019D00000F0BEF8242084F83D002068016821F062
:1019E000010101602068016841F400410160206844
:1019F000016821F40041016000F018FA4D4A616865
:101A0000914201D84C4900E04C49884201D2012062
:101A100070BD4B492368B0FBF1F15E6826F03F06CC
:101A20000E435E606368934206D94FF49673594340
:101A30004FF47A73B1FBF3F12368491C1E6A26F058
:101A40003F06314319626168914210D84900401E37
:101A5000B0FBF1F2521CC2F30B02042A01D20420A3
:101A600022E0B0FBF1F0401CC0F30B001CE0A268C8
:101A7000F2B301EBC10303EB0116431EB3FBF6F314
:101A80005B1C43F480431B0549D092B301EBC102B8
:101A900002EB0111401EB0FBF1F0401CC0F30B0043
:101AA00040F4804040F400402168CA694CF6FF735E
:101AB0009A431043C861D4E90710014320680268C3
:101AC00022F0C00211430160D4E903010143206800
:101AD000826848F2FF339A4311438160D4E90501DB
:101AE00008432168CA6822F0FF021043C86001E081
:101AF0000EE016E02068016841F0010101602564F4
:101B0000202084F83D00256384F83E50002070BDFD
:101B100001EB4106431EB3FBF6F35B1CB3E7012068
:101B2000C2E701EB4101401EB0FBF1F0401CC0F3E5
:101B30000B00B7E7A086010080841E0000093D006D
:101B400040420F0070477047704770477047000071
:101B500010B586B0002100910191029103910068B7
:101B6000174988422AD1174CA06940F00800A061AB
:101B7000A069694600F008000490C020009012207F
:101B80000190032003901048FFF78EFCE06940F4B9
:101B90000010E061E069002200F40010049011469A
:101BA0001F2000F07BF81F2000F06AF80022114689
:101BB000202000F073F8202000F062F806B010BD7D
:101BC0000054004000100240000C01407047704774
:101BD000024881680278114481607047000000204B
:101BE000074810B5016841F010010160032000F0C2
:101BF00075F80F2000F006F800F024F8002010BD62
:101C00000020024070B50D4D04464FF47A712878DB
:101C1000B1FBF0F00A490968B1FBF0F000F066FC96
:101C200048B9102C07D200222146501E00F036F889
:101C300000206C6070BD012070BD0000000000201D
:101C40000C0000200C4808B5816941F00101816158
:101C5000816901F001010091C16941F08051C161C8
:101C6000C06900F0805000900448416821F0E061B4
:101C700041F00071416008BD0010024000000140C9
:101C8000002809DB00F01F0201219140400980007B
:101C900000F1E020C0F8001170470000F0B40E4BD6
:101CA0001B680C46C3F30223C3F10705042D00D9BA
:101CB0000425191D072901D2002300E0DB1E01269F
:101CC00006FA05F1491E214099409E40761E1640B5
:101CD0003143F0BC02F0ACBF0CED00E0064900F06F
:101CE000070208684FF6FF03184040EA0220034A43
:101CF00010430860704700000CED00E00000FA059A
:101D00002DE9F0470F46050061D0434E306800F0E2
:101D10000700B84209D2306820F00700384330602D
:101D2000306800F00700B84251D128683B4C810769
:101D300012D5400703D5606840F4E0606060287801
:101D4000000703D5606840F4605060606068A9686F
:101D500020F0F000084360602878C00728D0686849
:101D6000012810D02168022810D0890700292EDA16
:101D7000616821F0030101436160FFF79BFC80462D
:101D800041F288390DE021688903EFE78901EDE729
:101D9000FFF790FCA0EB0801494502D90320BDE8FC
:101DA000F0876068696800F00C00B0EB810FEFD13C
:101DB000306800F00700B8420BD9306820F0070007
:101DC00038433060306800F00700B84201D001208D
:101DD000E5E72878400705D56068E96820F4E06009
:101DE000084360602878000706D56068296920F4F8
:101DF000605040EAC100606000F038F86168084A4D
:101E0000C1F30311515CC8400649086006480068E8
:101E1000FFF7F8FE0020C2E7002002400010024059
:101E2000808100080C0000200400002004480549BF
:101E300000684968044AC1F30221515CC8407047F8
:101E40000C00002000100240908100080448054961
:101E500000684968044AC1F3C221515CC840704718
:101E60000C00002000100240908100080E4A5168CA
:101E70000E4801F00C03042B11D0082B0FD10C4895
:101E8000C1F38343C903C05C0AD55168084AC1F352
:101E90004041921E515C054A5043B0FBF1F070473F
:101EA00004494843704700000010024000127A00C5
:101EB0007081000800093D002DE9F84F040070D042
:101EC0002078C04DC00749D06868C0F38100012860
:101ED00007D06868C0F38100022809D16868C00390
:101EE00006D52868800339D560680028E7D035E03A
:101EF0006068B0F5803F0BD010B1B0F5A02F11D0C5
:101F0000286820F480302860286820F4802002E0CF
:101F1000286840F480302860606890B1FFF7CAFB01
:101F200006460AE0286840F480202860F0E700BFF9
:101F3000FFF7C0FB801B642873D828688003F7D59F
:101F40000CE0FFF7B7FB064605E000BFFFF7B2FB6A
:101F5000801B6428F0D828688003F7D420789A4E34
:101F600080074FF001094FF0000839D5686810F07C
:101F70000C0F07D06868C0F38100022809D1686897
:101F8000C00306D42868800714D52069012808D129
:101F900010E02069B0B1C6F80090FFF78BFB074650
:101FA00005E00AE1FFF786FBC01B0228C4D82868B9
:101FB0008007F7D52868616920F0F80040EAC10081
:101FC00028600DE0C6F80080FFF774FB074604E0C8
:101FD000FFF770FBC01B022823D828688007F7D4BE
:101FE000207800072CD57948A169D9B1C0F80090B4
:101FF000FFF760FB074604E0FFF75CFBC01B02280D
:102000000FD8686A8007F7D571484FF4FA51006815
:10201000B0FBF1F0009000BF0098411E0091FAD291
:102020000EE080E0C0F80080FFF744FB074604E0C4
:10203000FFF740FBC01B022875D8686A8007F7D4F9
:102040002078400760D5E8690027C00008D4E86917
:1020500040F08050E861E869012700F0805000906E
:102060005C480168C90513D40168834641F4807156
:102070000160FFF71FFB824606E000BFFFF71AFB77
:10208000A0EB0A0064284ED8DBF80000C005F5D5A7
:10209000E06801280AD008B1052813D0286A20F08A
:1020A00001002862286A20F0040002E0286A40F05B
:1020B00001002862E06841F2883B98B1FFF7FAFA24
:1020C00082460BE0286A40F004002862EEE700BF79
:1020D000FFF7F0FAA0EB0A0159455AD8286A8007A1
:1020E000F6D50CE0FFF7E6FA824605E0FFF7E2FAE4
:1020F000A0EB0A0159454CD8286A8007F6D41FB1D5
:10210000E86920F08050E861E06988B36968C1F34C
:102110008101022944D00228C6F8608004D0FFF76C
:10212000C9FA044638E034E0FFF7C4FA074604E091
:10213000FFF7C0FAC01B02282BD828688001F7D40B
:10214000206AB0F5803F05D16868A16820F40030AE
:1021500008436860D4E908010843696821F47411F0
:1021600008436860C6F86090FFF7A4FA044606E0EA
:1021700025E000BFFFF79EFA001B022809D8286857
:102180008001F7D51BE000BFFFF794FA001B02287F
:1021900002D90320BDE8F88F28688001F4D40EE04E
:1021A0000128F7D06868226A00F48031914204D196
:1021B000616A00F47010884201D00120EAE7002033
:1021C000E8E7000000100240000042428004424262
:1021D0000C0000200070004070B5040009D0606A57
:1021E000002540B125616561A56294F8510040B1B8
:1021F0000CE0012070BD6068B0F5827FF4D0E5612D
:10220000F2E784F85050204600F040F8022084F8AD
:1022100051002068016821F040010160A0882189F7
:1022200000F4827001F404410843A18901F40061C3
:102230000843217C01F002010843217D01F00101E6
:102240000843218B01F400710843217F01F038011C
:10225000084394F8201001F080010843218D01F417
:102260000051084321680860A069042101EA104078
:10227000216848602068C16921F40061C161656519
:10228000012084F85100002070BD000030B585B0F9
:102290000024009401940294039400681449884235
:1022A00023D11448816941F480518161816901F42D
:1022B00080510491816941F00401816180690E4D72
:1022C00000F004000490A020009002200190032060
:1022D000039069462846FFF7E7F84020CDE900045F
:1022E000694628460294FFF7DFF805B030BD0000CC
:1022F0000030014000100240000801402DE9FF4F6E
:1023000081B01D46934604464FF001090E9EFFF72B
:10231000D1F9074694F851006168012806D0B1F55B
:10232000827F3CD1A168C9BB042838D1029800281B
:1023300071D0BBF1000FFBD0002DF9D094F8500004
:1023400001282CD04FF0010A84F850A094F85100D5
:10235000042802D0052084F851004FF00008C4F88A
:102360005480C4F838B0E587A58702992163E586D3
:10237000A586C4F84080C4F84480206801684906F6
:1023800003D4016841F040010160E068B0F5006FDE
:10239000606808D0F0B3012D49D081E0FFE702204A
:1023A00005B0BDE8F08F08B1012D39D1206B21684F
:1023B0000088C860206B801C2063E08E401EE08691
:1023C0002EE02068816889070FD5E18E69B1B9F1E7
:1023D000010F0AD1216B0988C160206B801C20632A
:1023E000E08E401EE0864FF0000920688168C90732
:1023F0000CD0E18F51B1C068A16B0880A06B801C2C
:10240000A063E08F401EE0874FF00109FFF752F90B
:10241000C01B01E00BE067E0B04201D3701C50D15B
:10242000E08E0028CDD1E08F0028CAD13EE0206B9D
:10243000216800780873206B401C2063E08E401EEA
:10244000E0862DE02068816889070FD5E18E69B1AB
:10245000B9F1010F0AD1216B09780173206B401C7F
:102460002063E08E401EE0864FF0000920688168FE
:10247000C9070CD0E18F51B1C068A16B0870A06B87
:10248000401CA063E08F401EE0874FF00109FFF77A
:1024900011F9C01BB04202D3701C01D011E086B10B
:1024A000E08E0028CED1E08F0028CBD13A463146CD
:1024B000204601F00DFF50B12020606584F8508067
:1024C00012E084F851A084F85080032068E7A068E7
:1024D00018B92068C1688068009084F851A084F819
:1024E0005080606D0028F1D0012059E710B5401EE2
:1024F000B0F1807F01D3012010BD4FF0E024606176
:102500000F21601702F094FB0020A06107202061DA
:10251000002010BD7047704770B590F83C20012A2C
:102520002CD0012480F83C40022280F83D20036832
:102530005A689D6822F070060A6832435A60104B50
:1025400002689A420ED00F4B9A420BD0B2F1804FE4
:1025500008D00D4B9A4205D00C4B9A4202D00C4B3E
:102560009A4204D1496825F080031943916080F8AC
:102570003D40002180F83C10084670BD022070BD2F
:10258000002C0140003401400004004000080040DD
:10259000000C004010B5040003D094F83D0010B1C9
:1025A00007E0012010BD002084F83C00204600F028
:1025B0001FF8022084F83D00211D206802F0D8F8A1
:1025C000012084F8460084F83E0084F83F0084F837
:1025D000400084F8410084F8420084F8430084F805
:1025E000440084F8450084F83D00002010BD000040
:1025F00008B500680B49884212D10B48C16941F007
:102600000401C161C069002200F00400009011467D
:102610001E20FFF743FBBDE808401E20FFF730BB3C
:1026200008BD0000000800400010024090F83D1076
:10263000012901D001207047022180F83D10016876
:10264000CA6842F00102CA6000680E4988420ED092
:102650000D4988420BD0B0F1804F08D00B49884219
:1026600005D00B49884202D00A49884204D18168CA
:1026700001F00701062903D0016841F00101016062
:1026800000207047002C014000340140000400404D
:1026900000080040000C004070B5044690F83C0073
:1026A0000025012817D0012684F83C60022084F818
:1026B0003D002068826822F0770222F47F42826027
:1026C0000868502838D00DDC20284FD005DC90B3A6
:1026D000102811D14AE0022070BD302846D0402891
:1026E0000AD13BE060282FD070280DD0B0F5805F74
:1026F00003D0B0F5005F12D0012584F83D600020C2
:1027000084F83C00284670BDCB68D1E901212068DF
:1027100002F07CF82068816841F0770109E0CB681D
:10272000D1E90121206802F071F82068816841F444
:1027300080418160E1E719E0CA684968206802F0D9
:1027400077F85021206806E0CA684968206802F0DE
:1027500080F86021206802F063F8CEE7CA68496813
:10276000206802F065F840212068F4E722680146FD
:102770001046F0E770472DE9F04104460068C6684E
:1027800005694FF00007A90713D5B10711D5F91E48
:10279000016101202077206880698007204602D0EF
:1027A000FFF7E8FF04E000F07EF8204600F07CF838
:1027B0002777680716D5700714D521686FF00400D5
:1027C0000861022020772068806910F4407F20464D
:1027D00002D0FFF7CFFF04E000F065F8204600F0DC
:1027E00063F82777280715D5300713D521686FF0D0
:1027F00008000861042020772068C069800720460F
:1028000002D0FFF7B7FF04E000F04DF8204600F0DB
:102810004BF82777E80616D5F00614D521686FF037
:1028200010000861082020772068C06910F4407FFC
:10283000204602D0FFF79EFF04E000F034F8204667
:1028400000F032F82777E80708D0F00706D02168B3
:102850006FF001000861204600F028F8280608D52E
:10286000300606D521686FF0800008612046FFF72A
:1028700051FE680608D5700606D521686FF0400045
:102880000861204600F02AF8A8060AD5B00608D547
:1028900021686FF0200008612046BDE8F041FFF795
:1028A0003ABEBDE8F08170477047000010B500687F
:1028B000074988420BD1C1130648FEF7F1FE00B16B
:1028C000012005490871BDE8104003F0D1BC10BDDE
:1028D000000800400008014090000020704770B5DB
:1028E000040004D094F84100002510B106E0012056
:1028F00070BD84F84050204600F024F8242084F86D
:1029000041002068C16821F40051C160204602F0F6
:1029100007F82068016921F490410161206841694C
:1029200021F02A0141612068C16841F40051C16071
:102930006564202084F8410084F84200656300202B
:1029400070BD000030B585B000240094019402945D
:10295000039400681449884224D11448816941F4E1
:1029600080418161816901F480410491816941F074
:102970000401816180690E4D00F0040004904FF461
:1029800000700090022001900320039069462846C1
:10299000FEF78AFD2815CDE9000469462846029411
:1029A000FEF782FD05B030BD003801400010024046
:1029B000000801402DE9F843044690F8410098468C
:1029C00016460D46202802D00220BDE8F88385B1C6
:1029D0007EB100206064212084F84100FEF76AFE89
:1029E000A6848146E684A0682027B0F5805F02D0E7
:1029F00003E00120E9E7206910B12E4600250EE032
:102A000000260CE08021204601F0E6FFA8B9C6B1FF
:102A100016F8010B21684860E08C401EE084E08CD1
:102A20004B464FF00002CDF800800028EAD14FF06D
:102A30004001204601F0D0FF40B184F841700320EE
:102A4000C3E735F8020BC0F30800E3E784F84170F0
:102A50000020BAE7FEE700000148FEF733BE0000A1
:102A6000BC0000200148FEF78FBE0000BC00002023
:102A700038B5406A002190F83D202B4B46F2A8144F
:102A80001B68B3FBF4F3C3EBC30303EB83030093B3
:102A90003BB15B1E009303681B689B0505D5009B3B
:102AA000F6E7036C43F020030364436B03B19962C0
:102AB000836B03B1996203681C6824F480641C6012
:102AC0004185436B03B15963836B03B15963036859
:102AD0001C6824F001041C6090F83D402023602C09
:102AE0000BD0282434EA02020FD080F83D3080F861
:102AF0003E1000BFFEF760FF38BD80F83D3080F823
:102B00003E100164FEF7DCFD38BD0268136843F037
:102B1000010313600268136843F480631360016368
:102B200080F83D40E6E700000C00002000684169A5
:102B3000C943090601D400210161704770B50446FC
:102B400090F83D0094F83E10102901D0402906D19C
:102B5000222804D121680A6822F400620A60282130
:102B600031EA00024FF000054FF0200626D0216820
:102B70004968090505D4602803D084F83D6084F8CD
:102B80003E50256320684168090537D5416821F426
:102B900000614160606B90F821203C49012A11D00E
:102BA0004163606BFEF7D2FB38B32068016821F007
:102BB0000101016084F83D60606B1CE0256384F8CE
:102BC0003D10DFE7A06B4163A06BFEF7BFFBA0B138
:102BD00020684169C943490605D40069616A0870E3
:102BE000606A401C60622068016821F00101016098
:102BF00084F83D60A06B416B884710E094F83D106D
:102C0000602910D04169C943490605D40069616A49
:102C10000870606A401C60622046FEF7CDFE206CA2
:102C2000C1071CD115E084F83D6025644169C943A2
:102C3000490605D40069616A0870606A401C6062D8
:102C40002068016821F0010101602046FEF738FD8F
:102C5000E5E7810703D4410701D4000704D52068C4
:102C6000416821F4E061416094F83D00216C49071E
:102C70000BD5282809D10648E062256384F83D6019
:102C800084F83E502046FEF75DFF70BD712A0008B3
:102C90000000FFFF10B5C26A438D0168042B06D007
:102CA000438D032B08D0438D022B1DD012E04A68C0
:102CB00022F480624A600CE04B6823F480634B602E
:102CC000042A06D0022A04D001680A6822F480622D
:102CD0000A6001680969426A1170416A491C4162CF
:102CE000418D491E418510BD012A34D0102A32D0B1
:102CF000042A34D0022A32D00B6843F400730B60EC
:102D000001680969436A1970416A491C4162438D2F
:102D10005B1E438503681B690B70416A491C416255
:102D2000418D491E418501684B6823F440734B6017
:102D3000202180F83D1090F83E300021402B80F893
:102D40003E1010D0082A02D0202A00D012210163A0
:102D5000FEF7F9FE10BD0B6823F48063CFE70B6824
:102D600043F48063CBE70163FEF7EFFE10BD000084
:102D700038B590F83D10222910D1C36A418D03293E
:102D80000DD901680969426A1170416A491C4162A2
:102D9000418D491E4185418D032906D038BDC26A47
:102DA000022A02D0012906D029B10068416821F425
:102DB0008061416038BD2A4A46F2A8140021126899
:102DC000B2FBF4F202EB8202009202682024009D22
:102DD0006D1E009526D01568AD05F8D4156825F44C
:102DE000806515600268556825F4E06555600268E5
:102DF0001269456A2A70426A521C4262428D521E12
:102E0000428580F83D4090F83E2080F83E10402AF0
:102E100021D0082B02D0202B00D012210163FEF715
:102E200092FE38BD036C43F020030364536823F41F
:102E3000E063536002681269436A1A70426A521C66
:102E40004262428D521E428580F83D4080F83E101D
:102E5000FEF7B2FD38BD0163FEF777FE38BD000016
:102E60000C00002010B5C26A90F83D1021290BD14A
:102E7000418D51B1416A026809781161416A491C6A
:102E80004162418D491E418510BD20230021082A41
:102E900013D0202A11D012F5803F0ED0026854685A
:102EA00024F4E06454601122026380F83E1080F83C
:102EB0003D3000BFFEF748FE10BD0268546824F4A0
:102EC000E06454600268146844F4007414600163A0
:102ED00080F83D3090F83E2080F83E10402AE9D13D
:102EE000FEF734FE10BD000010B590F83D1090F8CC
:102EF0003E30C26A048DB4B1212903D0402B11D1D8
:102F000022290FD1418DE1B390F83E10402942D0E3
:102F1000416A026809781161416A491C4162418D28
:102F2000491E418510BD2129E8D120230021082A0E
:102F300013D0202A11D012F5803F0ED002685468B9
:102F400024F4E06454601122026380F83E1080F89B
:102F50003D3000BFFEF7F8FD10BD0268546824F450
:102F6000E06454600268146844F4007414600163FF
:102F700080F83D3090F83E2080F83E10402AE9D19C
:102F800000E002E0FEF7E2FD10BD0068416821F4B8
:102F90008061416010BDBDE8104000F0F3B8000052
:102FA00078B590F83E50C26A046B90F83D600023FB
:102FB0000168222E73D1066D0EB9402D6FD0056DBC
:102FC0001DB90569B5F5404F1BD0458D95B3468DAC
:102FD000484D012E20D0448D022C4DD00C6844F475
:102FE00080640C6001684C68240579D5AA4273D0CE
:102FF000012A71D0082A6FD0102A6DD0202A6BD0F8
:103000006EE04A698A6900920A6842F480720A6036
:10301000016D491C016578BDAA4214D10A6822F4E9
:1030200080620A6001684A68120504D50A6822F4C1
:10303000806217E0FFE74A698A6900920A6842F4F1
:1030400000720A6050E0082A10D0202A0ED0122CFC
:103050000AD0042A03D0022A01D0102AE6D10A6835
:1030600042F480620A603BE0012ADFD00A6822F461
:1030700080620A600168DEE7042A11D0022A0FD0BC
:10308000102A0DD00C6844F400640C6001684C698F
:103090008C6900940C6824F480640C6008E025E0DE
:1030A0000C6844F480640C6001684C698969009183
:1030B00001684C68240517D5AA4207D0012A05D01B
:1030C000082A03D0102A01D0202A0DD14A6842F4E0
:1030D00080524A6008E0FFE74A6842F480524A6042
:1030E00001684A6989690091036578BD4869886902
:1030F000009078BD0000FFFF90F83E10402910D0EE
:103100000169B1F5804F19D0016DA9B3016D012995
:1031100010D1416C5FF0F10201F4407142EAD1112B
:1031200006E0016D0029416C05D0C9B241F00101F2
:1031300000680161704701F0FE01F9E790F83D1069
:103140002129416C09D0C9B241F001010268116125
:10315000416B29B1896A49B902E001F0FE01F5E746
:10316000816B0029E6D0896A0029E3D000684168B4
:1031700041F4006141607047FFE7416CF02201F4C7
:103180004071CBE710B590F83D10026D4AB1026D69
:10319000012A14D0026D022A16D0BDE81040FFF7B4
:1031A000C5BCC16C0129816C02D0C1F3072108E0C4
:1031B0000268C9B21161016D891C016510BD816C85
:1031C000C9B20268116123E022291CD0428D0AB1E4
:1031D000212920D0428D002AF0D12129EED1016889
:1031E0004A6822F4E0624A6001680A6842F40072A8
:1031F0000A6000210163202280F83D2080F83E1003
:10320000FEF7A4FC10BD01680A6842F480720A60EF
:10321000016D491CD1E7416A026809781161416A70
:10322000491C4162418D491E418510BD38B50C468F
:1032300090F83D2000212825954302680B4605D0D3
:1032400051699169009180F83C3038BD556825F48A
:1032500080655560E243540700D50121120601D56F
:10326000828900E0028B80F83C3092B2FEF729FAA6
:1032700038BD00002DE9F04190F83D300446C26AA7
:10328000002120261E4F00686FF48065082A01D0B7
:10329000202A01D1282B04D0212B17D04561BDE86D
:1032A000F081E762426822F4E06242602068456192
:1032B0002068026822F480620260216384F83D6025
:1032C00084F83E102046FEF73DFCE8E7E762212245
:1032D000226384F83D6084F83E10416821F4E06187
:1032E0004160206845612068016821F480610160C7
:1032F0002046FFF71BFC2046FEF769FCCFE70000E5
:103300000000FFFFF8B590F83D6004460068416892
:1033100021F4E06141602068002541690091016865
:1033200041F0010101602068016821F480610160C1
:1033300020684168090520D5474F222E48D02A2E03
:1033400046D0616B096849686185618D19B1216C4E
:1033500041F004012164416821F400614160606B27
:10336000FEF78CF8012808D0606B4763606BFDF7AF
:10337000EDFF10B1606B416B8847608D08B320682A
:103380004169C943490708D40069616A0870606AE5
:10339000401C6062608D401E608520684169C943A1
:1033A000490608D40069616A0870606A401C60625E
:1033B000608D401E6085608D18B1206C40F0040067
:1033C0002064206C00B32046BDE8F840FFF7B6BB90
:1033D000A16B096849686185618D19B1216C41F063
:1033E00004012164416821F400614160A06BFEF793
:1033F00045F80128C1D0A06B4763A06BFDF7A6FF7D
:103400000028BAD0A06BB6E72A2E06D12563282063
:1034100084F83D002046FEF7D9FB94F83D102020AB
:1034200028290DD0216B222901D0222E07D1256316
:1034300084F83D0084F83E502046FEF7C7FBF8BDF7
:103440000649E162256384F83D0084F83E50204639
:10345000FEF778FBF8BD0000712A00080000FFFFAE
:10346000F0B4DDE90565049F016500214FEA010420
:1034700000EBC10C491CCCF824400529F8DB46615F
:103480000462C0E90127C0E9035304770121C46441
:1034900040F8541BF0BC01F003BA0000F0B59BB03B
:1034A0000E4604464FF0FF373D46582220496846F5
:1034B000FCF772FE206A88BB16A801F0F1F916A885
:1034C000616801F0E5F906B96E4604F15400318BEC
:1034D000A16101F0D0F93246A168206900F0E8F955
:1034E000011E21DD16AA204604F040F905001BD17B
:1034F00016AA0221204604F090FB02280DD1FF20DD
:103500008DF8600000208DF8640018A919A8E36800
:10351000626900F033F8012801D03D4604E09DF8CF
:1035200060500DB9012020621BB02846F0BD00009C
:10353000088200082DE9FC41074615460E46002486
:103540006846009303F006FF60F30704C4F3C0006D
:1035500030702009387001A9009800F0DBF800995C
:10356000019A014400910A44511A022904DB684679
:1035700003F0F6FE28800120BDE8FC812DE9FC4126
:10358000074600240E4625466846009203F0E2FEF8
:103590000146204661F307000009022818D101A95D
:1035A000009800F0B7F8009905460844019900908A
:1035B0000144081A02280BDB684603F0CBFE60F3D7
:1035C0000704E0093870684603F0C4FE3070012536
:1035D0002846BDE8FC812DE9FC5F8046DDE90EA0B0
:1035E0000024CDE90004994617460E462546DDF82D
:1035F00034B0684603F0AEFE60F3070420090328E8
:103600002CD1C4F3C00188F80010C4F3410030602D
:1036100004F00100387001A9009800F07BF80099CF
:1036200005460844019900904418224669460C98C2
:1036300003F09FFE90B10098201A0FD43068002844
:1036400004DD684603F08CFEA9F800000098211AFA
:10365000CAF8001000990125CBF800102846BDE8F3
:10366000FC9F2DE9FC4781460A98002400909A4669
:10367000164688462546684603F06CFE01462046FD
:1036800061F307000009092826D101A9009800F07C
:1036900041F8009905460844019900904718381AE6
:1036A000022819DB684603F05BFEA9F800003460CD
:1036B0000EE03168414502DD4FF0FF350CE0684611
:1036C00003F048FE31688B00491C31604AF8030062
:1036D0000098B842EDD301252846BDE8FC87F8B52F
:1036E000012500240E4607460C60641C042C0FDCE8
:1036F00001216846B84701280AD19DF800003168C9
:1037000000F07F0202FB0511ED0131600006ECD4F0
:103710002046F8BD024A10600248FFF7E0BF0000F3
:10372000740000204556000810B503460020CA1753
:1037300001EB526424F07F02891ACAB2E111002918
:1037400002DD00BF42F080021A5400F10100EEDCFD
:1037500010BD70B504680E4624B12046FCF74CFD40
:10376000054601E0D0E901543046FCF745FD8542AD
:1037700005D12A4631462046FCF75CFD08B1002001
:1037800070BD012070BD0000401C802801DA401C83
:103790007047B0F5804F01DA801C704703498842BA
:1037A00001DAC01C7047001D70470000FFFF1F00BA
:1037B0002DE9F04305464FF0FF37006A89B0144603
:1037C0003E464FF00009884670B307A801F068F83C
:1037D00007A8696801F05CF82078012801D0022868
:1037E00003D1284602F0EEFBA080D4E90201CDE926
:1037F0000501CDE90289CDF81090A1886078CDE966
:10380000000123780022A968286900F01BF9011E35
:1038100025DD07AA284603F0A9FF06001FD120785E
:10382000012802D0022808D019E007AA042128465E
:1038300004F0F3F9042807D010E007AA072128466E
:1038400004F0EBF9072809D1E868009001AA02A961
:1038500003A86B69FFF76EFE012800D03E4609B051
:103860003046BDE8F083F8B50024069E054600907A
:10387000042901DAA01EF8BD62F3071463F3C30440
:10388000062A24F0060000D1801CC1B2684604F06C
:103890003EFC02210098FFF747FF00990844009082
:1038A0003146684604F039FC0098401BF8BD000022
:1038B0002DE9F84307460090884614460025104637
:1038C00000F082F88146FFF75FFF404502DDA81E49
:1038D000BDE8F8832E46314666F30701684610318D
:1038E00004F015FC49460098FFF71EFF00990844B4
:1038F0000090207A04281DD02FA1684604F0F3FB25
:103900000321684604F003FCA07E66F3070560F31C
:103910004105E07E08B145F00405680707D594F835
:103920003D0060F3C40594F83C0060F34515206C3D
:1039300040B905E022A1684604F0D5FB0421E0E788
:10394000A06C08B145F08005E06C08B9606D08B165
:1039500045F040052946684604F0D9FB218B6846AE
:1039600004F0DBFB04F10C0168460EC904F0E4FB33
:10397000E07E68B12434684694E80E00243C04F0EC
:10398000DBFB3034684694E80E00303C04F0D4FB96
:10399000280605D504F1400168460EC904F0CCFBA9
:1039A000680605D54C34684694E80E0004F0C4FB64
:1039B0000098C01B8CE700004D51497364700000F3
:1039C0004D5154540000000070B50446007A0025A3
:1039D000032802D0042802D002E00C2500E00A25CA
:1039E00004F10C0007C800F0F5F90544E07EAD1CB9
:1039F00078B1243494E80700243C00F0EBF930342B
:103A0000064694E80700303C00F0E4F930440544F1
:103A10002D1D206C08B9A16C29B1D4E9111200F058
:103A2000D9F90544AD1CE06C08B9616D29B1D4E940
:103A3000141200F0CFF90544AD1C284670BD0C22CD
:103A400000F0AFB82DE9FC5F1C46129ECDE9006086
:103A5000DDF838B09046DDF830A0DDE90F23894667
:103A600007465946204600F030F80546FFF78CFE21
:103A7000484503DD6FF00100BDE8FC9F302168F38D
:103A8000C30164F342016AF3000101A804F03FFBA3
:103A900029460198FFF748FE019908440190DDE9A5
:103AA0000F23594601A804F047FB002C03DD01A8B1
:103AB0000D9904F032FB324611990198FCF76CFB2A
:103AC000019830440190C01BD6E770B50E461146F0
:103AD00004461A463046049D00F07CF92844801CB8
:103AE000002C00DD801C70BD2DE9FF4F83B0064621
:103AF00010A8894690E88009002492462546414650
:103B00003846009600F036F80190FFF73DFE484534
:103B100003DDA01E07B0BDE8F08F64F30704803416
:103B20006AF3C30424F00600801CC1B2684604F0A6
:103B3000EEFADDE90001FFF7F7FD00990844009077
:103B40006846069904F0E9FA0FE000BF05EB45016D
:103B500008EB810090E80E00684604F0EDFA1BF8CF
:103B60000510684604F0D3FA6D1CBD42EEDB0098E8
:103B7000801BCFE72DE9F04102250F4606460024C1
:103B80000AE000BF04EB440007EB800007C800F028
:103B900021F90544641CED1CB442F3DB2846BDE862
:103BA000F08138B5002304460090022901DA981EFE
:103BB00038BD194663F3070162F30711684604F044
:103BC000A6FA00210098FFF7AFFD00990844009085
:103BD000001B38BD2DE9F0438DB04FF00008069171
:103BE0000446CDF81C80CDF820808DF82C204FF0B5
:103BF000FF37006A99460E463D4620B309A800F0FB
:103C00004FFE09A8616800F043FE204602F0DAF991
:103C100083B20BAA06A901208DE807000022A16843
:103C20002069FFF761FF011E0DDD09AA204603F0A0
:103C30009DFD050007D109AA0921204603F0EDFFEB
:103C4000092804D03D460DB02846BDE8F083CDE9F3
:103C50000278E1686069CDE9000102AB03AA0121A5
:103C600004A8FFF7FEFC012802D1029D802DEAD0B6
:103C70005FF0000004EBC001496A19B1401C05283F
:103C8000F8DBE0E704EBC0000025C0E90969DAE7EA
:103C90007CB506460D460024684600F001FE294624
:103CA000684600F0F5FD6946304602F015F8401C04
:103CB00000D1441E20467CBD2DE9FF412D4E074614
:103CC0000C46306A002852D001F070FD05004ED03D
:103CD0003846FCF7B2FD02460B4627A1284601F004
:103CE000F3FC0CB1012200E0002224A1284601F0DF
:103CF000D3FC0CB121A200E022A224A1284601F0AD
:103D0000FDFCFDF7D7FCFCF798FD02460B4621A110
:103D1000284601F0D9FC284601F046FE040023D0D5
:103D2000014614484FF400725C30FCF759FA11490F
:103D300000205C3181F8FF018DF800008DF8010052
:103D400020460294FCF758FA03906A4614A10948E9
:103D5000FFF72EFD010004D0306A10B113A000F06F
:103D600043FF204601F026FE284601F043FDBDE852
:103D7000FF81000018120020636F3200616C6572D1
:103D8000740000006E6F726D616C0000737461747A
:103D90007573000074696D657374616D7000000067
:103DA0006465766963652F64617461005B45525296
:103DB0004F525D204D515454207075626C69736888
:103DC000206661696C65642C2072633D25640D0A70
:103DD0000000000010B510B1FCF70EFA01460846CD
:103DE00010BD000070B586B000241B4800940194FB
:103DF00002940394816941F010018161816901F0AD
:103E000010010491816941F004018161816901F02F
:103E100004010491816941F00801816180690F4EBC
:103E200000F008000490012208213046FDF73DFC17
:103E300008200125CDE900050220CDE902406946B0
:103E40003046FDF731FBE8038DE831006946304626
:103E5000FDF72AFB06B070BD0010024000080140CB
:103E60000D4810B50B4901600C49416000214FF429
:103E700080428160C0E9031241618161C1610162D8
:103E8000FDF79CFD002803D0BDE81040FDF75BBAAC
:103E900010BD000000540040BC000020A0860100BE
:103EA000104810B50E4901604FF482714160002145
:103EB0008160C1604FF400720161C0E905121022F7
:103EC000C0E90721416281620A21C162FEF784F9DB
:103ED000002803D0BDE81040FDF735BA10BD000042
:103EE000003001401001002010B586B000241748B2
:103EF000009401940294039404941349059401607E
:103F00004721C0E9011440F2E731C0E9031484619C
:103F1000FEF740FB08B1FDF716FA4FF48050009011
:103F200069460A48FEF7B8FB08B1FDF70CFA04949D
:103F300004A906480594FEF7EFFA002801D0FDF722
:103F400002FA06B010BD0000000800406801002021
:103F50000C4810B50A4901604FF4E131416000217D
:103F600081600C22C160C0E904128161C161FEF769
:103F7000B6FC002803D0BDE81040FDF7E4B910BD41
:103F800000380140B0010020FEE7FEE70160034970
:103F90004160034981600349C1607047777B000835
:103FA000D97B0008717B00082DE9F04701F077FC10
:103FB000050033D0804601F04EFC30B10021284688
:103FC00001F040FC5FEA00082CD032A000F00CFEAB
:103FD0000027DFF8D890DFF8D8A03C46404659F8D3
:103FE000241001F035FC06003BD001F03DFC80B30D
:103FF000F06802281CD0002601272EA1404601F0BF
:1040000027FC002812D0D0E906211046FCF722FC3C
:1040100084B1012C16D0022C23D11BE026A000F085
:10402000E3FD02E0284601F0E5FB0020BDE8F08753
:104030000126E1E720B98AF800603046FDF75EF915
:104040000124CBE701280CD130468AF80160FDF746
:1040500043F906E0022804D130468AF80360FDF7F0
:104060005FF9641C042CB9DB12A1404601F0F0FB9F
:1040700004000AD001F0FFFB38B1D4E90601FCF7D7
:10408000E9FB014612A000F0AFFD284601F0B2FBAB
:10409000F8B2CBE74A534F4E2050617273652053FC
:1040A000554343455353210D0A000000640000208E
:1040B0008C000020696400004A534F4E205061720A
:1040C0007365206661696C6564210D0A000000005B
:1040D0004D6573736167652049443A2025640D0A74
:1040E00000000000704700002DE9FF4116460C4615
:1040F000074601F05BFB050002D034B1012205E068
:104100001FA000F071FDBDE8FF810022394601F0DB
:10411000C3FA3046FCF791FB02460B461DA1284628
:1041200001F0D2FA284601F03FFC040024D00146F9
:1041300040F2FF121848FCF753F8174F00262046AC
:1041400087F8FF6101F036FC8DF800603846029771
:10415000FCF752F803908DF801606A460FA1A7F1B1
:104160005C00FFF725FB010002D00FA000F03CFD32
:10417000284601F03FFBC6E715A000F035FDF7E744
:10418000437265617465206661696C6564200D0A1F
:104190000000000069640000741200206465766904
:1041A00063652F64617461005B4552524F525D201C
:1041B0004D515454207075626C6973682066616952
:1041C0006C65642C2072633D25640D0A00000000BC
:1041D0004A534F4E20737472696E67206372656133
:1041E0007465206661696C65640D0A00F0B5264E41
:1041F00087B0306A002844D005A904A800F0E2F98D
:1042000001F0D4FA05003CD00498FCF742FB0246CA
:104210000B461EA1284601F057FA0598FCF739FB1A
:1042200002460B461BA1284601F04EFA284601F033
:10423000BBFB040022D001464FF4007206F15C0083
:10424000FBF7CEFF06F15C00002780F8FF718DF8C8
:1042500000700290FBF7D0FF03908DF801706A4662
:104260000EA13046FFF7A4FA010004D0306A10B165
:104270000DA000F0B9FC204601F09CFB284601F09F
:10428000B9FA07B0F0BD00001812002074656D7017
:104290000000000068756D690000000064657669C3
:1042A00063652F64617461005B4552524F525D201B
:1042B0004D515454207075626C6973682066616951
:1042C0006C65642C2072633D25640D0A00000000BB
:1042D000F8B515460E460B4600920446012202210F
:1042E00000F010F840B933460022802120460095A6
:1042F00000F008F8002804D0606D40F020006065F0
:104300000320F8BD2DE9F8431E4691468846044631
:10431000089DFDF7CFF9401B351AFDF7CBF907468D
:1043200025480068C0F3CB30684338E0701C37D0B4
:10433000FDF7C0F9C01BA84203D215B1009860B3C5
:104340002CE02068416821F0E00141606068B0F530
:10435000827F0BD1A068B0F5004F02D0B0F5806F1E
:1043600004D12068016821F040010160A06AB0F525
:10437000005F09D12068016821F4005101602068C4
:10438000016841F400510160012084F851000020CF
:1043900084F850000320BDE8F8830025401E0090FB
:1043A0002068816838EA010004D000214945BDD168
:1043B0000020F0E70121F9E70C0000207047000021
:1043C0007FB501F0F3F93A4C0546207808B1012297
:1043D00000E0002237A1284601F05EF9607808B1BC
:1043E000012200E0002235A1284601F055F9E078CD
:1043F00008B1012200E0002231A1284601F04CF969
:104400000022314B31A1284601F05EF94FF06632AF
:10441000304B31A1284601F057F9FDF74BF9FCF775
:104420000CFA02460B462EA1284601F04DF92FA2A8
:1044300031A1284601F062F90022324B32A1284610
:1044400001F042F9284601F0AFFA314E040024D0C1
:10445000014640F2FF1206F15C00FBF7C1FE06F1D7
:104460005C01002081F8FF018DF800008DF801004B
:1044700008460291FBF7C0FE03906A4625A130462C
:10448000FFF796F9010004D0306A10B124A000F0C3
:10449000ABFB204601F08EFA04E0306A10B12A48E6
:1044A00000F0A2FB04B02846BDE8704001F0A2B9BC
:1044B0008C0000206C616D700000000066756E005D
:1044C00073707261790000000080374074656D7010
:1044D0000000000066264F4068756D69000000000E
:1044E00074696D657374616D7000000053544D33D1
:1044F000325F5735353030006465766963655F69D2
:10450000640000000000F03F76657273696F6E0012
:10451000181200206465766963652F646174610018
:104520005B4552524F525D204D515454207075627C
:104530006C697368206661696C65642C2072633DE8
:1045400025640D0A00000000E88200080A460146C2
:1045500001A0FFF7C9BD00006C616D700000000094
:104560000A46014601A0FFF7BFBD000066756E0058
:104570000A46014601A0FFF7B7BD000073707261E3
:10458000790000000E4810B50146C4684988A1F1C1
:104590000A0293B2143292B2012C05D0B1F5C87F51
:1045A00008D80121C16008E0B1F5966F05D34FF03E
:1045B000FF31C1604380408810BD4280FBE70000AE
:1045C0009800002070B50F4C0D4606460C496068F7
:1045D000FCF70CF80C496060884201DD0B48606014
:1045E0004FF07C51A068FCF701F80949A0608842AF
:1045F00001DD0848A06060683060A068286070BD78
:10460000CDCCCC3D980000200000F0410000A0413E
:104610000000A042000020422DE9F041FDF74AF8D9
:10462000134E04464FF47A773069201AB84212D3F9
:10463000FFF7A8FF0546B84201D9012100E000219B
:10464000FFF73AFB2846FCF7CDFD0AA000F0CCFAB4
:10465000FFF7CCFD34617069201AB0F5FA6F05D30D
:1046600012A000F0C1FAFFF7ABFE7461BDE8F08163
:10467000980000205B53656E736F725D2050657209
:10468000696F646963616C6C79207075626C6973C1
:1046900068696E672074656D702F68756D69202676
:1046A00020434F322E2E2E0D0A0000005B53656E04
:1046B000736F725D20506572696F646963616C6CC1
:1046C00079207075626C697368696E6720616C6CC3
:1046D000207374617475732E2E2E0D0A0000000075
:1046E00001B582B04FF0FF300090012301AA02A96A
:1046F0000248FDF703FE9DF804000EBD10010020E6
:10470000FDF766BA30B58FB028216846FBF75DFD2E
:1047100014210AA8FBF759FD01210804CDE9001076
:104720000024029402250491CDE907504FF4E010D3
:1047300009906846FDF7C0FB08B172B6FEE70F208E
:10474000CDE90A054FF48060CDE90C4002210AA8AA
:104750000E94FDF7D5FA002801D072B6FEE70FB02F
:1047600030BD70470148FEF706B800006801002020
:10477000F0B50268204C214D214E224F224B4FF0C4
:10478000804CA04209D0984207D0604505D0A8428D
:1047900003D0B04201D0B84204D122F0700E4A6872
:1047A00042EA0E02A04209D0984207D0604505D0E7
:1047B000A84203D0B04201D0B84203D122F44075E0
:1047C000CA682A434D6922F080022A4302608A683F
:1047D000C2620A688262A04201D0984201D109698E
:1047E0000163012141610169C90703D0016921F019
:1047F00001010161F0BD0000002C014000040040F7
:1048000000080040000C00400034014010B58468EE
:1048100042EA032224F47F440A432243826010BD0B
:10482000826822F070020A4342F0070181607047FB
:1048300010B5036A046A24F001040462846924F058
:10484000F00444EA021423F00A020A43846102627B
:1048500010BD10B5036A046A24F010040462846970
:1048600023F0A00324F4704444EA023243EA011125
:104870008261016210BD70B50C460546FCF71AFF57
:1048800004EB4401C1EBC41100EBC100686070BDD2
:1048900070B50C460546FCF70DFF2044686070BDFE
:1048A00000214160704710B50446FCF703FF6168C2
:1048B000814201D8012010BD002010BD10B5044672
:1048C000FCF7F8FE6168814201D8002010BD081A8B
:1048D00010BD01680C3151E8002F22F4907241E8BC
:1048E0000023002BF5D10168143151E8002F22F08C
:1048F000010241E80023002BF5D1016B012909D108
:1049000001680C3151E8002F22F0100241E8002329
:10491000002BF5D1202180F842100021016370475F
:1049200070B5044600680169E26821F44051114302
:1049300001612169A0680843616908432168CA6868
:1049400041F20C639A430243CA6020684169A2693C
:1049500021F44071114341611E492068884202D10F
:10496000FDF774FA01E0FDF761FA00EBC00101EB1D
:104970000012606864218000B2FBF0F3B3FBF1F336
:104980006FF018067343B2FBF0F5B2FBF0F605EBDF
:104990008305322303EB0515B5FBF1F5B6FBF1F604
:1049A00005F0F00505EB0615B2FBF0F6B2FBF0F0F2
:1049B000B0FBF1F06FF01802504306EB800003EB00
:1049C0000010B0FBF1F0216800F00F00284488606F
:1049D00070BD0000003801402DE9F84398461746A5
:1049E0000D460446089E24E0701C22D0FCF762FEAF
:1049F000A0EB0800B0421AD8CEB12068C1684907C0
:104A000017D5802D15D0402D13D00168C943090753
:104A10000FD401680025406800902046FFF759FF39
:104A20000820606484F840500120BDE8F88303202A
:104A3000FBE72068006835EA000004D00020B84297
:104A4000D2D00020F1E70120F9E7FEE7F8B5144CD9
:104A50000546E068804760698047616AC5F30740A2
:104A6000C5F3072699B1A26A8AB18DF800008DF8C6
:104A700001608DF80250032168469047E069804745
:104A80000546A0698047206980472846F8BD216A0D
:104A90008847216A30468847216AE8B28847EDE7AF
:104AA000180000202DE9F8431A4C05461746E06827
:104AB0008846804760698047616AC5F30740C5F34F
:104AC0000726A1B1A26A92B18DF800008DF80160AD
:104AD0008DF80250032168469047626A3946404685
:104AE0009047A069804720698047BDE8F883216A24
:104AF0008847216A30468847216AE8B288470025FE
:104B000005E0E069804708F805006D1CADB2BD42C4
:104B1000F7D3E6E718000020F8B5164C05460E4618
:104B2000E068804760698047A26A45F004058AB161
:104B3000280C8DF80000280A8DF801008DF802502D
:104B40008DF80360042168469047A069804720697A
:104B50008047F8BD216AC5F307408847216AC5F33D
:104B600007208847216AE8B28847216A304688478B
:104B7000EBE7000018000020F8B51A4C0546164671
:104B8000E0680F46804760698047A26A45F00405E7
:104B90009AB1280C8DF80000280A8DF801008DF8D4
:104BA0000250032168469047A26A31463846904732
:104BB000A069804720698047F8BD216AC5F3074096
:104BC0008847216AC5F307208847216AE8B28847E9
:104BD000002504E0216A785D88476D1CADB2B542BE
:104BE000F8D3E5E7180000200FB4054B10B503A972
:104BF000044A029800F05CF910BC5DF814FB000058
:104C0000AD5F0008B00000200FB4084B10B504A938
:104C100002AA039800F04CF9044602A9002000F013
:104C2000CAFC204610BC5DF814FB0000B755000814
:104C30000907090E002804DB00F1E02080F80014C9
:104C4000704700F00F0000F1E02080F8141D70475D
:104C500030B528B1144C031F002021680A4605E036
:104C6000084630BD9A4203D810465268002AF9D14E
:104C7000002800D041680BD00468A3EB0005A542D2
:104C800004D11B681C440346046002E0436000E05A
:104C900023603AB11C68D51AA54203D115682C448B
:104CA0001C6052685A6030BDB40000202DE9F04706
:104CB00082460F4C10480D4E0E4F001B4FF000085F
:104CC00020F007054FF0010900221146504601F07F
:104CD00019FA002802D1306810B10020BDE8F08731
:104CE0003C60C4E90058C6F80090EDE7B800002029
:104CF0007C140020B40000207834002002E008C8B2
:104D0000121F08C1002AFAD170477047002001E045
:104D100001C1121F002AFBD1704700002DE9FF5F7F
:104D200082B00021DDE90430020DDDF840B003431C
:104D300018D044F61050A2F2FF32424315141198D5
:104D400001281FD0A5EB0B00401C5FEA000A4FF0C2
:104D500000064E4FDFF83891B046504615D5CAF1DF
:104D6000000413E0119801244AA3012801D16FEA3D
:104D70000B010298119AC0E90031C0E9024206B065
:104D8000BDE8F09FCBF10000DFE704460021404A78
:104D9000491842EB0450CDE9001012E0E00707D0BB
:104DA00032463B4640464946FBF750FF804689461F
:104DB00032463B4610461946FBF748FF06460F466B
:104DC0006410002CEAD1DDE90401DDE90023BAF129
:104DD000000F06DAFBF73AFF42464B46FBF736FF79
:104DE00005E0FBF7A5FF42464B46FBF7A1FF044653
:104DF0000E460022284BFBF777FD03D84FF0FF301B
:104E0000014607E00022254B20463146FBF746FCD1
:104E1000FCF709F8102409E0002C0ADB0A22002321
:104E2000FBF7ACFD039B30321A55641E50EA0102B9
:104E3000F2D1641C039AC4F111031444119A012A9B
:104E400003D0012208430DD10AE0084304D000201A
:104E50004FF0110B119072E7A3EB0B056D1E0DE0E7
:104E60005B4504DD4FF0000205F1010504E003DAC3
:104E70004FF00002A5F10105002AECD0029811992B
:104E8000C0E90231C0E9004579E7000000001440A4
:104E90000000F03F300000000000F0430000E03F61
:104EA00030380A2801D201207047002070470000E6
:104EB0002DE9FF4F95B09A46884606460025EEE15B
:104EC000252877D100242746F94A0121039400E0E0
:104ED000044316F8013F203B01FA03F01042F7D1DA
:104EE00030782A2811D06FF02F033078A0F13002EB
:104EF000092A16D8039A44F0020402EB820203EB5B
:104F000042021044761C0390EFE758F8042B0392FA
:104F1000002A03DA504244F40054039044F002049F
:104F2000761C30782E2816D116F8010F44F00404B0
:104F30002A280DD06FF02F023078A0F13003092B12
:104F400009D807EB870302EB4303C718761CF3E786
:104F500058F8047B761C30786C280FD006DC4C287F
:104F600017D068280DD06A2814D104E0742810D016
:104F70007A280FD10DE044F400140AE044F48014C0
:104F800001E044F440147278824202D104F58014A6
:104F9000761C761C307866280BD013DC582877D026
:104FA00009DC002875D04528F6D04628F4D04728DB
:104FB0001AD193E118E0632835D0642879D06528A8
:104FC00012D18BE1702873D008DC6728F1D06928F2
:104FD0006FD06E280DD06F2806D1ACE073282CD08E
:104FE000752874D0782853D05246179990476D1C75
:104FF00054E1C4F30250022809D003280DD0D8F898
:10500000001004280DD00D6008F1040846E1D8F81E
:105010000010EA17C1E90052F6E7D8F800100D8039
:10502000F2E70D70F0E718F8041B8DF8001000206F
:105030008DF80100EB46012003E058F804BB4FF067
:10504000FF3061074FF0000102D40DE009F10101CA
:105050008946B9420FDA8145F8DB1BF809100029AF
:10506000F4D108E009F1010189468142FADB1BF81D
:1050700009100029F6D103985346A0EB09072146F1
:105080003846179A00F080FA284400EB090507E03B
:1050900044E008E10DE01BF8010B524617999047D8
:1050A000B9F10109F7D2534621463846179AF2E082
:1050B00039E00A21C4F302524FF0000B0091022A9A
:1050C00006D058F8040BC117032A09D00AE023E0E0
:1050D00008F1070020F00702F2E80201904605E01F
:1050E00000B2C117042A01D140B2C117002906DA63
:1050F0000A460021404261EB02012D2202E0220516
:1051000004D52B228DF80420012203E0E20701D010
:105110002022F7E7914657E00A2100E010214FF0E6
:10512000000B00910BE010214FF0000B44F0040441
:105130000827009103E008204FF0000B0090C4F313
:105140000252022A05D058F8040B0021032A08D085
:1051500008E008F1070020F00702F2E8020190469B
:1051600003E080B2042A00D1C0B24FF00009220748
:105170002AD53278702A07D0DDF800C08CF0100CE8
:105180005CEA0B0C05D00EE040228DF804200122D1
:1051900008E050EA010306D030238DF804308DF882
:1051A000052002229146009B83F0080353EA0B037B
:1051B0000AD150EA010201D1620705D530228DF8EB
:1051C00004204FF001097F1E3278582A04D039A2FA
:1051D0000C920CAA02920BE03BA2F9E75B46009A04
:1051E000FBF7CCFB0C9B9B5C029A521E0292137045
:1051F00050EA0102F2D1029804A9081A00F1200B2A
:10520000600702D524F4803400E001275F4502DD09
:10521000A7EB0B0000E0002000EB0B0100900398CF
:105220004944401A0390E00306D453462146179A96
:10523000039800F0A9F90544002706E001A85246AA
:10524000C05D179990476D1C7F1C4F45F6DBE0034E
:105250000CD553462146179A039800F095F905445A
:1052600004E030205246179990476D1C0099481E63
:1052700000900029F5DC08E0029802995246007877
:10528000491C0291179990476D1CBBF10001ABF1CD
:10529000010BF1DC5BE100F065F90544761C307828
:1052A00000287FF40DAE19B02846BDE8F08F00004D
:1052B00009280100303132333435363738396162EC
:1052C00063646566000000003031323334353637B0
:1052D000383941424344454600000000600700D48D
:1052E000062708F1070020F00700F0E802238046B7
:1052F00003F0004C5FEA0C0001D097A009E0200504
:1053000001D596A005E0E00701D095A001E0AFF23D
:105310004C001390307823F0004365280CD006DC55
:10532000452809D046281DD047287FD13BE0662874
:1053300018D067287AD136E00021112F01DB112027
:1053400000E0781CCDE9000104A90CA8FFF7E6FCF9
:10535000DDE90D010C9A4FF0000B07F101091092E5
:1053600000914EE04FF000400097CDE9011004A9F4
:105370000CA8FFF7D3FCDDE90D020C9B0F994FF051
:10538000000B91461093009211B9791C00EB0109B2
:10539000B7EB090003D4C0F1FF3B07F10109A9EB0A
:1053A0000700019042E0012F00DA01270021112FB0
:1053B00001DD112000E03846CDE9000104A90CA868
:1053C000FFF7ACFCDDE90D010C9A00914FF0000BEA
:1053D000B946109221070FD4009A4A4503DA914644
:1053E00001E0A9F10109B9F1010F05DD109AA9F158
:1053F0000101515C3029F4D0B84202DA10F1040FF7
:1054000003DA0121CDE9011010E0002803DC834418
:10541000A9EB000102E0411C494500DD8946A0EBF3
:105420000B00401C01904FF000400290200705D473
:105430000198484502DB4FF0FF30019000208DF8C5
:105440004B0002980DF14B07B0F1004F25D0022020
:105450000C902B200D90029800280CDA404202900C
:105460002D200D9007E00A210298FBF771FA3031E8
:10547000029007F8011D0C99481E0C900029F2DCDF
:1054800002980028EFD1791E0D980870307800F04E
:10549000200040F0450007F8020D11A8C01BC01DF8
:1054A00002901398007800B1012000EB09010198E7
:1054B00001EBE071029801440398401A401E0390EA
:1054C000E00306D453462146179A039800F05CF88F
:1054D00005441398007818B15246179990476D1CEF
:1054E000E00323D553462146179A039800F04CF861
:1054F00005441BE0BBF1000F07DB0098584504DDB5
:105500001098179910F80B0001E0179930205246B7
:10551000904701980BF1010B401E05F10105019028
:1055200004D12E205246179990476D1CB9F1000105
:10553000A9F10109DEDC05E017F8010B52461799C5
:1055400090476D1C0299481E02900029F4DC5346D6
:105550002146179A03989EE62D0000002B000000BC
:10556000200000002DE9F041044600251E461746A4
:10557000880404D405E039462020B0476D1C641E21
:10558000F9D52846BDE8F0812DE9F0410446002513
:105590001E469046C80301D5302700E02027880426
:1055A00004D505E041463846B0476D1C641EF9D568
:1055B0002846BDE8F0810A68531C0B6010707047E4
:1055C00011B108B1884201D10020704782683AB118
:1055D00052681AB111604A608068416001207047CA
:1055E00081600020C1E90001F8E72DE9F0410600E3
:1055F0000698984614460D4621D005B3FCB1A64244
:105600001DD018B1E06840F4007708E0194628463C
:1056100000F0D6F9050012D0E06820F40077A089E8
:10562000800504D4206A10B1D8F804108847E760D8
:10563000214630462562BDE8F041FFF7C1BF00209A
:10564000BDE8F08130B5044606480023026803E057
:1056500012F8015B25705B1C8B42F9DB0260084687
:1056600030BD00007400002010B530B1036823B1D4
:10567000D0E90121914201D204E0002010BD491C73
:10568000816020B1914202D25C5C202CF7D991421A
:10569000F4D1491E816010BDF8B505460C46104690
:1056A00000F044F8064600200090064B32462146A2
:1056B0002846FFF79AFF0028304602D100F09AF8FA
:1056C0000020F8BD80000020F8B50C4605461046C5
:1056D000194600F03BF8064600200090064B324683
:1056E00021462846FFF781FF0028304602D100F00E
:1056F00081F80020F8BD000080000020F8B50546C4
:105700000C46104600F05EF8064600200090064B5E
:10571000324621462846FFF768FF0028304602D16E
:1057200000F068F80020F8BD8000002010B50446A5
:10573000054800F0A9F8002804D00CB1022100E0CF
:105740000121C16010BD00008000002070B5054639
:105750000E46124800F098F804001CD00820E060C3
:10576000C4E906560E4A0F4B28463146FBF7BCF8F3
:1057700002D86FF000400DE000220B4B2846314666
:10578000FBF79AF802D84FF0004003E02846314674
:10579000FBF760F86061204670BD000080000020CB
:1057A0000000C0FFFFFFDF410000E0C110B504486A
:1057B00000F06AF8002801D04021C16010BD00004F
:1057C0008000002070B50546094800F05DF804002F
:1057D00007D01020E0600649284600F0F1F820616B
:1057E00008B1204670BD204600F004F8002070BDCE
:1057F000800000202DE9F04104460027104E1BE0F8
:10580000A0892568C0050BD4A06820B1FFF7F2FF7E
:10581000A089C00504D4206910B171688847276148
:10582000A089800504D4206A10B171688847276276
:105830007168204688472C46002CE1D1BDE8F081F4
:1058400080000020002901DA0020704700F011BC20
:10585000002200F019BC002803D0007B202801D0D2
:105860000020704701207047002803D0007B80078C
:1058700000D001207047002803D0007B082801D009
:10588000002070470120704710B501682820884724
:10589000040002D02821FAF798FC204610BD00220F
:1058A000114600F06FB800002DE9F04788B00F46B0
:1058B00004469A4616461C216846FAF786FC2F488D
:1058C0000025002C0560456055D08146E7B3CDE941
:1058D00000470295D9E90212D9F810000491CDE9E8
:1058E000052009F10800FFF7CFFF5FEA00082BD081
:1058F00000986F4608B1029808B100270BE00198A4
:10590000042808D903221EA10098FAF793FC10B9C5
:105910000298C01C02903846FFF7A6FE014640469A
:1059200001F0E2F968B1BAF1000F13D06846FFF751
:105930009BFEDDE90101814203D202990098405C9F
:1059400040B14046FFF756FFDDE9011088420AD218
:1059500005460BE01EB102990098084430604046AD
:1059600008B0BDE8F087081E00D0451E0EB16019D2
:105970003060C9E900450020F2E70000780000200F
:10598000EFBBBF0070B515460E46040009D0FAF70C
:1059900033FC411C2B4632462046BDE87040FFF7E1
:1059A00083BF002070BD0000014A002101F01ABA37
:1059B000800000200149496808470000800000205D
:1059C00070B50E4605000DD0FAF716FC401C316884
:1059D00004468847060005D022462946FAF7DCFB34
:1059E000304670BD002070BD70B50446082802D353
:1059F0004FF0FF3070BD4FF4847000EB441005464B
:105A00001021FFF789F82846FFF720F80028FAD17F
:105A10004FF4027000EB44101F21FFF77DF80D4991
:105A20000120A0404A8882434A808A8882438A8033
:105A30000949002021F814000649891D08554FF432
:105A4000427000EB44142046FFF700F80028FAD11A
:105A5000012070BD44000020F80100202DE9F0472E
:105A60009846894623F0004621F000470546144633
:105A700033463946FAF738FF02D22846394601E064
:105A8000204631466FF03302FAF7AFFE06460F4666
:105A90002246434628464946FAF7A1FE21F0004136
:105AA00032463B46FAF708FF02D80120BDE8F087EE
:105AB0000020FBE72DE9F05F9B4617460E460446A3
:105AC000082803D34FF0FF30BDE8F09F6001083095
:105AD0004FF001088246FEF7B9FF00F003006FF0B7
