:020000040800F2
:10000000F817002049010008BB340008152100083A
:10001000B9340008E50C00084F3900080000000062
:10002000000000000000000000000000F1360008A1
:10003000D90D0008000000007935000815370008C8
:100040006301000863010008630100086301000800
:1000500063010008630100086301000863010008F0
:1000600063010008630100086301000863010008E0
:1000700063010008630100086301000863010008D0
:1000800063010008630100086301000863010008C0
:1000900063010008630100086301000863010008B0
:1000A00063010008630100086301000863010008A0
:1000B00063010008630100086301000825210008AE
:1000C00019210008630100086301000863010008AA
:1000D0006301000863010008630100086301000870
:1000E0006301000863010008630100086301000860
:1000F0006301000863010008630100086301000850
:10010000630100086301000863010008630100083F
:10011000630100086301000863010008630100082F
:10012000630100086301000863010008630100081F
:10013000DFF810D000F0AAFD00480047714D00081C
:10014000AFF30080F81700200648804706480047B4
:10015000FEE7FEE7FEE7FEE7FEE7FEE7FEE7FEE777
:10016000FEE7FEE77737000831010008202A04DBAC
:10017000203A21FA02F00021704721FA02F3D04020
:10018000C2F120029140084319467047A0F1410195
:10019000192900D82030704740EA01039B0703D09B
:1001A00009E008C9121F08C0042AFAD203E011F8B6
:1001B000013B00F8013B521EF9D27047D2B201E078
:1001C00000F8012B491EFBD270470022F6E710B55C
:1001D00013460A4604461946FFF7F0FF204610BDB5
:1001E000421C10F8011B0029FBD1801A704710B582
:1001F000002200E0521C835C8C5CA34201D1002BE6
:10020000F8D1D8B2E1B2401A10BD30B50546002091
:10021000034600E05B1C934205D2EC5CC85C201AEC
:1002200001D1002CF6D130BD2DE9FF4F087883B005
:100230009946FF2805D0491C2D2804D00024002011
:1002400008E000200BE00124F9E700EB800003EB5D
:100250004000491C0B78FF2BF7D104B1404200232A
:100260000293147819461D462D2C01D02B2C04D155
:10027000521C2D2C13D000240294AA461478FF2C73
:100280000FD00A25A3FB057801FB05814FF0000C78
:1002900003FB0C11521CE3194AEB0101EEE70124A8
:1002A000EAE7814453EA010002D019F5C87F06DA73
:1002B00003980021C0E9001107B0BDE8F08F0025C8
:1002C000AE4E2F46DFF8B882184600F0BAFCCDE9F2
:1002D0000001B9F1000002DAC9F1000400E00446AF
:1002E0000023A74A1AEB030B42EB045A12E0E00783
:1002F00007D02A4633463846414600F0C1FB074640
:1003000088462A4633461046194600F0B9FB054692
:100310000E466410002CEAD1DDE90001B9F1000FAE
:100320005A46534606DA00F01DFC3A46434600F0B2
:1003300019FC05E000F0A4FB3A46434600F0A0FBA0
:10034000029A0AB181F00041039AC2E90001B3E7C1
:100350002DE9FF4F1F468DB0D7E901464FF0FF381A
:100360002E2045464FF000090B90B9696D1C0E9880
:100370008847396A824688470028F6D1BAF1FF3F9C
:100380000AD024F4D064002E11DDBAF12B0F08D06E
:10039000BAF12D0F0BD102E0404611B08DE744F4C5
:1003A0008064B9696D1C0E9888478246761E69463E
:1003B000600501D52D2000E02B208DF8000001F113
:1003C000010B0DF1200809E0B9696D1C0E988847F2
:1003D00082460F9844F40074761E0560002E02DDFC
:1003E000BAF1300FF0D00B998A453ED144F0800429
:1003F00006E00F99681CA9F1010944F40074086033
:10040000B9696D1C761E0E98884782463028F0D058
:100410002BE00B998A4505D1200603D444F08004D3
:10042000761E18E0504603F0BDFC08B30DF1130131
:10043000761E44F400748B4508D2AAF130000BF804
:10044000010B200607D5A9F1010003E0200602D424
:1004500009F101008146A00502D50F99681C0860CA
:10046000B9696D1C0E9888478246002ED1DC53E096
:10047000002E51DDBAF1650F02D0BAF1450F4BD114
:10048000A00549D5B9696D1C24F44074761E0E98F8
:1004900088478246002E0CDD2B2804D0BAF12D0FA0
:1004A00007D144F48074B9696D1C0E988847824660
:1004B000761EE00501D52D2100E02B2108F8011B57
:1004C000CDF82C8021E00DF12901761E44F4007452
:1004D00088450CD2AAF1300010F0FF0088F8000027
:1004E00002D10B99884509D908F1010806E0E00519
:1004F00001D5244801E042F20F708146B9696D1CB4
:100500000E98884782460F980560002E04DD5046FD
:1005100003F048FC0028D6D1F9690E988847FF20DF
:100520008BF8000088F800000020069007904B46EA
:100530006A4608A906A8FFF777FEA00502D46FF067
:1005400001002AE714F0240F0AD0E00714D1DDE9F6
:1005500006123868031D3B600068C0E900120BE01A
:10056000DDE9060100F006F90146E00704D138682C
:10057000021D3A600068016028460EE70000144042
:100580000000F03FF1D8FFFF2DE9FE4F804681EAE1
:100590000300C00F0C46009021F0004123F00045FD
:1005A000B8EB0200A94105D24046214690461C46C0
:1005B0000B46024623F00040104347D0270DC7F3F7
:1005C0000A00C3F30A510290401A019040286BDAE6
:1005D000C3F3130040F4801B0098924620B100231F
:1005E000D2EB030A63EB0B0B01985946C0F14002B2
:1005F000504600F022F906460D4650465946019AEB
:1006000000F02AF910EB08006141002487EA11523A
:1006100084EAE7731A4340D0009A62B3019A012A30
:100620004FEA075215DC001B61EB02014FF000425C
:1006300002EA0752CDE90042001C41F58011324622
:100640002B4600F0CFF903B0BDE8F08F40462146BD
:10065000F9E7001B61EB0201001C41F58013001853
:100660005B412018A2F5001747EB030140EAD57063
:10067000B6196D4111E06D084FEA360645EAC075BE
:100680004FEA0752001B61EB0201001C41F580118B
:1006900049084FEA30000019514132462B4603B059
:1006A000BDE8F04F00F08FB9009801224000002310
:1006B000D0EB020263EBE073009821464FEAE0744E
:1006C000B8EB000061EB0401E9E783F000435BE76E
:1006D00081F0004158E770B5C1F30A5201F00045BE
:1006E0000024C1F3130140F2FF3341F480119A4218
:1006F00001DA002070BD40F233439A42A2F2334245
:1007000003DC5242FFF732FD00E090402C43F1D071
:10071000404270BD30B5041E71F1000404DB4FF09F
:100720000044404264EB0101141E73F1000405DB38
:100730001C464FF00043524263EB04038B4208BF58
:10074000824230BD30B5041E71F1000404DB4FF06D
:100750000044404264EB0101141E73F1000405DB08
:100760001C464FF00043524263EB0403994208BF1A
:10077000904230BD01F0004330B421F0004150EA16
:10078000010206D00A0DA2F56072C1F31301002A1E
:1007900002DC30BC00207047440F44EAC104C100B1
:1007A000E01830BC00EBC25000F0D6B830B50B46B4
:1007B000014600202022012409E021FA02F59D4291
:1007C00005D303FA02F5491B04FA02F52844151E65
:1007D000A2F10102F1DC30BD2DE9F05F05460020F9
:1007E00092469B4688460646814640241BE02846A2
:1007F000414647462246FFF7B9FC53465A46C01ABF
:10080000914110D311461846224600F016F82D1AD1
:1008100067EB01084F4622460120002100F00DF849
:1008200017EB00094E41201EA4F10104DFDC48460D
:1008300031462A464346BDE8F09F202A04DB203A91
:1008400000FA02F1002070479140C2F1200320FA23
:1008500003F3194390407047202A06DBCB17203A58
:1008600041FA02F043EAE07306E041FA02F3D040B5
:10087000C2F120029140084319467047426842B1D4
:10088000016811F8013B23B1521EC0E9001218465D
:1008900070470121C160881E704742685AB1C36821
:1008A000016843B983688B4205D0491E521CC0E9D8
:1008B0000012002070474FF0FF3070470FB4002344
:1008C00000B589B00CA900910B996FF00042CB6084
:1008D0001E4B06931E4B07930423CDE901321D4A9C
:1008E000089202466B460020FFF732FD09B05DF822
:1008F00014FB70B586B006464FF0FF300091CDE98D
:100900000101002015460C4604903246694604A8B1
:10091000FFF7D4FF02460498211825B108B1084614
:1009200000E020462860049800280DD0002A02DD4F
:100930000098884208D0081B0094CDE90104324693
:10094000694604A8FFF7BAFF06B070BD7D0800082D
:100950009B080008B10C00080029A8BF7047401C84
:10096000490008BF20F00100704710B4B0FA80FCC5
:1009700000FA0CF050EA010404BF10BC704749B102
:10098000CCF1200421FA04F411FA0CF118BF012172
:1009900021430843A3EB0C01CB1D4FEA00614FEA52
:1009A000102042BF002010BC704700EBC350104421
:1009B0000029A4BF10BC7047401C490008BF20F0AC
:1009C000010010BC704710B5141E73F1000408DA62
:1009D000401C41F1000192185B411A4301D120F003
:1009E000010010BD2DE9F04D92469B4611B1B1FAC0
:1009F00081F202E0B0FA80F220329046FFF71DFF4C
:100A000004460F4640EA0A0041EA0B0153465A46A3
:100A1000084313D0114653EA010019D0C8F140022F
:100A20005046FFF7A3FB05460E4650465946424640
:100A3000FFF703FF084305D0012004E020463946B4
:100A4000BDE8F08D0020054346EAE0762C433743AD
:100A50000A986305E40AA0EB08000022FD0A44EAB4
:100A600047540A3002D500200146E9E70105101974
:100A70006941DDE9084500196941BDE8F04DA2E78B
:100A80002DE9FE4F81EA030404F0004421F0004107
:100A900000944FF0000B23F0004350EA01045ED0B5
:100AA00052EA03045BD0C3F30A54C1F30A552C4441
:100AB000A4F2F3340194A0FB0254C1F3130141F4F6
:100AC0008011C3F3130343F4801301FB024400FBC2
:100AD000034E840A970A44EA815447EA8357A4FBE9
:100AE000076802958D0A05FB07854FEA932C04FBE6
:100AF0000C542705029D4FEA065847EA1637B5EB16
:100B000008056EEB070C870E920E47EA811742EA42
:100B10008312A7FB0201B6EB0B0164EB00042B0D63
:100B200043EA0C335E1844EB1C50DA465146E7FBAF
:100B30000201C5F313044FEA0B3343EA14534FEA9F
:100B40000432019C43EA0603A4F10C040294009CC5
:100B5000CDE900B4FFF746FF03B0BDE8F08F0020F9
:100B60000146F9E72DE9F04D81EA030404F0004B5A
:100B700021F0004514464FF0000A23F0004150EAEE
:100B8000050220D054EA01021DD0C5F30A570246DF
:100B9000C5F31303C1F31300C1F30A5640F48015E3
:100BA00043F48013A7EB0608101BD64608F2FD3865
:100BB00073EB050002D308F1010801E092185B41D4
:100BC000B8F1000F03DA00200146BDE8F08D0020E7
:100BD0004FF48011064684460EE0171B73EB0507A1
:100BE00005D3121B63EB050306434CEA010C4908CD
:100BF0004FEA300092185B4150EA0107EDD152EA0A
:100C0000030012D082EA040083EA0501084305D0FC
:100C1000101BAB4106D20122002306E000224FF058
:100C2000004302E06FF0010253101AEB06004CEB98
:100C3000085110EB0A0041EB0B01BDE8F04DFFF746
:100C4000C2BE0EB540F2334202920022CDE900222C
:100C50001346FFF7C7FE03B000BDC1F30A52C1F34C
:100C6000130140F2FF3341F480119A4202DA00206E
:100C70000146704740F233439A42A2F2334202DC0B
:100C80005242FFF773BAFFF7D8BD0000064C074D7C
:100C900006E0E06840F0010394E80700984710344C
:100CA000AC42F6D3FFF748FAA0660008C066000819
:100CB000C0B24FF4F05100F001B800007F2801D914
:100CC000002208E0064A02EB5002C007127800D169
:100CD000120902F00F020120904008407047000006
:100CE00018660008FEE7000001220821014800F014
:100CF00021BA00000008014000220821014800F04C
:100D000019BA00000008014070B515460E460446A9
:100D100043F2390200780023012104F04BFF014621
:100D20002068814206D1C0B22A46314603F08AFDCE
:100D3000012800D0002070BD70B500250126104CA0
:100D40000A4601280CD0022818D10EA11046FFF740
:100D50004EFA80B165700CA0BDE8704002F0C6BECE
:100D600008A11046FFF743FA10B125700BA0F3E776
:100D700026700FA0F0E7667012A0EDE770BD0000CE
:100D80005C0000206F6E00005B4C4544325D2054D7
:100D900075726E6564204F46460D0A005B4C4544F3
:100DA000315D205475726E6564204F46460D0A0011
:100DB0005B4C4544315D205475726E6564204F4E26
:100DC0000D0A00005B4C4544325D205475726E651F
:100DD00064204F4E0D0A0000704772B6FEE7000017
:100DE0002DE9F05F90F821100024022903D004219E
:100DF0008163012485E001680A6822F00E020A601E
:100E000001680A6822F001020A603F4E3E4FB215A7
:100E1000DFF8F4C0DFF8F090DFF8ECA0DFF8E8B01E
:100E2000DFF8E4E00168783F13011502ACF1640CCF
:100E3000A9F15009AAF13C0AABF1280BAEF1140E4E
:100E40004FF48018B14227D9B9420ED0614512D073
:100E500049451DD0514518D0594518D0714501D18B
:100E6000424615E0294EB14201D1012210E0274E41
:100E70001436B14201D110220AE0244E2836B14284
:100E800006D0224A3C32914201D11A4600E02A465D
:100E90001E49091F0A602BE0B94213D0614517D0E3
:100EA000494522D051451DD059451DD0714501D12C
:100EB00042461AE0B14202D14FF0807215E0134E63
:100EC000B14201D1012210E0104E1436B14201D1DD
:100ED00010220AE00D4E2836B14206D00B4A3C32B1
:100EE000914201D11A4600E02A46074980394A60FA
:100EF000012180F82110002180F82010416B01B100
:100F000088472046BDE8F09F800002400804024068
:100F100090F821007047000070B5044600F010F909
:100F20000546601C02D004480078044400F008F92B
:100F3000401BA042FAD370BD000000202DE9F84FFD
:100F4000DFF8C8910024A9F1040B23460F2709F10B
:100F5000040AABF1040ED1E00125A54006EA050222
:100F6000AA4276D1DFF8A8C14E68A6EB0C08664508
:100F70002BD00DDC032E34D005DC36B3012E19D076
:100F8000022E2FD11BE0112E16D0122E2AD119E0DD
:100F9000B8F5881F19D006DCB8F5803F15D0B8F534
:100FA000801F1FD111E0B8F5001F0ED0B8F5041F47
:100FB00018D10AE0CB6815E0CB681B1D12E0CB68A6
:100FC00008330FE0CB680C330CE08B682BB1012B9E
:100FD0004FF0080303D0456104E0042302E00561FB
:100FE00000E00023FF2A01D8064601E000F10406D4
:100FF0004FEA840501D9A5F12005D6F8008007FA4B
:1010000005FC28EA0C0803FA05F548EA0508C6F8C5
:1010100000804D68ED0070D53E4DAE6946F001068A
:10102000AE61AD6924F0030605F0010500953A4D67
:1010300006EB050CDCF80850A607360F07FA06F891
:1010400025EA0805DFF8D480404503D14FF00008B9
:1010500025E052E0DFF8C880404502D14FF001089A
:101060001DE0DFF8C080404502D14FF0020816E0D5
:10107000DFF8B480404502D14FF003080FE0DFF8FD
:10108000AC80404502D14FF0040808E0DFF8A080B2
:10109000404502D14FF0050801E04FF0060808FA7C
:1010A00006F848EA0508CCF808804D68D9F80060D1
:1010B000ED024D4601D5164300E096432E604D6883
:1010C000DAF80060AD02554601D5164300E09643BC
:1010D0002E604D68DBF80060AD035D4601D5164318
:1010E00000E096432E604D68DEF80060ED03754623
:1010F00001D5164300E096432E60641C0A6816462C
:10110000E2407FF429AFBDE8F88F000008040140F9
:1011100000001110001002400000014000080140D2
:10112000000C014000100140001401400018014073
:10113000001C01400AB1016170470904FBE700008F
:101140000148806870470000000000207047704729
:101150002DE9F041016804464A694E6890F83E0066
:101160000025D743FA050BD4F243D20508D46FF417
:10117000807201254A6121680A6842F400420A60CF
:10118000B90508D4F143C90505D422686FF400718C
:1011900045F002055161790525D4F143C90522D4F2
:1011A000638D94F83D10226B202808D13BB921298A
:1011B00010D029290ED0282901D1212A0AD022684D
:1011C0006FF48061516145F00405102806D0402875
:1011D00004D008E0204601F0ADFB04E0206801687F
:1011E00041F400710160380508D4F043C00505D40E
:1011F00021686FF4006045F008054861002D07D0B4
:10120000206C284320642046BDE8F04100F0F6BF82
:10121000BDE8F0812DE9F047026800215368C66AF5
:1012200090F83E4090F83D50102C12D0402C10D039
:10123000046C002C7DD05469E443A6077AD4DE43C5
:10124000B60577D4036C03B19169BDE8F04701F0AE
:101250004DBB976951694FF42A0CC9435FEAC178C5
:101260004FF02A4904D066452AD04E4528D010E0D8
:10127000DE43B6050DD4C16A614501D1012103E009
:10128000C16A494501D10821C162BDE8F04701F0BA
:1012900093BA0E0716D4DE43B60513D4416CC9B217
:1012A0001161416B09B1896A29B9816B002907D0A5
:1012B000896A002904D00068416841F400614160F6
:1012C000BDE8F0878E0706D4DE43B60503D4BDE83B
:1012D000F04701F0C5B9FE43526876074FEA025263
:1012E0001DD4002AECDB0A0608D4DA43520505D4E3
:1012F000490705D5BDE8F04701F056B94907DFD4E5
:10130000D9438905DCD4212D05D0402CD8D1BDE8A6
:10131000F04701F097BABDE8F04701F003B9002AA1
:10132000CEDB4A060BD4DA43520508D4490708D568
:1013300001E00DE00EE0BDE8F04701F079B84907A3
:10134000BED4D9438905BBD4BDE8F04701F002B84B
:10135000916970E7E10606D4D943890503D4BDE855
:10136000F04701F02FBB2821212D27D0292D25D092
:10137000650655D4DD436D0552D4640752D590F807
:101380003D30448D002C9BD01269446A2270426A21
:10139000521C4262428D521E4285428D002A8FD1DC
:1013A0002A2B8DD10268536823F480635360222274
:1013B000026380F83D1000F04FF981E7250623D441
:1013C000DD436D0520D4640720D590F83D30448D71
:1013D000002CF2D0446A24781461426A521C4262A2
:1013E000428D521E4285428D002AE6D1292BE4D13E
:1013F0000268536823F4806353602122026380F8FB
:101400003D1000F02AF95BE76107D6D4D94389057E
:10141000D3D4418D0029D0D0416A097811610AE006
:101420006107CAD4D9438905C7D4418D0029C4D0E6
:101430001169426A1170416A491C4162418D491E1D
:1014400041853DE77047000070B5040025D094F851
:101450003D00002520B984F83C50204600F0BEF83D
:10146000242084F83D002068016821F0010101601A
:101470002068016841F4004101602068016821F49E
:101480000041016000F018FA4D4A6168914201D8AC
:101490004C4900E04C49884201D2012070BD4B49C3
:1014A0002368B0FBF1F15E6826F03F060E435E60F4
:1014B0006368934206D94FF4967359434FF47A7395
:1014C000B1FBF3F12368491C1E6A26F03F06314345
:1014D00019626168914210D84900401EB0FBF1F2D8
:1014E000521CC2F30B02042A01D2042022E0B0FBFA
:1014F000F1F0401CC0F30B001CE0A268F2B301EB5A
:10150000C10303EB0116431EB3FBF6F35B1C43F46C
:1015100080431B0549D092B301EBC10202EB0111DC
:10152000401EB0FBF1F0401CC0F30B0040F48040C3
:1015300040F400402168CA694CF6FF739A43104397
:10154000C861D4E9071001432068026822F0C00294
:1015500011430160D4E9030101432068826848F225
:10156000FF339A4311438160D4E9050108432168A0
:10157000CA6822F0FF021043C86001E00EE016E0E6
:101580002068016841F0010101602564202084F891
:101590003D00256384F83E50002070BD01EB4106FC
:1015A000431EB3FBF6F35B1CB3E70120C2E701EB7C
:1015B0004101401EB0FBF1F0401CC0F30B00B7E747
:1015C000A086010080841E0000093D0040420F00FB
:1015D00070477047704770477047000010B586B07D
:1015E00000210091019102910391006817498842FE
:1015F0002AD1174CA06940F00800A061A069694693
:1016000000F008000490C0200090122001900320F8
:1016100003901048FFF792FCE06940F40010E0618D
:10162000E069002200F40010049011461F2000F031
:101630007BF81F2000F06AF800221146202000F0FD
:1016400073F8202000F062F806B010BD005400408E
:1016500000100240000C014070477047024881684A
:10166000027811448160704700000020074810B5DF
:10167000016841F010010160032000F075F80F20AF
:1016800000F006F800F024F8002010BD0020024011
:1016900070B50D4D04464FF47A712878B1FBF0F027
:1016A0000A490968B1FBF0F000F066FC48B9102C5B
:1016B00007D200222146501E00F036F800206C6050
:1016C00070BD012070BD0000000000200C00002053
:1016D0000C4808B5816941F001018161816901F01F
:1016E00001010091C16941F08051C161C06900F000
:1016F000805000900448416821F0E06141F00071A1
:10170000416008BD0010024000000140002809DBD4
:1017100000F01F02012191404009800000F1E0200B
:10172000C0F8001170470000F0B40E4B1B680C4667
:10173000C3F30223C3F10705042D00D90425191DA5
:10174000072901D2002300E0DB1E012606FA05F17D
:10175000491E214099409E40761E16403143F0BC00
:1017600002F0E8B90CED00E0064900F00702086855
:101770004FF6FF03184040EA0220034A1043086076
:10178000704700000CED00E00000FA052DE9F0477D
:101790000F46050061D0434E306800F00700B842A4
:1017A00009D2306820F0070038433060306800F01C
:1017B0000700B84251D128683B4C810712D5400739
:1017C00003D5606840F4E06060602878000703D5C6
:1017D000606840F4605060606068A96820F0F000C4
:1017E000084360602878C00728D06868012810D0B6
:1017F0002168022810D0890700292EDA616821F0BB
:10180000030101436160FFF79BFC804641F2883988
:101810000DE021688903EFE78901EDE7FFF790FC10
:10182000A0EB0801494502D90320BDE8F0876068B4
:10183000696800F00C00B0EB810FEFD1306800F068
:101840000700B8420BD9306820F0070038433060F9
:10185000306800F00700B84201D00120E5E72878A1
:10186000400705D56068E96820F4E06008436060DF
:101870002878000706D56068296920F4605040EA9E
:10188000C100606000F038F86168084AC1F30311D4
:10189000515CC8400649086006480068FFF7F8FE3A
:1018A0000020C2E700200240001002403865000816
:1018B0000C00002004000020044805490068496825
:1018C000044AC1F30221515CC84070470C0000205B
:1018D000001002404865000804480549006849684E
:1018E000044AC1F3C221515CC84070470C0000207B
:1018F00000100240486500080E4A51680E4801F089
:101900000C03042B11D0082B0FD10C48C1F38343D7
:10191000C903C05C0AD55168084AC1F34041921E10
:10192000515C054A5043B0FBF1F07047044948430D
:10193000704700000010024000127A00286500087D
:1019400000093D002DE9F84F040070D02078C04D0B
:10195000C00749D06868C0F38100012807D06868D3
:10196000C0F38100022809D16868C00306D5286841
:10197000800339D560680028E7D035E06068B0F5AD
:10198000803F0BD010B1B0F5A02F11D0286820F403
:1019900080302860286820F4802002E0286840F425
:1019A00080302860606890B1FFF7CAFB06460AE005
:1019B000286840F480202860F0E700BFFFF7C0FBF4
:1019C000801B642873D828688003F7D50CE0FFF7E4
:1019D000B7FB064605E000BFFFF7B2FB801B64289B
:1019E000F0D828688003F7D420789A4E80074FF00B
:1019F00001094FF0000839D5686810F00C0F07D0C6
:101A00006868C0F38100022809D16868C00306D461
:101A10002868800714D52069012808D110E02069C2
:101A2000B0B1C6F80090FFF78BFB074605E00AE16E
:101A3000FFF786FBC01B0228C4D828688007F7D5AB
:101A40002868616920F0F80040EAC10028600DE0D4
:101A5000C6F80080FFF774FB074604E0FFF770FB51
:101A6000C01B022823D828688007F7D420780007F5
:101A70002CD57948A169D9B1C0F80090FFF760FB77
:101A8000074604E0FFF75CFBC01B02280FD8686A1A
:101A90008007F7D571484FF4FA510068B0FBF1F0B8
:101AA000009000BF0098411E0091FAD20EE080E045
:101AB000C0F80080FFF744FB074604E0FFF740FB57
:101AC000C01B022875D8686A8007F7D420784007C1
:101AD00060D5E8690027C00008D4E86940F080506C
:101AE000E861E869012700F0805000905C480168D7
:101AF000C90513D40168834641F480710160FFF782
:101B00001FFB824606E000BFFFF71AFBA0EB0A00AE
:101B100064284ED8DBF80000C005F5D5E068012840
:101B20000AD008B1052813D0286A20F001002862E5
:101B3000286A20F0040002E0286A40F001002862D0
:101B4000E06841F2883B98B1FFF7FAFA82460BE071
:101B5000286A40F004002862EEE700BFFFF7F0FAC1
:101B6000A0EB0A0159455AD8286A8007F6D50CE03F
:101B7000FFF7E6FA824605E0FFF7E2FAA0EB0A017A
:101B800059454CD8286A8007F6D41FB1E86920F07F
:101B90008050E861E06988B36968C1F38101022976
:101BA00044D00228C6F8608004D0FFF7C9FA044682
:101BB00038E034E0FFF7C4FA074604E0FFF7C0FA64
:101BC000C01B02282BD828688001F7D4206AB0F502
:101BD000803F05D16868A16820F400300843686040
:101BE000D4E908010843696821F474110843686066
:101BF000C6F86090FFF7A4FA044606E025E000BFAF
:101C0000FFF79EFA001B022809D828688001F7D543
:101C10001BE000BFFFF794FA001B022802D9032043
:101C2000BDE8F88F28688001F4D40EE00128F7D0D1
:101C30006868226A00F48031914204D1616A00F43C
:101C40007010884201D00120EAE70020E8E7000098
:101C50000010024000004242800442420C0000207A
:101C60000070004070B5040009D0606A002540B1E2
:101C700025616561A56294F8510040B10CE0012036
:101C800070BD6068B0F5827FF4D0E561F2E784F85A
:101C90005050204600F040F8022084F8510020689F
:101CA000016821F040010160A088218900F4827060
:101CB00001F404410843A18901F400610843217C37
:101CC00001F002010843217D01F001010843218B4D
:101CD00001F400710843217F01F03801084394F8B2
:101CE000201001F080010843218D01F400510843C8
:101CF00021680860A069042101EA10402168486059
:101D00002068C16921F40061C1616565012084F822
:101D10005100002070BD000030B585B00024009453
:101D200001940294039400681449884223D1144812
:101D3000816941F480518161816901F4805104918C
:101D4000816941F00401816180690E4D00F0040059
:101D50000490A02000900220019003200390694687
:101D60002846FFF7EBF84020CDE9000469462846F5
:101D70000294FFF7E3F805B030BD000000300140E9
:101D800000100240000801402DE9FF4F81B01D46C0
:101D9000934604464FF001090E9EFFF7D1F907461E
:101DA00094F851006168012806D0B1F5827F3CD1DA
:101DB000A168C9BB042838D10298002871D0BBF1B2
:101DC000000FFBD0002DF9D094F8500001282CD042
:101DD0004FF0010A84F850A094F85100042802D072
:101DE000052084F851004FF00008C4F85480C4F86E
:101DF00038B0E587A58702992163E586A586C4F8F2
:101E00004080C4F8448020680168490603D4016812
:101E100041F040010160E068B0F5006F606808D0F3
:101E2000F0B3012D49D081E0FFE7022005B0BDE805
:101E3000F08F08B1012D39D1206B21680088C8606E
:101E4000206B801C2063E08E401EE0862EE0206820
:101E5000816889070FD5E18E69B1B9F1010F0AD107
:101E6000216B0988C160206B801C2063E08E401EBE
:101E7000E0864FF0000920688168C9070CD0E18F27
:101E800051B1C068A16B0880A06B801CA063E08F7B
:101E9000401EE0874FF00109FFF752F9C01B01E037
:101EA0000BE067E0B04201D3701C50D1E08E0028F7
:101EB000CDD1E08F0028CAD13EE0206B21680078A8
:101EC0000873206B401C2063E08E401EE0862DE0EE
:101ED0002068816889070FD5E18E69B1B9F1010FDA
:101EE0000AD1216B09780173206B401C2063E08EBE
:101EF000401EE0864FF0000920688168C9070CD0B9
:101F0000E18F51B1C068A16B0870A06B401CA06349
:101F1000E08F401EE0874FF00109FFF711F9C01B69
:101F2000B04202D3701C01D011E086B1E08E0028CF
:101F3000CED1E08F0028CBD13A463146204601F081
:101F400061FB50B12020606584F8508012E084F875
:101F500051A084F85080032068E7A06818B9206871
:101F6000C1688068009084F851A084F85080606D4A
:101F70000028F1D0012059E710B5401EB0F1807F54
:101F800001D3012010BD4FF0E02460610F216017E4
:101F900001F0D0FD0020A06107202061002010BDCD
:101FA00070B5040004D094F84100002510B106E09B
:101FB000012070BD84F84050204600F023F8242012
:101FC00084F841002068C16821F40051C1602046B6
:101FD00001F028FC2068016921F49041016120682A
:101FE000416921F02A0141612068C16841F4005132
:101FF000C1606564202084F8410084F84200656374
:10200000002070BD30B585B0002400940194029486
:10201000039400681449884224D11448816941F42A
:1020200080418161816901F480410491816941F0BD
:102030000401816180690E4D00F0040004904FF4AA
:10204000007000900220019003200390694628460A
:10205000FEF774FF2815CDE900046946284602946E
:10206000FEF76CFF05B030BD0038014000100240A3
:10207000000801402DE9F843044690F841009846D5
:1020800016460D46202802D00220BDE8F88385B10F
:102090007EB100206064212084F84100FFF750F8F1
:1020A000A6848146E684A0682027B0F5805F02D030
:1020B00003E00120E9E7206910B12E4600250EE07B
:1020C00000260CE08021204601F008FCA8B9C6B12A
:1020D00016F8010B21684860E08C401EE084E08C1B
:1020E0004B464FF00002CDF800800028EAD14FF0B7
:1020F0004001204601F0F2FB40B184F8417003201A
:10210000C3E735F8020BC0F30800E3E784F8417039
:102110000020BAE7FEE700000148FFF719B8000009
:10212000880000200148FFF775B8000088000020F3
:1021300038B5406A002190F83D202B4B46F2A81498
:102140001B68B3FBF4F3C3EBC30303EB83030093FC
:102150003BB15B1E009303681B689B0505D5009B84
:10216000F6E7036C43F020030364436B03B1996209
:10217000836B03B1996203681C6824F480641C605B
:102180004185436B03B15963836B03B159630368A2
:102190001C6824F001041C6090F83D402023602C52
:1021A0000BD0282434EA02020FD080F83D3080F8AA
:1021B0003E1000BFFFF746F938BD80F83D3080F88B
:1021C0003E100164FEF7C2FF38BD0268136843F099
:1021D000010313600268136843F4806313600163B2
:1021E00080F83D40E6E700000C00002000684169EF
:1021F000C943090601D400210161704770B5044646
:1022000090F83D0094F83E10102901D0402906D1E5
:10221000222804D121680A6822F400620A60282179
:1022200031EA00024FF000054FF0200626D0216869
:102230004968090505D4602803D084F83D6084F816
:102240003E50256320684168090537D5416821F46F
:1022500000614160606B90F821203C49012A11D057
:102260004163606BFEF7BCFD38B32068016821F064
:102270000101016084F83D60606B1CE0256384F817
:102280003D10DFE7A06B4163A06BFEF7A9FDA0B195
:1022900020684169C943490605D40069616A08702C
:1022A000606A401C60622068016821F001010160E1
:1022B00084F83D60A06B416B884710E094F83D10B6
:1022C000602910D04169C943490605D40069616A93
:1022D0000870606A401C60622046FFF7B3F8206C0B
:1022E000C1071CD115E084F83D6025644169C943EC
:1022F000490605D40069616A0870606A401C606222
:102300002068016821F0010101602046FEF71EFFF0
:10231000E5E7810703D4410701D4000704D520680D
:10232000416821F4E061416094F83D00216C490767
:102330000BD5282809D10648E062256384F83D6062
:1023400084F83E502046FFF743F970BD3121000864
:102350000000FFFF10B5C26A438D0168042B06D050
:10236000438D032B08D0438D022B1DD012E04A6809
:1023700022F480624A600CE04B6823F480634B6077
:10238000042A06D0022A04D001680A6822F4806276
:102390000A6001680969426A1170416A491C416218
:1023A000418D491E418510BD012A34D0102A32D0FA
:1023B000042A34D0022A32D00B6843F400730B6035
:1023C00001680969436A1970416A491C4162438D79
:1023D0005B1E438503681B690B70416A491C41629F
:1023E000418D491E418501684B6823F440734B6061
:1023F000202180F83D1090F83E300021402B80F8DD
:102400003E1010D0082A02D0202A00D012210163E9
:10241000FFF7DFF810BD0B6823F48063CFE70B688C
:1024200043F48063CBE70163FFF7D5F810BD0000EC
:1024300038B590F83D10222910D1C36A418D032987
:102440000DD901680969426A1170416A491C4162EB
:10245000418D491E4185418D032906D038BDC26A90
:10246000022A02D0012906D029B10068416821F46E
:102470008061416038BD2A4A46F2A81400211268E2
:10248000B2FBF4F202EB8202009202682024009D6B
:102490006D1E009526D01568AD05F8D4156825F495
:1024A000806515600268556825F4E065556002682E
:1024B0001269456A2A70426A521C4262428D521E5B
:1024C000428580F83D4090F83E2080F83E10402A3A
:1024D00021D0082B02D0202B00D012210163FFF75E
:1024E00078F838BD036C43F020030364536823F489
:1024F000E063536002681269436A1A70426A521CB0
:102500004262428D521E428580F83D4080F83E1066
:10251000FEF798FF38BD0163FFF75DF838BD000096
:102520000C00002010B5C26A90F83D1021290BD193
:10253000418D51B1416A026809781161416A491CB3
:102540004162418D491E418510BD20230021082A8A
:1025500013D0202A11D012F5803F0ED002685468A3
:1025600024F4E06454601122026380F83E1080F885
:102570003D3000BFFFF72EF810BD0268546824F408
:10258000E06454600268146844F4007414600163E9
:1025900080F83D3090F83E2080F83E10402AE9D186
:1025A000FFF71AF810BD000010B590F83D1090F834
:1025B0003E30C26A048DB4B1212903D0402B11D121
:1025C00022290FD1418DE1B390F83E10402942D02D
:1025D000416A026809781161416A491C4162418D72
:1025E000491E418510BD2129E8D120230021082A58
:1025F00013D0202A11D012F5803F0ED00268546803
:1026000024F4E06454601122026380F83E1080F8E4
:102610003D3000BFFEF7DEFF10BD0268546824F4B1
:10262000E06454600268146844F400741460016348
:1026300080F83D3090F83E2080F83E10402AE9D1E5
:1026400000E002E0FEF7C8FF10BD0068416821F419
:102650008061416010BDBDE8104000F0F3B800009B
:1026600078B590F83E50C26A046B90F83D60002344
:102670000168222E73D1066D0EB9402D6FD0056D05
:102680001DB90569B5F5404F1BD0458D95B3468DF5
:10269000484D012E20D0448D022C4DD00C6844F4BE
:1026A00080640C6001684C68240579D5AA4273D017
:1026B000012A71D0082A6FD0102A6DD0202A6BD041
:1026C0006EE04A698A6900920A6842F480720A6080
:1026D000016D491C016578BDAA4214D10A6822F433
:1026E00080620A6001684A68120504D50A6822F40B
:1026F000806217E0FFE74A698A6900920A6842F43B
:1027000000720A6050E0082A10D0202A0ED0122C45
:102710000AD0042A03D0022A01D0102AE6D10A687E
:1027200042F480620A603BE0012ADFD00A6822F4AA
:1027300080620A600168DEE7042A11D0022A0FD005
:10274000102A0DD00C6844F400640C6001684C69D8
:102750008C6900940C6824F480640C6008E025E027
:102760000C6844F480640C6001684C6989690091CC
:1027700001684C68240517D5AA4207D0012A05D064
:10278000082A03D0102A01D0202A0DD14A6842F429
:1027900080524A6008E0FFE74A6842F480524A608B
:1027A00001684A6989690091036578BD486988694B
:1027B000009078BD0000FFFF90F83E10402910D037
:1027C0000169B1F5804F19D0016DA9B3016D0129DF
:1027D00010D1416C5FF0F10201F4407142EAD11175
:1027E00006E0016D0029416C05D0C9B241F001013C
:1027F00000680161704701F0FE01F9E790F83D10B3
:102800002129416C09D0C9B241F00101026811616E
:10281000416B29B1896A49B902E001F0FE01F5E78F
:10282000816B0029E6D0896A0029E3D000684168FD
:1028300041F4006141607047FFE7416CF02201F410
:102840004071CBE710B590F83D10026D4AB1026DB2
:10285000012A14D0026D022A16D0BDE81040FFF7FD
:10286000C5BCC16C0129816C02D0C1F3072108E00D
:102870000268C9B21161016D891C016510BD816CCE
:10288000C9B20268116123E022291CD0428D0AB12D
:10289000212920D0428D002AF0D12129EED10168D2
:1028A0004A6822F4E0624A6001680A6842F40072F1
:1028B0000A6000210163202280F83D2080F83E104C
:1028C000FEF78AFE10BD01680A6842F480720A6051
:1028D000016D491CD1E7416A026809781161416ABA
:1028E000491C4162418D491E418510BD38B50C46D9
:1028F00090F83D2000212825954302680B4605D01D
:1029000051699169009180F83C3038BD556825F4D3
:1029100080655560E243540700D50121120601D5B8
:10292000828900E0028B80F83C3092B2FEF70FFC07
:1029300038BD00002DE9F04190F83D300446C26AF0
:10294000002120261E4F00686FF48065082A01D000
:10295000202A01D1282B04D0212B17D04561BDE8B6
:10296000F081E762426822F4E062426020684561DB
:102970002068026822F480620260216384F83D606E
:1029800084F83E102046FEF723FEE8E7E7622122A6
:10299000226384F83D6084F83E10416821F4E061D0
:1029A0004160206845612068016821F48061016010
:1029B0002046FFF71BFC2046FEF74FFECFE7000046
:1029C0000000FFFFF8B590F83D60044600684168DC
:1029D00021F4E061416020680025416900910168AF
:1029E00041F0010101602068016821F4806101600B
:1029F00020684168090520D5474F222E48D02A2E4D
:102A000046D0616B096849686185618D19B1216C97
:102A100041F004012164416821F400614160606B70
:102A2000FEF776FA012808D0606B4763606BFEF70B
:102A3000D7F910B1606B416B8847608D08B320688F
:102A40004169C943490708D40069616A0870606A2E
:102A5000401C6062608D401E608520684169C943EA
:102A6000490608D40069616A0870606A401C6062A7
:102A7000608D401E6085608D18B1206C40F00400B0
:102A80002064206C00B32046BDE8F840FFF7B6BBD9
:102A9000A16B096849686185618D19B1216C41F0AC
:102AA00004012164416821F400614160A06BFEF7DC
:102AB0002FFA0128C1D0A06B4763A06BFEF790F9F5
:102AC0000028BAD0A06BB6E72A2E06D125632820AD
:102AD00084F83D002046FEF7BFFD94F83D1020200D
:102AE00028290DD0216B222901D0222E07D1256360
:102AF00084F83D0084F83E502046FEF7ADFDF8BD59
:102B00000649E162256384F83D0084F83E50204682
:102B1000FEF75EFDF8BD0000312100080000FFFF58
:102B2000F0B4DDE90565049F016500214FEA010469
:102B300000EBC10C491CCCF824400529F8DB4661A8
:102B40000462C0E90127C0E9035304770121C4648A
:102B500040F8541BF0BC00F024BE0000F0B59BB060
:102B60000E4604464FF0FF373D465822204968463E
:102B7000FDF712FB206A88BB16A800F012FE16A80B
:102B8000616800F006FE06B96E4604F15400318B10
:102B9000A16100F0F1FD3246A168206900F0E8F97A
:102BA000011E21DD16AA204602F0DAFF05001BD126
:102BB00016AA0221204603F00CFA02280DD1FF20AC
:102BC0008DF8600000208DF8640018A919A8E3684A
:102BD000626900F033F8012801D03D4604E09DF819
:102BE00060500DB9012020621BB02846F0BD0000E6
:102BF000C06500082DE9FC41074615460E46002435
:102C00006846009302F0A0FD60F30704C4F3C0001F
:102C100030702009387001A9009800F0DBF80099A5
:102C2000019A014400910A44511A022904DB6846C2
:102C300002F090FD28800120BDE8FC812DE9FC41D7
:102C4000074600240E4625466846009202F07CFDA9
:102C50000146204661F307000009022818D101A9A6
:102C6000009800F0B7F800990546084401990090D3
:102C70000144081A02280BDB684602F065FD60F388
:102C80000704E0093870684602F05EFD30700125E7
:102C90002846BDE8FC812DE9FC5F8046DDE90EA0F9
:102CA0000024CDE90004994617460E462546DDF876
:102CB00034B0684602F048FD60F307042009032899
:102CC0002CD1C4F3C00188F80010C4F34100306077
:102CD00004F00100387001A9009800F07BF8009919
:102CE00005460844019900904418224669460C980C
:102CF00002F039FD90B10098201A0FD430680028F6
:102D000004DD684602F026FDA9F800000098211AAB
:102D1000CAF8001000990125CBF800102846BDE83C
:102D2000FC9F2DE9FC4781460A98002400909A46B2
:102D3000164688462546684602F006FD01462046AE
:102D400061F307000009092826D101A9009800F0C5
:102D500041F8009905460844019900904718381A2F
:102D6000022819DB684602F0F5FCA9F8000034607F
:102D70000EE03168414502DD4FF0FF350CE068465A
:102D800002F0E2FC31688B00491C31604AF8030014
:102D90000098B842EDD301252846BDE8FC87F8B578
:102DA000012500240E4607460C60641C042C0FDC31
:102DB00001216846B84701280AD19DF80000316812
:102DC00000F07F0202FB0511ED0131600006ECD43A
:102DD0002046F8BD024A10600248FFF7E0BF00003D
:102DE00064000020C544000810B503460020CA173F
:102DF00001EB526424F07F02891ACAB2E111002962
:102E000002DD00BF42F080021A5400F10100EEDC46
:102E100010BD70B504680E4624B12046FDF7E0F9F8
:102E2000054601E0D0E901543046FDF7D9F9854265
:102E300005D12A4631462046FDF7E7F908B10020C2
:102E400070BD012070BD0000401C802801DA401CCC
:102E50007047B0F5804F01DA801C70470349884203
:102E600001DAC01C7047001D70470000FFFF1F0003
:102E70002DE9F04305464FF0FF37006A89B014464C
:102E80003E464FF00009884670B307A800F089FC61
:102E900007A8696800F07DFC2078012801D002288D
:102EA00003D1284601F080FEA080D4E90201CDE9DB
:102EB0000501CDE90289CDF81090A1886078CDE9AF
:102EC000000123780022A968286900F01BF9011E7F
:102ED00025DD07AA284602F043FE06001FD1207810
:102EE000012802D0022808D019E007AA04212846A8
:102EF00003F06FF8042807D010E007AA072128463E
:102F000003F067F8072809D1E868009001AA02A930
:102F100003A86B69FFF76EFE012800D03E4609B09A
:102F20003046BDE8F083F8B50024069E05460090C3
:102F3000042901DAA01EF8BD62F3071463F3C30489
:102F4000062A24F0060000D1801CC1B2684603F0B6
:102F5000BAFA02210098FFF747FF00990844009051
:102F60003146684603F0B5FA0098401BF8BD0000F2
:102F70002DE9F84307460090884614460025104680
:102F800000F082F88146FFF75FFF404502DDA81E92
:102F9000BDE8F8832E46314666F3070168461031D6
:102FA00003F091FA49460098FFF71EFF0099084484
:102FB0000090207A04281DD02FA1684603F06FFAF4
:102FC0000321684603F07FFAA07E66F3070560F3ED
:102FD0004105E07E08B145F00405680707D594F87F
:102FE0003D0060F3C40594F83C0060F34515206C87
:102FF00040B905E022A1684603F051FA0421E0E758
:10300000A06C08B145F08005E06C08B9606D08B1AE
:1030100045F040052946684603F055FA218B68467D
:1030200003F057FA04F10C0168460EC903F060FA88
:10303000E07E68B12434684694E80E00243C03F036
:1030400057FA3034684694E80E00303C03F050FAEA
:10305000280605D504F1400168460EC903F048FA78
:10306000680605D54C34684694E80E0003F040FA33
:103070000098C01B8CE700004D514973647000003C
:103080004D5154540000000070B50446007A0025EC
:10309000032802D0042802D002E00C2500E00A2513
:1030A00004F10C0007C800F067F90544E07EAD1C90
:1030B00078B1243494E80700243C00F05DF9303402
:1030C000064694E80700303C00F056F930440544C9
:1030D0002D1D206C08B9A16C29B1D4E9111200F0A2
:1030E0004BF90544AD1CE06C08B9616D29B1D4E918
:1030F000141200F041F90544AD1C284670BD0C22A5
:1031000000F0AFB82DE9FC5F1C46129ECDE90060CF
:10311000DDF838B09046DDF830A0DDE90F238946B0
:1031200007465946204600F030F80546FFF78CFE6A
:10313000484503DD6FF00100BDE8FC9F302168F3D6
:10314000C30164F342016AF3000101A803F0BBF973
:1031500029460198FFF748FE019908440190DDE9EE
:103160000F23594601A803F0C3F9002C03DD01A881
:103170000D9903F0AEF9324611990198FDF70CF85C
:10318000019830440190C01BD6E770B50E46114639
:1031900004461A463046049D00F0EEF82844801C90
:1031A000002C00DD801C70BD2DE9FF4F83B006466A
:1031B00010A8894690E88009002492462546414699
:1031C0003846009600F036F80190FFF73DFE48457E
:1031D00003DDA01E07B0BDE8F08F64F30704803460
:1031E0006AF3C30424F00600801CC1B2684603F0F1
:1031F0006AF9DDE90001FFF7F7FD00990844009046
:103200006846069903F065F90FE000BF05EB45013C
:1032100008EB810090E80E00684603F069F91BF89E
:103220000510684603F04FF96D1CBD42EEDB0098B7
:10323000801BCFE72DE9F04102250F46064600240A
:103240000AE000BF04EB440007EB800007C800F071
:1032500093F80544641CED1CB442F3DB2846BDE83A
:10326000F08138B5002304460090022901DA981E47
:1032700038BD194663F3070162F30711684603F08E
:1032800022F900210098FFF7AFFD00990844009053
:10329000001B38BD2DE9F0438DB04FF000080691BA
:1032A0000446CDF81C80CDF820808DF82C204FF0FE
:1032B000FF37006A99460E463D4620B309A800F044
:1032C00070FA09A8616800F064FA204601F06CFC0D
:1032D00083B20BAA06A901208DE807000022A1688D
:1032E0002069FFF761FF011E0DDD09AA204602F0EB
:1032F00037FC050007D109AA0921204602F069FE22
:10330000092804D03D460DB02846BDE8F083CDE93C
:103310000278E1686069CDE9000102AB03AA0121EE
:1033200004A8FFF7FEFC012802D1029D802DEAD0FF
:103330005FF0000004EBC001496A19B1401C052888
:10334000F8DBE0E704EBC0000025C0E90969DAE733
:103350007CB506460D460024684600F022FA294650
:10336000684600F016FA6946304601F0EDFA401C56
:1033700000D1441E20467CBD10B510B1FCF730FFD3
:103380000146084610BD000030B585B0002418483D
:103390000094019402940394816941F010018161C9
:1033A000816901F010010491816941F0040181619A
:1033B000816901F004010491816941F00801816192
:1033C00080690C4D00F00800049001220821284675
:1033D000FDF7B0FE082000900120CDE90104022095
:1033E000039069462846FDF7A9FD05B030BD0000F1
:1033F00000100240000801400D4810B50B49016063
:103400000C49416000214FF480428160C0E9031201
:1034100041618161C1610162FEF716F8002803D0A5
:10342000BDE81040FDF7D9BC10BD000000540040BD
:1034300088000020A0860100104810B50E490160E8
:103440004FF48271416000218160C1604FF40072CD
:103450000161C0E905121022C0E9072141628162C1
:103460000A21C162FEF7FEFB002803D0BDE8104030
:10347000FDF7B3BC10BD000000300140DC000020AF
:103480000C4810B50A4901604FF4E1314160002158
:1034900081600C22C160C0E904128161C161FEF744
:1034A0007FFD002803D0BDE81040FDF796BC10BD9D
:1034B0000038014034010020FEE7FEE701600349C7
:1034C0004160034981600349C16070474F5F000854
:1034D000915F0008495F000870B501F065F80600CB
:1034E00024D017A101F040F8050023D001F03FF8E7
:1034F00000B315A1304601F037F804001AD001F0EE
:103500003FF8B8B1D5E90601FDF7E5F824690546AD
:10351000014622460EA000F0E9FAE8B22146FDF786
:103520000BFC304600F0F8FF012070BD0DA000F04C
:10353000DDFA02E0304600F0EFFF002070BD000031
:103540006C65645F69640000616374696F6E00009C
:103550004C454420256420616374696F6E3A2025D0
:10356000730A00004A534F4E205061727365206603
:1035700061696C640D0A00007047000000B5A5B0D9
:10358000FDF7DEFD03460D484268511C41600CA169
:10359000684600F0BBFA00208DF880008DF88100AD
:1035A000CDF888D06846FCF71BFE239020AA11A115
:1035B0001348FFF75DFC25B000BD00005C00002053
:1035C0007B2274797065223A226865617274626543
:1035D0006174222C22636F756E746572223A2564C1
:1035E0002C2274696D657374616D70223A25647D57
:1035F000000000006465766963652F646174610092
:103600009C110020F8B515460E460B460092044664
:103610000122022100F010F840B933460022802137
:103620002046009500F008F8002804D0606D40F0B6
:10363000200060650320F8BD2DE9F8431E46914641
:1036400088460446089DFDF77BFD401B351AFDF7B3
:1036500077FD074625480068C0F3CB30684338E063
:10366000701C37D0FDF76CFDC01BA84203D215B10A
:10367000009860B32CE02068416821F0E0014160CF
:103680006068B0F5827F0BD1A068B0F5004F02D022
:10369000B0F5806F04D12068016821F0400101601D
:1036A000A06AB0F5005F09D12068016821F40051DB
:1036B00001602068016841F400510160012084F834
:1036C0005100002084F850000320BDE8F883002555
:1036D000401E00902068816838EA010004D0002173
:1036E0004945BDD10020F0E70121F9E70C00002099
:1036F0007047000001B582B04FF0FF300090012309
:1037000001AA02A90248FEF73FFB9DF804000EBD86
:10371000DC000020FDF7A2BF30B58FB0282168463D
:10372000FCF753FD14210AA8FCF74FFD0121080402
:10373000CDE900100024029402250491CDE9075040
:103740004FF4E01009906846FEF7FCF808B172B635
:10375000FEE70F20CDE90A054FF48060CDE90C406B
:1037600002210AA80E94FEF711F8002801D072B6C3
:10377000FEE70FB030BD704770B50C460546FDF74B
:10378000DFFC04EB4401C1EBC41100EBC100686035
:1037900070BD70B50C460546FDF7D2FC204468604C
:1037A00070BD00214160704710B50446FDF7C8FCAC
:1037B0006168814201D8012010BD002010BD10B504
:1037C0000446FDF7BDFC6168814201D8002010BDB0
:1037D000081A10BD01680C3151E8002F22F49072D4
:1037E00041E80023002BF5D10168143151E8002F86
:1037F00022F0010241E80023002BF5D1016B0129E1
:1038000009D101680C3151E8002F22F0100241E883
:103810000023002BF5D1202180F842100021016304
:103820007047000070B5044600680169E26821F441
:103830004051114301612169A0680843616908434F
:103840002168CA6841F20C639A430243CA60206847
:103850004169A26921F44071114341611E49206808
:10386000884202D1FEF738F801E0FEF725F800EBB8
:10387000C00101EB0012606864218000B2FBF0F32C
:10388000B3FBF1F36FF018067343B2FBF0F5B2FB34
:10389000F0F605EB8305322303EB0515B5FBF1F5D7
:1038A000B6FBF1F605F0F00505EB0615B2FBF0F6F8
:1038B000B2FBF0F0B0FBF1F06FF01802504306EBF2
:1038C000800003EB0010B0FBF1F0216800F00F0066
:1038D0002844886070BD0000003801402DE9F8439D
:1038E000984617460D460446089E24E0701C22D0D8
:1038F000FDF726FCA0EB0800B0421AD8CEB1206834
:10390000C168490717D5802D15D0402D13D0016807
:10391000C94309070FD4016800254068009020467C
:10392000FFF758FF0820606484F840500120BDE88C
:10393000F8830320FBE72068006835EA000004D024
:103940000020B842D2D00020F1E70120F9E7FEE7DD
:10395000F8B5144C0546E068804760698047616AA5
:10396000C5F30740C5F3072699B1A26A8AB18DF85D
:1039700000008DF801608DF80250032168469047E1
:10398000E06980470546A06980472069804728464E
:10399000F8BD216A8847216A30468847216AE8B223
:1039A0008847EDE7180000202DE9F8431A4C05463A
:1039B0001746E0688846804760698047616AC5F3BA
:1039C0000740C5F30726A1B1A26A92B18DF80000A5
:1039D0008DF801608DF80250032168469047626AB5
:1039E000394640469047A069804720698047BDE836
:1039F000F883216A8847216A30468847216AE8B2FD
:103A00008847002505E0E069804708F805006D1C3F
:103A1000ADB2BD42F7D3E6E718000020F8B5164C6A
:103A200005460E46E068804760698047A26A45F017
:103A300004058AB1280C8DF80000280A8DF80100D1
:103A40008DF802508DF80360042168469047A06904
:103A5000804720698047F8BD216AC5F30740884741
:103A6000216AC5F307208847216AE8B28847216A9E
:103A700030468847EBE7000018000020F8B51A4CE4
:103A800005461646E0680F46804760698047A26A8F
:103A900045F004059AB1280C8DF80000280A8DF82D
:103AA00001008DF80250032168469047A26A314612
:103AB00038469047A069804720698047F8BD216A51
:103AC000C5F307408847216AC5F307208847216A64
:103AD000E8B28847002504E0216A785D88476D1CBC
:103AE000ADB2B542F8D3E5E7180000200FB4054B9E
:103AF00010B503A9044A029800F05CF910BC5DF807
:103B000014FB0000914B00087C0000200FB4084B10
:103B100010B504A902AA039800F04CF9044602A9C2
:103B2000002000F0CAFC204610BC5DF814FB000029
:103B3000BB4400080907090E002804DB00F1E0205F
:103B400080F80014704700F00F0000F1E02080F8CA
:103B5000141D704730B528B1144C031F0020216894
:103B60000A4605E0084630BD9A4203D8104652681E
:103B7000002AF9D1002800D041680BD00468A3EBDB
:103B80000005A54204D11B681C440346046002E002
:103B9000436000E023603AB11C68D51AA54203D106
:103BA00015682C441C6052685A6030BD80000020AB
:103BB0002DE9F04782460F4C10480D4E0E4F001B6A
:103BC0004FF0000820F007054FF0010900221146D0
:103BD000504601F07DF8002802D1306810B1002075
:103BE000BDE8F0873C60C4E90058C6F80090EDE7F6
:103BF00084000020FC11002080000020F813002029
:103C000002E008C8121F08C1002AFAD170477047A5
:103C1000002001E001C1121F002AFBD17047000003
:103C20002DE9FF5F82B00021DDE90430020DDDF8EF
:103C300040B0034318D044F61050A2F2FF32424382
:103C40001514119801281FD0A5EB0B00401C5FEA4A
:103C5000000A4FF000064E4FDFF83891B04650464C
:103C600015D5CAF1000413E0119801244AA30128D4
:103C700001D16FEA0B010298119AC0E90031C0E945
:103C8000024206B0BDE8F09FCBF10000DFE704463A
:103C90000021404A491842EB0450CDE9001012E0DF
:103CA000E00707D032463B4640464946FCF7E8FE6F
:103CB0008046894632463B4610461946FCF7E0FEF0
:103CC00006460F466410002CEAD1DDE90401DDE967
:103CD0000023BAF1000F06DAFCF7D2FE42464B464B
:103CE000FCF7CEFE05E0FCF73DFF42464B46FCF7F5
:103CF00039FF04460E460022284BFCF723FD03D86B
:103D00004FF0FF30014607E00022254B20463146A8
:103D1000FCF73AFCFCF7A1FF102409E0002C0ADBB9
:103D20000A220023FCF758FD039B30321A55641E0B
:103D300050EA0102F2D1641C039AC4F11103144445
:103D4000119A012A03D0012208430DD10AE0084349
:103D500004D000204FF0110B119072E7A3EB0B057C
:103D60006D1E0DE05B4504DD4FF0000205F101051D
:103D700004E003DA4FF00002A5F10105002AECD0BF
:103D800002981199C0E90231C0E9004579E70000C5
:103D9000000014400000F03F300000000000F0433D
:103DA0000000E03F30380A2801D20120704700208F
:103DB000704700002DE9FF4F95B09A4688460646A9
:103DC0000025EEE1252877D100242746F94A012174
:103DD000039400E0044316F8013F203B01FA03F08E
:103DE0001042F7D130782A2811D06FF02F033078A5
:103DF000A0F13002092A16D8039A44F0020402EB1B
:103E0000820203EB42021044761C0390EFE758F85D
:103E1000042B0392002A03DA504244F40054039026
:103E200044F00204761C30782E2816D116F8010FC3
:103E300044F004042A280DD06FF02F023078A0F14E
:103E40003003092B09D807EB870302EB4303C7189C
:103E5000761CF3E758F8047B761C30786C280FD07A
:103E600006DC4C2817D068280DD06A2814D104E04D
:103E7000742810D07A280FD10DE044F400140AE021
:103E800044F4801401E044F440147278824202D178
:103E900004F58014761C761C307866280BD013DC71
:103EA000582877D009DC002875D04528F6D0462858
:103EB000F4D047281AD193E118E0632835D064285C
:103EC00079D0652812D18BE1702873D008DC67287F
:103ED000F1D069286FD06E280DD06F2806D1ACE0E4
:103EE00073282CD0752874D0782853D0524617994F
:103EF00090476D1C54E1C4F30250022809D00328F6
:103F00000DD0D8F8001004280DD00D6008F1040879
:103F100046E1D8F80010EA17C1E90052F6E7D8F8F0
:103F200000100D80F2E70D70F0E718F8041B8DF813
:103F3000001000208DF80100EB46012003E058F846
:103F400004BB4FF0FF3061074FF0000102D40DE0D9
:103F500009F101018946B9420FDA8145F8DB1BF806
:103F600009100029F4D108E009F1010189468142D4
:103F7000FADB1BF809100029F6D103985346A0EB91
:103F8000090721463846179A00F080FA284400EBCA
:103F9000090507E044E008E10DE01BF8010B52467B
:103FA00017999047B9F10109F7D25346214638468F
:103FB000179AF2E039E00A21C4F302524FF0000BE5
:103FC0000091022A06D058F8040BC117032A09D021
:103FD0000AE023E008F1070020F00702F2E80201FE
:103FE000904605E000B2C117042A01D140B2C117C2
:103FF000002906DA0A460021404261EB02012D2227
:1040000002E0220504D52B228DF80420012203E0D2
:10401000E20701D02022F7E7914657E00A2100E0AD
:1040200010214FF0000B00910BE010214FF0000B1E
:1040300044F004040827009103E008204FF0000B2F
:104040000090C4F30252022A05D058F8040B002154
:10405000032A08D008E008F1070020F00702F2E880
:104060000201904603E080B2042A00D1C0B24FF0B2
:10407000000922072AD53278702A07D0DDF800C05F
:104080008CF0100C5CEA0B0C05D00EE040228DF891
:104090000420012208E050EA010306D030238DF805
:1040A00004308DF8052002229146009B83F008031E
:1040B00053EA0B030AD150EA010201D1620705D588
:1040C00030228DF804204FF001097F1E3278582AE3
:1040D00004D039A20C920CAA02920BE03BA2F9E7A1
:1040E0005B46009AFCF778FB0C9B9B5C029A521E85
:1040F0000292137050EA0102F2D1029804A9081A40
:1041000000F1200B600702D524F4803400E0012781
:104110005F4502DDA7EB0B0000E0002000EB0B0188
:10412000009003984944401A0390E00306D4534694
:104130002146179A039800F0A9F90544002706E0E4
:1041400001A85246C05D179990476D1C7F1C4F45D2
:10415000F6DBE0030CD553462146179A039800F08E
:1041600095F9054404E030205246179990476D1C9C
:104170000099481E00900029F5DC08E00298029999
:1041800052460078491C0291179990476D1CBBF16B
:104190000001ABF1010BF1DC5BE100F065F90544D6
:1041A000761C307800287FF40DAE19B02846BDE8A3
:1041B000F08F0000092801003031323334353637B2
:1041C0003839616263646566000000003031323363
:1041D0003435363738394142434445460000000003
:1041E000600700D4062708F1070020F00700F0E878
:1041F0000223804603F0004C5FEA0C0001D097A038
:1042000009E0200501D596A005E0E00701D095A0C2
:1042100001E0AFF24C001390307823F000436528A2
:104220000CD006DC452809D046281DD047287FD170
:104230003BE0662818D067287AD136E00021112F9C
:1042400001DB112000E0781CCDE9000104A90CA8D5
:10425000FFF7E6FCDDE90D010C9A4FF0000B07F1CA
:104260000109109200914EE04FF000400097CDE917
:10427000011004A90CA8FFF7D3FCDDE90D020C9B8B
:104280000F994FF0000B91461093009211B9791CD1
:1042900000EB0109B7EB090003D4C0F1FF3B07F1C4
:1042A0000109A9EB0700019042E0012F00DA012784
:1042B0000021112F01DD112000E03846CDE9000179
:1042C00004A90CA8FFF7ACFCDDE90D010C9A0091E4
:1042D0004FF0000BB946109221070FD4009A4A45BF
:1042E00003DA914601E0A9F10109B9F1010F05DDF9
:1042F000109AA9F10101515C3029F4D0B84202DAD8
:1043000010F1040F03DA0121CDE9011010E00028BB
:1043100003DC8344A9EB000102E0411C494500DDB8
:104320008946A0EB0B00401C01904FF0004002902A
:10433000200705D40198484502DB4FF0FF3001907B
:1043400000208DF84B0002980DF14B07B0F1004FA3
:1043500025D002200C902B200D90029800280CDA1A
:10436000404202902D200D9007E00A210298FCF7B0
:104370001DFA3031029007F8011D0C99481E0C906F
:104380000029F2DC02980028EFD1791E0D98087000
:10439000307800F0200040F0450007F8020D11A829
:1043A000C01BC01D02901398007800B1012000EBE3
:1043B0000901019801EBE071029801440398401A49
:1043C000401E0390E00306D453462146179A0398F3
:1043D00000F05CF805441398007818B1524617991C
:1043E00090476D1CE00323D553462146179A039846
:1043F00000F04CF805441BE0BBF1000F07DB009810
:10440000584504DD1098179910F80B0001E0179932
:1044100030205246904701980BF1010B401E05F1E8
:104420000105019004D12E205246179990476D1C2A
:10443000B9F10001A9F10109DEDC05E017F8010B73
:104440005246179990476D1C0299481E0290002908
:10445000F4DC53462146179A03989EE62D0000008F
:104460002B000000200000002DE9F041044600254B
:104470001E461746880404D405E039462020B0477C
:104480006D1C641EF9D52846BDE8F0812DE9F04188
:10449000044600251E469046C80301D5302700E09B
:1044A0002027880404D505E041463846B0476D1CF6
:1044B000641EF9D52846BDE8F0810A68531C0B60DC
:1044C0001070704730B5044606480023026803E0C8
:1044D00012F8015B25705B1C8B42F9DB0260084619
:1044E00030BD00006400002010B530B1036823B176
:1044F000D0E90121914201D204E0002010BD491C05
:10450000816020B1914202D25C5C202CF7D99142AB
:10451000F4D1491E816010BD2DE9F0410446002709
:10452000104E1BE0A0892568C0050BD4A06820B1FF
:10453000FFF7F2FFA089C00504D4206910B17168AB
:1045400088472761A089800504D4206A10B171686A
:10455000884727627168204688472C46002CE1D1A5
:10456000BDE8F08170000020012200F074BB00283B
:1045700003D0007B082801D000207047012070473D
:10458000002803D0007B102801D0002070470120B4
:10459000704710B5016828208847040002D0282100
:1045A000FBF713FE204610BD0022114600F06EB846
:1045B0002DE9F04788B00F4604469A4616461C215E
:1045C0006846FBF702FE2F480025002C0560456079
:1045D00055D08146E7B3CDE900470295D9E90212EB
:1045E000D9F810000491CDE9052009F10800FFF782
:1045F000D0FF5FEA00082BD000986F4608B1029800
:1046000008B100270BE00198042808D903221EA155
:104610000098FBF7FAFD10B90298C01C02903846CA
:10462000FFF762FF0146404601F010F868B1BAF1A9
:10463000000F13D06846FFF757FFDDE90101814203
:1046400003D202990098405C40B14046FFF764FFF6
:10465000DDE9011088420AD205460BE01EB102993D
:10466000009808443060404608B0BDE8F087081E56
:1046700000D0451E0EB160193060C9E90045002028
:10468000F2E7000068000020EFBBBF0070B51546E0
:104690000E46040009D0FBF7A3FD411C2B46324611
:1046A0002046BDE87040FFF783BF002070BD0000CA
:1046B00070B50446082802D34FF0FF3070BD4FF4A8
:1046C000847000EB441005461021FFF7A7F9284637
:1046D000FFF73EF90028FAD14FF4027000EB4410C6
:1046E0001F21FFF79BF90D490120A0404A88824312
:1046F0004A808A8882438A800949002021F8140070
:104700000649891D08554FF4427000EB44142046B9
:10471000FFF71EF90028FAD1012070BD44000020E7
:104720007C0100202DE9F05F9B4617460E460446AB
:10473000082803D34FF0FF30BDE8F09F6001083038
:104740004FF001088246FFF703F900F003006FF015
:104750000409012854D14FF4427000EB441005467F
:10476000FFF7F6F8132802D06FF00200E4E7307884
:10477000717801EB0020B17801EB0020F17801EBBA
:104780000020411C36D098B39FB341F20800390A8B
:1047900000EB4410FFF742F941F20810F9B200EBC8
:1047A0004410FFF73BF9BBF1100F29D047465046A4
:1047B000FFF7CEF8092823D040F6084000EB44105C
:1047C00004223146FFF75AF94FF4847000EB44108D
:1047D00006460421FFF722F93046FFF7B9F8002812
:1047E000FAD11748A740408807421ED00020A3E70F
:1047F00000E002E06FF00B009EE76FF00A009BE71D
:10480000484699E72046FFF7A3F8000706D520465B
:104810000821FFF703F96FF00C008DE72846FFF73A
:1048200097F830B96FF0030086E74FF4027000EBA1
:1048300044142846FFF78CF81728E3D101207BE7C2
:10484000440000200423FFF76DBF00002DE9F04174
:10485000024600200C460B78471ED21E01464FF43C
:1048600098554FF4A056152A6AD2DFE802F00B0ED5
:104870001A161D21252F696939696969484B4F53FB
:10488000575C630001F023FD51E014B1204604F1B0
:104890000801BDE8F04101F09FBC208801F032FC26
:1048A00045E001F050FC05E0208801F0D2FC3EE03C
:1048B00001F058FC20803AE02088010A2846FFF7E2
:1048C000ADF821783046FFF7A9F830E03046FFF721
:1048D0003FF806462846FFF73BF806EB0020E9E7DD
:1048E000184A91782170D17861701179A17051794D
:1048F000E17091792171D1796171A07117E001F0B6
:104900006CFD14E0204601F07DFD10E0204601F032
:1049100018FD0CE0204601F053FD08E0BDE8F04131
:10492000184601F094BD01F03EFD05E02070002026
:10493000BDE8F08101F02CFDC0B241B2491CF5D1B7
:104940003846F5E718000020F0B58DB00C46054656
:1049500000F023FF86B2B01E4FF0FF370C2865D25F
:10496000DFE800F064066444646464646464646260
:1049700008AA6969E8680292CDE9031007AB0AA8A2
:10498000CDE9000305A8031D421C09A9801CFEF700
:1049900082F901284DD109988DF8140005AA0AA9B9
:1049A000284600F051F89DF81400E0B3012802D029
:1049B000022808D035E0BDF818000090002304223A
:1049C000A968286906E0BDF81800009000230522B8
:1049D000A9682869FEF7A7FA011E22DD22462846AB
:1049E00001F0BEF80446401C24D026E0E8680090A0
:1049F00001AA02A903A86B69FEF7FCF8012810D1EF
:104A0000BDF80400009000230622A9682869FEF77B
:104A10008AFA011E05DD2246284601F0A1F80400AD
:104A20000BD03C4606E001E000202877284600F045
:104A300077F934460DB02046F0BD284600F070F9F5
:104A4000002CF6D0F6E700002DE9FC479146884699
:104A500006464FF0FF34002506EBC507796AD1B34F
:104A60004046FEF7D6F970BBD8E901100A187B6AF8
:104A700020E000BF90F800C0BCF12F0F0AD02B2916
:104A80000BD0232913D0614518D12B2905D0232918
:104A90000DD00DE02F2911D10AE0411C01E0811C4D
:104AA000401C914204D209782F29F8D100E0501E11
:104AB000401C5B1C197809B19042DBD390420AD1AB
:104AC00011F0FF0F07D1B86A28B1CDE90098B96A93
:104AD0006846884700246D1C052DBDDB601C07D18E
:104AE000F06C28B1CDE90098F16C68468847002445
:104AF0002046BDE8FC8700002DE9F0410446082867
:104B000003D34FF0FF30BDE8F0816001012508308C
:104B1000FEF71EFF00F00300012801D0A81FF2E7F6
:104B20004FF4427000EB44100646FEF711FF50B3FD
:104B30004FF4847000EB441007460821FEF76EFF27
:104B40003846FEF705FF0028FAD11048A5408188B5
:104B5000A9438180408805420CD00020D3E7284635
:104B6000FEF7F6FE000709D52046FFF7A1FD6FF01E
:104B70000C00C8E74FF4027000EB44153046FEF716
:104B8000E7FE0028EBD10120BDE700004400002033
:104B900013B54FF0FF33012269460248FDF76AFA68
:104BA00000981CBD340100200168A1F57F42FF3A46
:104BB00003D0491C0160084670470121FAE72DE93E
:104BC000F04142F2086101EB401542F20871002603
:104BD00001EB40142846FEF7BBFE07462046FEF7D1
:104BE000B7FE00EB072007043F0C09D02846FEF76C
:104BF000AFFE06462046FEF7ABFE00EB062086B26F
:104C0000BE42E7D13046BDE8F0812DE9F04142F2E5
:104C1000080101EB401542F20811002601EB401497
:104C20002846FEF795FE07462046FEF791FE00EB6C
:104C3000072007043F0C09D02846FEF789FE0646E8
:104C40002046FEF785FE00EB062086B2BE42E7D185
:104C50003046BDE8F0812DE9F0418846A8B3B8F1AF
:104C6000000F33D084680AB90AE024686CB3216A63
:104C700059B34046FBF7BBFA0028F6D120E0246880
:104C80001CB3266A5FEA0805F9D0002EF7D0B542BA
:104C900018D002E098B16D1C761C2878FBF776FAE4
:104CA00007463078FBF772FA87422878F2D0FBF794
:104CB0006DFA05463078FBF769FA8542DFD124B1F9
:104CC000206A10B12046BDE8F081FFE70020FAE736
:104CD0002DE9F0410B3020F00706104D19E0206857
:104CE000B04215D3B0420AD9871B201DD4F80480E6
:104CF000FBF752FAA019C0E90078286004E0606868
:104D00002860201DFBF748FA201D2660BDE8F081D1
:104D1000251D2C68002CE2D10020F7E78000002040
:104D20007CB5044680694FF0FF3538B104F154007A
:104D3000FEF73AFDD0B1207F10B117E0002515E055
:104D40006846FEF72EFD4FF47A716846FEF721FDA6
:104D5000A1682069FEF7D3F9011E07DD6A462046E7
:104D600000F0FEFE050001D10120207728467CBD21
:104D70008AB0FCF77BFCFEF7CFFCFEF705FBFEF7E5
:104D80005BFBFEF77DFBFEF737FB01F0AFF801F0B0
:104D900021F803A801F0F4F99DF80F009DF8112007
:104DA0009DF810108DE807009DF80E309DF80D203D
:104DB0009DF80C1018A0FEF799FE00F02FF94FF4A3
:104DC000FA70FCF7A9F82248006A00280ED121A049
:104DD000FEF78CFE28A0FEF789FE2BA0FEF786FECC
:104DE00037A0FEF783FE3FA0FEF780FEFCF7A8F990
:104DF0000446FCF7A5F942F2107500BF00F0E6F991
:104E0000FCF79EF9001BA842F8D9FEF7B7FBFCF7A8
:104E100097F90446F2E7000043757272656E7420DC
:104E20004D414320416464726573733A20253032EA
:104E3000583A253032583A253032583A25303258CF
:104E40003A253032583A253032580D0A0000000019
:104E50009C1100200D0A5B4552524F525D204D516E
:104E6000545420636F6E6E656374696F6E20666163
:104E7000696C6564210D0A00506C6561736520637F
:104E80006865636B3A0D0A0020202D204D6F737109
:104E9000756974746F2069732072756E6E696E67C0
:104EA000206F6E20504320283139322E3136382E73
:104EB0003232372E313A31383833290D0A000000AA
:104EC00020202D204E6574776F726B206361626CB9
:104ED0006520697320636F6E6E65637465640D0A87
:104EE0000000000020202D204669726577616C6CFF
:104EF00020616C6C6F777320706F7274203138385A
:104F0000330D0A0030B5D0E9004085B0A5680095A2
:104F1000D0E9011218A0E368FEF7E8FD2846FEF785
:104F2000DBFA20B11CA0FEF7E1FD05B030BDD4E9ED
:104F3000020221A1FBF769F930B1D4E9020220A1F4
:104F4000FBF763F910B104E01FA000E023A0FEF717
:104F5000CDFD00208DF804008DF80500A0680390B9
:104F6000E068049001AA22A12448FDF781FF20A156
:104F700023A0FEF7BBFDD8E7546F7069633A202584
:104F80002E2A732C205061796C6F61643A20252E93
:104F90002A730D0A000000005B494E464F5D204A0F
:104FA000534F4E20636F6D6D616E642070726F633E
:104FB00065737365640D0A004C45445F4F4E0000F5
:104FC0004C45445F4F464600416374696F6E3A201A
:104FD0004C4544204F4E0D0A0000000041637469A7
:104FE0006F6E3A204C4544204F46460D0A000000A3
:104FF0006465766963652F64617461009C110020AB
:105000004563686F2073656E7420746F20746F70D1
:1050100069633A2025730D0A0000000000B530A036
:105020009BB0006819909DF8670000909DF866306D
:105030009DF865209DF864102AA0FEF757FD022117
:105040003248FEF73BFA40F25B7219A92F48FBF792
:105050005BFE012801D02EA038E034A0FEF746FD0B
:1050600037494FF40060CDE9000101F5006327499D
:1050700002904FF47A7201F11000FDF751FD5822B1
:10508000304903A8FBF788F800208DF8270003209B
:105090008DF814002CA006903C20ADF824000120CF
:1050A0008DF82600194803A91030FDF757FD08B107
:1050B00028A00BE02DA0FEF719FD1448324B00226A
:1050C00032A11030FEF7E6F820B134A0FEF70EFD55
:1050D0001BB000BD2DA136A0FEF708FDF8E70000CB
:1050E000C0A8E30A436F6E6E656374696E672074CF
:1050F0006F2042726F6B65722025642E25642E2509
:10510000642E25642E2E2E0D0A0000008C11002026
:1051100054435020436F6E6E656374696F6E204612
:1051200061696C6564210D0A000000005443502041
:10513000436F6E6E65637465642E0D0A0000000097
:105140008C0100206865000853544D33325F573599
:10515000353030004D51545420436F6E6E6563748A
:10516000204661696C6564210D0A00004D5154545C
:105170002050726F746F636F6C20436F6E6E656347
:10518000746564210D0A0000054F000864657669A6
:1051900063652F636F6E74726F6C0000537562737A
:1051A0006372696265204661696C6564210D0A005D
:1051B0005375627363726962656420746F20746FE3
:1051C0007069633A2025730D0A00000064210148CC
:1051D000FEF7BEB89C11002000B587B01822044924
:1051E0006846FAF7D9FF684601F042F807B000BDFB
:1051F000506500082DE9F04107460025C8680C46B7
:105200002E46B0F57A7F5BD2401CE0602168A06832
:10521000095C5B2954D1401CA0602046FFF764F96B
:105220004CB1D4E90110884203D22268125C5D2A95
:1052300033D0884203D3A068401EA06040E0401EE7
:1052400004F11008A0604046FFF7A3F998B30DB32E
:10525000306046600646A068401CA0602046FFF70C
:1052600043F92146304600F0F1F930B32046FFF70C
:105270003BF914B3D4E90110884203D22168095CD8
:105280002C29E0D06268904217D22168085C5D2822
:1052900013D102E005462E46DDE7E068401EE060DF
:1052A00005B16E602020C7E90250A068401CA060D4
:1052B0000120BDE8F081FFE715B12846FFF72CF982
:1052C0000020F6E7034610B500200246995CA1F1E4
:1052D0003004092C01D830380AE0A1F14104052C32
:1052E00001D8373804E0A1F16104052C08D85738FB
:1052F0000844032A00D20001521C042AE6D310BD40
:10530000002010BD2DE9F84F4FF0000980460C0039
:105310004FF02E0A48464D464F46CDF800903ED0FD
:105320002668CEB3D4E9012122E07318C35C342B84
:105330001BD00ADCA3F12B03092B1CD2DFE803F0FE
:10534000151B152D1B1515151500382B0DD006DC5A
:10535000352B0AD0362B08D0372B0CD105E0392B52
:1053600003D0452B01D0652B05D16D1C401C14B119
:105370000B189342D9D32169681C884706000ED0C8
:10538000A16820682A4601443046FAF705FF06F86E
:1053900005907FB100200BE001E00127E5E7002048
:1053A000BDE8F88F315C2E2901D106F800A0401C21
:1053B000A842F7D36946304600F094FC05460098B1
:1053C0000F46864203D1616930468847E7E7C8E95E
:1053D0000657144A144B28463946FBF7B3F902D84E
:1053E0006FF0004108E00022104B28463946FBF7D9
:1053F00091F904D84FF00041C8F8141005E0284690
:105400003946FBF768F9C8F814000821C8F80C10F1
:105410000099A068891B0844A060616930468847EC
:105420000120BDE70000C0FFFFFFDF410000E0C139
:105430002DE9F04107460026C8680C463546B0F510
:105440007A7F7BD2401CE060002C77D0D4E9011039
:10545000884273D22168095C7B296FD1401CA0600F
:105460002046FFF741F8D4E90110884203D22268B0
:10547000125C7D2A4FD08842A0F10100A0605DD26D
:1054800004F110084046FFF784F8E8B30EB3286033
:1054900045600546CCB3D4E90110401C88424AD28D
:1054A000A0602046FFF720F82146284600F048F883
:1054B00058B32046FFF718F82869286200202861B1
:1054C000D4E90110884236D22168095C3A2932D1E8
:1054D00002E006463546DDE7401CA0602046FFF7A7
:1054E00003F82146284600F0B1F870B12046FEF7D7
:1054F000FBFFD4E90110884203D22168095C2C2902
:10550000C0D06268904201E014E014E013D2216838
:10551000085C7D280FD1E068401EE06006B1756030
:105520004020C7E90260A068401CA0600120BDE8DF
:10553000F08103E016B13046FEF7EEFF0020F6E7FB
:105540002DE9F84380468B6808684FF00009C418BD
:10555000CDF8009008680E46651CC15C641C2229C9
:105560006ED10022716808E0BCF15C0F04D17F1C91
:105570008F4265D2521C641C641C271A8F4204D2CD
:1055800094F800C0BCF1220FEED1271A8F4257D2F7
:105590002178222954D11844201A801A3169401CDC
:1055A000884707004CD0009737E029785C2905D060
:1055B00000986D1C00F8011B00902EE00220611B7A
:1055C000012939DB6A78662A14D008DC222A12D035
:1055D0002F2A10D05C2A0ED0622A2DD108E06E2A24
:1055E0000ED0722A0ED0742A0ED0752A24D10DE066
:1055F000082200E00C22009901F8012B00910BE039
:105600000A22F8E70D22F6E70922F4E76A46214666
:10561000284600F075FB78B10544A542C5D3009932
:1056200081F800901021C8E903173068201A401C47
:10563000B0600120BDE8F88317B17169384688472A
:1056400015B13068281AB0600020F3E770B50C007F
:1056500005465ED0206800285BD0A16863680A1DFB
:105660009A4205D80844042231A1FAF7CEFD78B356
:10567000A0686268411D0126914206D82168052272
:1056800008442DA1FAF7C1FD28B3A0686268011D86
:10569000914206D821680422084429A1FAF7B5FDF1
:1056A000E8B1D4E90101814203D22268525C222A86
:1056B0001DD0814221D22268525C2D2A02D0303A7C
:1056C000092A1AD821462846BDE87040FFF71ABEBD
:1056D0000420E86006E0EE60A068401D04E00220BF
:1056E0006E61E860A068001DA060012070BD2146C9
:1056F0002846BDE87040FFF723BF814203D22268ED
:10570000525C5B2A07D0814203D22068405C7B2830
:1057100007D0002070BD21462846BDE87040FFF745
:1057200069BD21462846BDE87040FFF781BE0000F4
:105730006E756C6C0000000066616C7365000000A3
:105740007472756500000000016811F8012B01609A
:105750001046704701684A7811F8023B016002EB7D
:10576000032210467047F0B5054608680026101A57
:1057700017460C4601280CDD0846FFF7EBFF686072
:1057800021680A18BA4204D8A96021680126084491
:105790002060002028603046F0BD2DE9F34F81B035
:1057A00004464FF000084FF0FF3945460298FEF7D7
:1057B00006F80346206D616901224668B04701285A
:1057C00038D182460298FDF7FAFF01268346374614
:1057D00002E07F1C042F11DC206D5B460122D0F813
:1057E00004C06946E047012808D19DF8000000F098
:1057F0007F0101FB0655F6010006EAD460692946DF
:10580000401CFDF7F1FA00EB0A06002D0BDD0298B3
:10581000FDF7D5FF034660692A468119206D466869
:10582000B047A84206D160690178404661F307009D
:105830004FEA10194846BDE8FE8F00002DE9F047F9
:1058400004008A4616D054F8047CD4F800903E1F19
:10585000564500D956462046FEF77CF9054688464F
:10586000324621465046FFF733FA40B1C0F8009067
:10587000BDE8F087BDE8F0470846FEF799B944E96E
:10588000017955B129686A18211F8A4202D9611B22
:10589000091F2960C5F80480EAE7024AC2F80080BF
:1058A000E6E70000800000202DE9F74F144605468A
:1058B000082803D34FF0FF30BDE8FE8F68010126B2
:1058C0000830FEF745F800F00F00012801D0B01FA6
:1058D000F2E724B341F6086000EB4510FEF738F814
:1058E0004FF6FF7101EA8020A04200D204464FF437
:1058F000427000EB451841F60870DFF88CA000EB11
:10590000451B06FA05F92846FFF759F906464046B1
:10591000FEF71EF8172816D01C2803D00DE06FF0F4
:105920000D00C9E7C6B92846FFF76FF90746584684
:10593000FEF70EF8B7EB802F05D12846FEF7B8FE2C
:105940006FF00600B8E7BAF8021019EA010F01D0AB
:105950000020B1E7002ED6D0A64200D2344622461F
:105960002846019900F064FB4FF4847000EB451069
:1059700005464021FEF752F82846FDF7E9FF0028CA
:10598000FAD1204698E7000044000020054A18B1EB
:1059900011B1C2E9030170470348D06003481061A8
:1059A00070470000180000203F61000841610008B6
:1059B000054A18B111B1C2E90501704703485061A9
:1059C00003489061704700001800002045610008FE
:1059D00043610008074A10B513889C05FDD518B12E
:1059E00011B1C2E9070110BD0348D061034810623C
:1059F00010BD000018000020C9620008CD62000838
:105A00002DE9F74F16460746082803D34FF0FF301D
:105A1000BDE8FE8F780101240830FDF799FF00F002
:105A20000F00012801D0A01FF2E76EB14FF44270C1
:105A300000EB47108046FDF78BFF6FF0060B172831
:105A400005D01C2864D102E06FF00D00E0E7DFF81C
:105A50000C91BC404FF40271B9F8040001EB4715FA
:105A600004420FD02846FDF773FF00F01F00C10667
:105A700022D528461021FDF7D1FFB9F80410A14323
:105A8000A9F8041041F6087000EB4710FDF760FF1D
:105A90004FF6FF7101EA8020864200D9064638465B
:105AA000FFF7B3F882464046FDF752FF17280FD0A4
:105AB0001C280DD040B12BE000072FD53846FEF74B
:105AC000F7FD6FF00C00A3E73846FEF7F1FD1FE08D
:105AD000B9F80200044201D056451FD85645DED819
